:020000040800F2
:10000000906200209D010008733000082D28000830
:1000100071300008E9050008C5590008000000001B
:10002000000000000000000000000000094200087D
:10003000A906000800000000153100080D42000864
:10004000B7010008B7010008B7010008B7010008B0
:10005000B7010008B7010008B7010008B7010008A0
:10006000B7010008B7010008B7010008B701000890
:10007000B7010008B7010008B7010008B701000880
:10008000B7010008B7010008B7010008B701000870
:10009000B7010008B7010008B7010008B701000860
:1000A000B7010008B7010008B7010008B701000850
:1000B000B7010008B7010008B7010008B701000840
:1000C000B7010008B7010008B7010008B701000830
:1000D000B7010008B7010008B7010008B701000820
:1000E000B7010008B7010008B7010008B701000810
:1000F000B7010008B7010008B7010008B701000800
:10010000B7010008B5360008B7010008B7010008BC
:10011000B7010008B7010008B7010008B7010008DF
:10012000B7010008B7010008B7010008ED05000895
:10013000B7010008B7010008B7010008B7010008BF
:10014000B7010008B7010008B701000875300008C2
:10015000B7010008F9050008B7010008B701000859
:10016000B7010008B7010008B7010008B70100088F
:10017000B701000881300008B70100080000000046
:10018000B7010008B7010008DFF80CD000F07AF8DA
:1001900000480047555A00089062002006488047F2
:1001A00006480047FEE7FEE7FEE7FEE7FEE7FEE75C
:1001B000FEE7FEE7FEE7FEE71D43000889010008B1
:1001C0002DE9F05F0546002092469B46884606468C
:1001D000814640241BE0284641464746224600F01F
:1001E00041F853465A46C01A914110D31146184659
:1001F000224600F028F82D1A67EB01084F462246E8
:100200000120002100F01FF817EB00094E41201ECD
:10021000A4F10104DFDC484631462A464346BDE8E6
:10022000F09F40EA01039B0703D009E008C9121FB1
:1002300008C0042AFAD203E011F8013B00F8013BA0
:10024000521EF9D27047202A04DB203A00FA02F14C
:10025000002070479140C2F1200320FA03F31943B4
:1002600090407047202A04DB203A21FA02F0002156
:10027000704721FA02F3D040C2F1200291400843B6
:1002800019467047064C074D06E0E06840F0010350
:1002900094E8070098471034AC42F6D3FFF778FF94
:1002A000E45E0008045F000870B58C1810F8015B6C
:1002B00015F0070301D110F8013B2A1106D110F8FF
:1002C000012B03E010F8016B01F8016B5B1EF9D103
:1002D0002B0705D40023521E0DD401F8013BFAE789
:1002E00010F8013BCB1A921C03E013F8015B01F8F4
:1002F000015B521EF9D5A142D8D3002070BD000089
:1003000070B50B4D0124882069688847A0F500610D
:1003100011390AD1074C8820256029688847206850
:10032000FF21C268882090470024204670BD00004D
:10033000D40100202C000020044910B509688A6906
:1003400001468820904780B210BD00002C0000209C
:1003500010B5F820FFF7F0FFC0B2C10813D00106B6
:1003600001D4012010BD410601D4022010BD810638
:1003700001D4032010BDC10601D4042010BD000724
:1003800001D4052010BD002010BDFFF7B9BF704794
:100390000146014801F0EABFE003002010B504481F
:1003A00001F0F6FF042801D0012010BD002010BD8F
:1003B000E003002010B5124900241048C1E90004F0
:1003C0008C60CC600C614C618C6100F01BF80128E2
:1003D00001D0012010BD0021094800F025F808488F
:1003E00002F0CCF808B1012406E04FF400610448A3
:1003F00001F092FE0028F6D1204610BD002C0140ED
:10040000E003002008B501208DF8000041030548F5
:1004100000F0E8FB10B100208DF800009DF800000E
:1004200008BD0000001C02402DE9F04F044654486E
:1004300087B00025016841F400610160006800F4A4
:10044000006005904E481438016841F48001016055
:10045000016801F480010591016841F00401016027
:10046000016801F004010591016841F00801016093
:10047000016801F008010591016841F08001016007
:1004800000684FF0010800F0800005900220CDE9DF
:10049000010803260C20CDE903604FF4F8500090CA
:1004A0006946384800F0C6FA04276946364800977E
:1004B00000F0C0FAF80203968DE82101694633483E
:1004C00000F0B8FA00220E21312000F027FE312082
:1004D00000F017FE2E484FF0006B3902C0E901B55D
:1004E000C0E903518900416100F1180289004FF011
:1004F00020084FF4403982E802034FF4000AC90192
:10050000C0E90BA123490160C0E90976E063846377
:1005100000F0DDF81E4800F0D5F91D48402160309C
:1005200000F11802C0E90215090101618900416169
:10053000890082E80203C901C0E90BA115494831CD
:10054000C0E9001BC0E909762064846300F0BFF8AD
:100550000F48603000F0B6F900220F213B2000F078
:10056000DDFD3B2000F0CDFD00220F21452000F0F5
:10057000D5FD452000F0C5FD07B0BDE8F08F0000B7
:100580004438024000080240000C0240001C0240B7
:10059000200300205864024013460A4610B5014665
:1005A000034802F033F8002800D0012010BD0000FD
:1005B000E0030020014901204860704784000020CA
:1005C00013460A4610B50146034802F0A1F8002878
:1005D00000D0012010BD0000E003002001490120EF
:1005E0008860704784000020FEE700000148C06B6F
:1005F00000F098B8E00300200148006C00F092B8C9
:10060000E003002001681823CAB2103AB2FBF3F2EB
:10061000054B6FF30901032A9B5CC36500D9091DD3
:100620008165084670470000DB5E000810B5014692
:1006300000208B698A6A4FF0C07453B1B3F5005F34
:1006400015D072B1012A0CD0022A0AD0032A09D18E
:1006500004E01AB1012A06D0022A03D1C96AC901ED
:1006600000D5012010BDC96AA142FAD010BD002AF0
:10067000F7D0012AF2D0022AF3D0032AF3D010BD1A
:1006800030B50468256825F480252560046863601A
:100690008368402B036803D099600068C26030BD56
:1006A0009A600068C16030BD704790F8351002292B
:1006B00003D08021416501207047052180F8351065
:1006C0000068016821F0010101600020704770B5E9
:1006D000040025D094F83500022820D02068016855
:1006E00021F0010101602068002505602068456057
:1006F000206885602068C560206805612168212028
:1007000048612046FFF77EFF94F85C203F2191402E
:100710008160656584F8355084F83450002070BDE0
:10072000012070BD2DE9F84304464FF00009CDF8D3
:10073000009063484FF41651A56D0068B0FBF1F7C7
:100740002E6894F85C10082000FA01F131420FD0B5
:1007500021680A6852070BD50A6822F004020A6071
:1007600094F85C108840A860606D40F001006065FE
:1007700094F85C104FF0010808FA01F0304208D0FC
:1007800021684969090604D5A860606D40F002003F
:10079000606594F85C1004208840304208D02168DD
:1007A0000968890704D5A860606D40F004006065A1
:1007B00094F85C1010208840304218D021680968F5
:1007C000090714D5A86020680168490304D50068AA
:1007D000000308D5A16C07E00168C90503D40168CE
:1007E00021F008010160216C09B12046884794F886
:1007F0005C1020208840304231D021680968C90649
:100800002DD5A86094F8350005282068016806D029
:10081000490347D5006800031DD4616C1CE021F03A
:10082000160101602068416921F080014161206C5E
:1008300008B9A06C20B12068016821F008010160AE
:1008400094F85C103F208840A86084F8349084F8C5
:100850003580216D1FE0E16B09B120468847606D4E
:1008600000282BD0606DC00714D0052084F8350017
:100870002068016821F0010101600098401C00908F
:10088000B84203D820680068C007F6D184F83490D5
:1008900084F83580E16C002910D001B02046BDE815
:1008A000F04308470168C905D5D4016821F010015B
:1008B000016084F8349084F83580CCE7BDE8F88393
:1008C000200100202DE9F041044600F097F906468A
:1008D0005CB1002584F83450022084F8350020688B
:1008E000016821F0010101600DE00120BDE8F08107
:1008F00000F084F9801B052805D9202060650320BD
:1009000084F83500F2E720680068C007F0D122685B
:10091000116820480140D4E901031843D4E90336A3
:100920003343184363691843A3691843E3691843C1
:10093000236A18430843616A042903D1D4E90B13DD
:1009400019430843106020684069666A20F0070177
:1009500030460E43012704280CD1A06A0643E06A02
:1009600040B12046FFF762FE20B14020606584F868
:100970003570BAE7206846612046FFF743FE94F8D9
:100980005C203F2191408160656584F835700020CE
:10099000ACE700003F8010F02DE9F0410446866D81
:1009A00090F83400002501280DD0012084F834008F
:1009B00094F835700020012F07D084F83400022508
:1009C0002846BDE8F0810220FBE7022784F8357055
:1009D00060652046FFF754FE94F85C103F20884085
:1009E000B0602068016841F016010160206841692B
:1009F00041F080014161206C20B12068016841F024
:100A0000080101602068016841F001010160D7E739
:100A100070B5044600F0F2F80546601C02D00448A8
:100A20000078044400F0EAF8401BA042FAD370BDFD
:100A3000C80100202DE9F84FDFF87CB100224FF00B
:100A400001084FF0030A4FF00F090BF1040E00BF2D
:100A50000B6808FA02F42340A3426ED14D68022DC0
:100A600001D0122D0ED1D50800EB850CDCF82050FA
:100A70005607F70E09FA07F6B5430E69BE402E4336
:100A8000CCF82060066855000F790AFA05FC07F0DB
:100A9000030726EA0C06AF40374307604E68012E75
:100AA00005D0022E03D0112E01D0122E0ED1866851
:100AB000CF6826EA0C06AF40374387604668A643F6
:100AC0000C79C4F30014944034434460C6688C68C5
:100AD00026EA0C06AC403443C4604C68E40065D59B
:100AE000364C256845F480452560246822F00305CE
:100AF00004F480440094324C2E19D6F80848950727
:100B00002F0F09FA07F5AC432E4DA84201D100255D
:100B100024E02D4DA84201D101251FE02B4DA84214
:100B200001D102251AE02A4DA84201D1032515E082
:100B3000284DA84202D1042510E037E0264DA842F6
:100B400001D105250AE0254DA84201D1062505E081
:100B5000234DA84201D1072500E00825BD402543CB
:100B6000C6F80858DBF800405D464E689C43F60323
:100B700000D51C432C60DEF8004075464E689C434F
:100B8000B60300D51C432C600B4D08352C684E680D
:100B90009C43F60200D51C432C60074D0C352C6895
:100BA0004E689C43B60200D51C432C60521C102A90
:100BB000FFF44EAFBDE8F88F003C014044380240DE
:100BC00000300140000002400004024000080240E2
:100BD000000C0240001002400014024000180240C5
:100BE000001C02400069084000D00120704700004E
:100BF00001480068000C7047002004E0014880684C
:100C000070470000C801002010B5040013D0242054
:100C100084F83D002068016821F001010160204650
:100C200000F02EFA0020206484F83D0044F8300FD4
:100C3000A073207310BD012010BD90F83D007047D7
:100C400070B5040004D094F83D00002510B106E012
:100C5000012070BD84F83C50204600F012FA242098
:100C600084F83D002068016821F00101016001F075
:100C70007FF833492268B0FBF1F15160314A636873
:100C8000934206D94FF4967359434FF47A73B1FBEC
:100C9000F3F12368491C1962616891420BD849003D
:100CA000B0FBF1F2C2F30B02042A01D2042019E0D6
:100CB000B0FBF1F016E0A3689BB301EBC10202EBBD
:100CC0000112B0FBF2F242F48042120530D04BB375
:100CD00001EBC10202EB0111B0FBF1F040F48040E6
:100CE00040F400402168C861D4E907010843216845
:100CF0000860D4E90310084321688860D4E905013D
:100D000008432168C8602068016841F00101016062
:100D10002564202084F83D00256384F83E5000209F
:100D200070BD00E006E001EB4102B0FBF2F2CCE75F
:100D30000120D7E701EB4101B0FBF1F0D0E7000063
:100D400040420F00A08601002DE9FF4F83B09A4674
:100D5000DDE9118793460446DDF84090FFF74EFF2A
:100D6000054694F83D00202874D1192301227249C8
:100D70002046009501F05FFE0028F5D194F83C0074
:100D8000012867D0012084F83C0020680168C90769
:100D900003D1016841F0010101602068016821F47C
:100DA00000610160222084F83D00402084F83E006C
:100DB00000262664C4F82490A4F82A805F48E062E4
:100DC000608D2085CDE9007553465A46204604992A
:100DD00001F041FD28B1206C84F83C60042843D028
:100DE00076E0208DC8B1012820D00228206823D0C9
:100DF000416980690090208D03286BD801282AD092
:100E00004F4902283B464FF0000200955BD08846D0
:100E1000204601F010FEE8BB40E02068416981698E
:100E20000091016841F40071016076E0206801687A
:100E300021F480610160F0E7016821F480610160C4
:100E40002068016841F4006101602068416980699F
:100E5000009062E06EE02A463946204601F060FECE
:100E600030B1206C202833D0012007B0BDE8F08FCE
:100E7000206847E02068016841F400710160206843
:100E80000169606A421C62620170208D401E2085EB
:100E9000608D00E01CE0401E6085E9E72068016885
:100EA00021F48061016020680169606A421C62620D
:100EB0000170208D401E2085608D401E60853B4660
:100EC000002241460095204601F0B5FD0028D1D012
:100ED0000320CAE72A463946204601F021FE0028B1
:100EE000BFD120680169606A421C62620170208D76
:100EF000401E2085608D401E608520684169C94381
:100F000049070AD40169606A421C62620170208D3F
:100F1000401E2085608D401E6085208D00287FF456
:100F20006AAF202084F83D0084F83E6084F83C607D
:100F300000209AE7022098E7020010000000FFFF5F
:100F4000040001002DE9FF4F83B09A46DDE91187C7
:100F500093460446DDF84090FFF750FE064694F8AD
:100F60003D0020287DD119230122434920460096C7
:100F700001F061FD00287CD194F83C00012878D074
:100F8000012084F83C0020680168C90703D101688A
:100F900041F0010101602068016821F400610160F5
:100FA000212084F83D00402084F83E00002525647F
:100FB000C4F82490A4F82A803048E062608D20852F
:100FC000CDE9007653465A462046049901F0BCFC10
:100FD00080B3206C84F83C50042848D008E03246A6
:100FE0003946204601F0CDFD30B1206C042839D0BF
:100FF000032007B0BDE8F08F606A411C6162216880
:1010000000780861208D401E80B22085618D491EC8
:10101000618521684A69D24352070BD468B1606A7E
:10102000421C626200780861208D401E2085608D20
:10103000401E6085208D0028D1D132463946204699
:1010400001F0D2FC0028D0D154F83D0B016841F4E6
:1010500000710160202004F81E09E5776577002003
:10106000C7E706E02068016841F4007101600120D3
:10107000BFE70220BDE70000020010000000FFFFF4
:101080007047704702488168027811448160704758
:10109000C8010020094810B5016841F400710160E1
:1010A000016841F480610160032000F057F80020DE
:1010B00000F006F800F024F8002010BD003C0240CB
:1010C00070B50D4D04464FF47A712878B1FBF0F0FD
:1010D0000A490968B1FBF0F001F094FB48B9102C03
:1010E00007D200222146501E00F018F800206C6044
:1010F00070BD012070BD0000C8010020200100204B
:101100007047002809DB00F01F02012191404009CF
:10111000800000F1E020C0F800117047F0B40E4BE1
:101120001B680C46C3F30223C3F10705042D00D945
:101130000425191D072901D2002300E0DB1E01262A
:1011400006FA05F1491E214099409E40761E164040
:101150003143F0BC04F037BC0CED00E0064900F070
:10116000070208684FF6FF03184040EA0220034ACE
:1011700010430860704700000CED00E00000FA0525
:101180000068416200207047F0B500680023446A9F
:1011900031B1856A4FF4827604EB15444D1E0AE0A6
:1011A00044EA024181620FE006EB8307C7595B1CEA
:1011B00004EB1744DBB2AB42F6DB4FF4807303EB76
:1011C000810144EA024242500020F0BDD0F8EC0315
:1011D00003F06FBBC1EBC10200EB8202D0F8EC035D
:1011E000526C03F0DCBAC1EBC10200EB8202D0F812
:1011F000EC03D2F8042203F027BBD0F8EC0303F091
:101200005ABB10B504460A460B0601F07F00C0EB3E
:10121000C00104EB810101D5383101E001F5FC7119
:101220000870D009487094F8B803012809D001204B
:1012300084F8B803206803F0B7FF002084F8B803EF
:1012400010BD022010BD70B50A460446090602F022
:101250007F0005D5C0EBC00104EB8101383105E00A
:10126000C2EBC20104EB810101F5FC7100258D7018
:101270000870D009487094F8B803012809D00120FB
:1012800084F8B803206804F070F984F8B85300209B
:1012900070BD022070BD10B5044690F8B803012857
:1012A0000AD0012084F8B803080607D501F07F01B1
:1012B000206804F0DFFA04E0022010BD206804F08A
:1012C000C9FA002084F8B80310BD01F00F01C1EB8A
:1012D000C10100EB8100B0F8100280B2704770B518
:1012E00004460D460E0601F07F00C0EBC00104EB82
:1012F000810101D5383101E001F5FC71ED0908707B
:101300004D708A60CB7000D0C8800025022B00D1C0
:101310000D7194F8B803012809D0012084F8B803AE
:10132000206803F095FE284684F8B85370BD02206B
:1013300070BD70B50C4601F07F05C5EBC50100EB33
:101340008101C1F80C32C1F804220023C1F8103227
:1013500081F8F93181F8F851036901F5FC71012B2D
:1013600000D10A616206027C006803D004F05EF9D5
:10137000002070BD04F03AF8FAE770B50D46044657
:10138000090605F07F0005D5C0EBC00104EB810123
:10139000383105E0C5EBC50104EB810101F5FC71B5
:1013A00001228A700870E809487094F8B80301288F
:1013B00007D084F8B823206804F009F9680602D041
:1013C00007E0022070BD217C04F56F72206804F0F4
:1013D000ADF8002084F8B80370BD70B50C4601F07C
:1013E0007F05C5EBC50100EB8101CB644A64002396
:1013F0000B65012381F8393001F8385F0369012B4F
:1014000000D10A616206027C006803D004F00EF984
:10141000002070BD03F0EAFFFAE700002DE9F84F65
:10142000044600680026054604F054FA002875D1E9
:10143000206804F078FA002870D0206804F073FA6D
:10144000800704D52068416901F0020141612068EC
:1014500004F069FA010304F56F704FF0010B4FF0CF
:10146000000A00904DD5206804F03FFA074646E098
:10147000F80742D0F1B2206804F04DFA8046C00768
:1014800028D005EB4612C2F808BB2069012811D10B
:10149000C6EBC60004EB8001D2F8102BD1F8000295
:1014A000C2F31202821AC1F81022D1F804221044A9
:1014B000C1F80402F1B22046FFF795FE2069012829
:1014C00008D13EB9D4F80C0220B920680121009A55
:1014D00004F02CF85FEA087007D5204600F08AFB7C
:1014E00005EB46110820C1F8080B5FEAC86004D577
:1014F00005EB46111020C1F8080B7F08761C002F61
:10150000B6D1206804F00FFA40034FF040095ED5D1
:10151000206804F0E3F90746002656E0D2E1F80718
:1015200051D0F1B2206804F0E7F98046C00724D01A
:10153000D5F834280BFA06F08243C5F8342805EBB9
:101540004610C0F808B92069012807D1C6EBC600CB
:1015500004EB8000D0E9101211444164F1B220463E
:10156000FFF738FE2069012807D136B9E06C20B9B1
:1015700020680121009A03F0D9FF5FEA087004D5C2
:1015800005EB46110820C1F808095FEAC86004D5D8
:1015900005EB46111020C1F808095FEA486003D541
:1015A00005EB4611C1F808995FEA887004D505EB90
:1015B00046110220C1F808095FEA086003D53146E8
:1015C000204601F063FD7F08761C002FA7D120681C
:1015D00004F0A9F900280DDAD5F8040820F001007C
:1015E000C5F80408204600F0EBFA2168486900F0CD
:1015F00000404861206804F096F900050BD5D5F845
:101600000808C00702D0204600F010FB206841699E
:1016100001F400614161206804F085F9C0044CD5F3
:10162000D5F8040820F00100C5F80408102120684E
:1016300004F020F90020FF2107E000BF05EB401275
:10164000C2F80819C2F8081B401C62688242F5D82B
:101650004FF0FF30C5F81808D5F81C0840F001100D
:10166000C5F81C08206B60B1D5F8840840F00B0069
:10167000C5F88408D5F8440840F00B00C5F84408C4
:101680000BE0D5F8140840F00B00C5F81408D5F8A5
:10169000100840F00B00C5F81008D5F8000820F439
:1016A000FE60C5F80008217C2068009A03F03EFF28
:1016B0002168486900F480504861206804F033F9DB
:1016C00080047DD5206803F003FD2068C16821F403
:1016D0007051C160206804F0DFF878B10320C4F8CD
:1016E0001490E06000F03EFB7749784A0144914253
:1016F0000AD22068C16841F4705158E04FF400707C
:10170000C4F80CA0606136E07149724A014491420C
:1017100004D22068C16841F4605148E06E496F4AC4
:101720000144914204D22068C16841F450513EE026
:101730006B496C4A0144914204D22068C16841F46B
:10174000405134E06849694A0144914204D220681A
:10175000C16841F430512AE06549664A014491422A
:1017600004D22068C16841F4205120E06249421847
:1017700062498A4204D22068C16841F4105116E0DF
:101780005F49604A0144914204D22068C16841F433
:1017900000510CE05C4908445C4988422068C168FB
:1017A00003D241F4E05102E00AE041F4C051C160CB
:1017B000204600F0F5F92068416901F400514161CB
:1017C000206804F0B0F8C00636D52168886920F09A
:1017D00010008861D5F8208008F00F00C0EBC00031
:1017E00004EB8007C8F3434007F5FC77022802D0DA
:1017F000062812D01BE047F6F07018EA000F16D04A
:10180000C8F30A1290462846F96804F090F8F86880
:101810004044F860B869404408E00822284600992E
:1018200004F085F8B969C8F30A100844B861206863
:10183000816941F010018161206804F074F80007AB
:1018400007D5204600F0C0F92068416901F0080181
:101850004161206804F067F8C00208D5F1B2204663
:1018600000F056F82068416901F480114161206858
:1018700004F059F8800208D5F1B2204600F04CF887
:101880002068416901F400114161206804F04BF8BF
:10189000400007D52046FFF799FC2068416901F018
:1018A00080414161206804F03EF840070AD5206875
:1018B0004568680702D52046FFF79FFC206841680D
:1018C00029434160BDE8F88F405327FF00350C00E5
:1018D000401E1BFF40420F0000DC0BFF804F120038
:1018E000808CF9FE20D6130060B6E5FE60E316009A
:1018F00000D3CEFE40771B00C05BB3FEC091210039
:1019000000CA91FE20753800E05459FEE09C410069
:10191000D0F8EC0303F04CB8D0F8EC0303F04AB86D
:10192000F0B58BB004004FF0000556D0032084F8CA
:10193000B903204600F054F8206803F051FD04F18B
:10194000100128220F466846FEF76BFC94E80F0052
:1019500003F0D8FB0021206803F0F9FF01260020E6
:10196000C5EBC50104EB810181F8396001F8385FEE
:10197000CD80C8708860C8606D1C48610F2DEFD3A2
:1019800000214FF4827300BFC1EBC10204EB82025D
:1019900003EB810582F8F90182F8F811D18782F80A
:1019A000FB01C2F80002C2F80402C2F80C0222686D
:1019B0005051491C0F29E7D3282239466846FEF7C3
:1019C00030FC94E80F0003F06BFC84F8B9632068E6
:1019D00003F05AFC00200BB0F0BD0120FBE7000033
:1019E0002DE9F04701680025664C022703200A26EE
:1019F000DFF8948186B04FF0010AB1F1A04F7BD09F
:101A0000624A91427CD1216841F001012160216844
:101A100001F001010591216841F002012160216876
:101A200001F002010591216841F004012160216863
:101A300001F004010591216841F0800121602168D5
:101A400001F080010591216841F4807121602168D5
:101A5000814601F4807105912021CDE90017CDE97F
:101A60000259049669464046FEF7E4FF0820CDE996
:101A70000007CDE90259694604964046FEF7DAFFB1
:101A800043F62340CDE90007694604960295404895
:101A9000FEF7D0FFCDF800A00496CDE901756946A8
:101AA0003C48FEF7C7FF1020CDE9000769460496C1
:101AB00002953948FEF7BEFFE014CDE900076946FC
:101AC000049602953548FEF7B5FF206840F00050B7
:101AD0002060206800F000500590206840F08040B1
:101AE00020602068002200F08040059007214D20F2
:101AF000FFF714FB4D2001E005E001E0FFF701FBDB
:101B000006B0BDE8F087216841F00101216021683D
:101B1000CDE9025001F0010105914FF4C051CDE92A
:101B20000017049669464046FEF784FF4FF40070A4
:101B3000CDE90005694640460295FEF77BFF4FF46C
:101B40008060009012200496CDE9010A6946404663
:101B5000FEF770FF0B48001D016841F08001016035
:101B600008481430016841F4804101600068002297
:101B700000F48040059007214320FFF7CFFA43206F
:101B8000B9E7000030380240000002400000044085
:101B90000004024000080240001C024000200240F5
:101BA00010B50446C068012100B90021D4F8EC0347
:101BB00002F044FFD4F8EC03BDE8104002F00DBF82
:101BC000D0F8EC0302F028BFD0F8EC0302F02ABFF3
:101BD00010B5044690F8B803012809D0012084F814
:101BE000B803206803F0C9FE002084F8B80310BDD4
:101BF000022010BDD0F8EC2300F56F71104602F002
:101C000027BF10B5044690F8B80301280CD0012076
:101C100084F8B803206803F02BFB206803F014FE5F
:101C2000002084F8B80310BD022010BDD0F8EC03EA
:101C300002F049BF2DE9F0470E46050065D0DFF8F8
:101C40001481D8F80000F7B200F00F00B04207D2BC
:101C500088F80070D8F8000000F00F00B04254D1AE
:101C600028683D4C810712D5400703D5206840F411
:101C7000E05020602878000703D5206840F46040D9
:101C800020602068A96820F0F000084320602878D0
:101C9000C0072DD0304968680839012812D00228C1
:101CA00013D0032811D00968890700292DDA21688B
:101CB00021F0030101432160FEF7A0FF814641F2BC
:101CC000883A0EE009688903EFE709688901ECE7C3
:101CD000FEF794FFA0EB0901514502D90320BDE8AE
:101CE000F0872068696800F00C00B0EB810FEFD13D
:101CF000D8F80010404601F00F01B14207D9077033
:101D0000006800F00F00B04201D00120E7E728781A
:101D1000400705D52068E96820F4E05008432060BA
:101D20002878000706D52068296920F4604040EA39
:101D3000C100206000F02CF82168084AC1F30311AB
:101D4000515CC840064908600020FFF7B9F900203F
:101D5000C5E70000003C024008380240AC5E0008C5
:101D60002001002001480068704700002001002089
:101D70000448054900680968044AC1F38221515C9E
:101D8000C84070472001002008380240BC5E0008AF
:101D9000154810B5006810F00C02144813D014490F
:101DA000042A0FD0082A0ED10F4C241F2268236862
:101DB00002F03F025B0207D52068C0F38810A0FB49
:101DC000010106E0084610BD2168C1F38811A1FB9E
:101DD00000010023FEF7F4F92168C1F30141491C19
:101DE0004900B0FBF1F010BD083802400024F400B7
:101DF00040787D012DE9F84F050076D02878DFF88E
:101E0000F8B2BE4CC00749D0DBF800105846C1F309
:101E10008101012908D00068C0F3810002280AD19D
:101E2000201D0068400206D52068800336D568680A
:101E30000028E2D032E06868B0F5803F10D0B0F5FD
:101E4000A02F206810D020F480302060206820F47B
:101E5000802020606868A0B1FEF7D0FE06460CE046
:101E6000206840F48030F4E740F480202060F7E7F9
:101E7000FEF7C4FE801B642873D820688003F7D562
:101E80000CE0FEF7BBFE064605E000BFFEF7B6FE1F
:101E9000801B6428F0D820688003F7D42878DFF806
:101EA000608280074FF000093ED5DBF800105846ED
:101EB00011F00C0F09D00068C0F3810002280BD18B
:101EC0008D48001F0068400206D42068800715D5A1
:101ED000E868012809D111E0E868B8B10120C8F824
:101EE0000000FEF78BFE064605E002E1FEF786FEE7
:101EF000801B0228C0D820688007F7D52068296990
:101F000020F0F80040EAC10020600DE0C8F8009021
:101F1000FEF774FE064604E0FEF770FE801B022802
:101F20001FD820688007F7D42878000722D5724E82
:101F3000744869696C3671B101210160FEF75EFE7B
:101F4000074604E0FEF75AFEC01B022809D8306895
:101F50008007F7D50EE0C0F80090FEF74FFE074669
:101F600005E083E0FEF74AFEC01B02287ED83068F9
:101F70008007F7D42878400768D5DFF87CA10027D0
:101F80000AF1380ADAF80000C0000BD4DAF80010C1
:101F900041F08051CAF80010DAF80000012700F083
:101FA00080500090584E3068C00510D4306840F41E
:101FB00080703060FEF722FE009005E0FEF71EFE06
:101FC0000099401A022851D83068C005F6D54A4E0B
:101FD000A868683601280FD00528306810D020F096
:101FE00001003060306820F004003060A868B8B1AB
:101FF000FEF704FE00900FE0306840F00100F4E7C7
:1020000040F004003060F7E7FEF7F8FD0099411A50
:1020100041F28830814264D830688007F4D50EE000
:10202000FEF7ECFD009007E0FEF7E8FD0099411A8D
:1020300041F28830814254D830688007F4D42FB1FF
:10204000DAF8001021F08051CAF80010A869C0B376
:10205000DBF80010C1F3810102294AD0022848466A
:1020600007D0C8F86000FEF7C9FD00E039E005467A
:102070003AE04746C8F86000FEF7C0FD064604E0B7
:10208000FEF7BCFD801B02282BD820688001F7D406
:10209000D5E907010843A96A1C4A490802EB014136
:1020A0006A6A41EA8211084395F82C1040EA0161FE
:1020B0001148001F016001203866FEF79FFD0546AC
:1020C00005E014E0FEF79AFD401B022809D82068BD
:1020D0008001F7D50BE000BFFEF790FD401B022802
:1020E00002D90320BDE8F88F20688001F4D40020D5
:1020F000F8E70120F6E70000083802400038024007
:1021000000004742800E4742007000400000FFFF81
:1021100010B5FEF73CF910BDFEB5044603200D4690
:1021200084F83400606C032820D0B5F5805F1DD0A2
:10213000B5F5006F05D045B1A06B40F00060A0631D
:1021400009E0204601F0BEFF02E0204601F093FFC7
:10215000A16B0143A163A06B012658B1216840F235
:10216000FF50886384F834600120FEBDA06B40F00E
:102170008050E4E7211DD4E905700EC90095CDE932
:102180000170206801F09CFA84F834600020FEBDE4
:102190007047F0B5426E120E93090B70C2F38303C1
:1021A0004B7002F003028A70426E120CCA70B0F8D3
:1021B0006420120A0A7190F864204A71826E4FF608
:1021C000FF73120E03EA0212CA80826ECB88C2F33A
:1021D000074243EA1213CB8002F00F020A72B0F8F2
:1021E0006820C2F30722D3094B72C2F380138B72AB
:1021F000C2F34013CB72C2F300130B7300264E736D
:10220000446C4FF4007701236CB1012C43D0026879
:1022100040F2FF519163816B41F08051816380F8FE
:1022200034300120F0BD9207120D0A6190F8682049
:102230000C6944EA82020A61C26E0C69120E44EA19
:1022400092140C61C2F3C2040C7502F007024A75C5
:10225000C26EC2F3074254098C75C2F38204CC7576
:102260009207520F0A76B0F86C20C2F307240A7E58
:1022700042EAD4120A760A69521C42650D7EAD1CF0
:10228000AA4042650D7A03FA05F585656D0A6A4331
:10229000C0E917271CE090F868209206920A0A61AC
:1022A000C26E0C69120E44EA02220A61C26E0C6907
:1022B000C2F3074214430C61B0F86C20C2F3072448
:1022C0000A69521C4FEA82224265C0E9167207660B
:1022D000C4F3801201F8192F4FEA84624FEA526268
:1022E0004A7010F86C2F4C7844EAD2144C7002F00B
:1022F0007F028A7042684FEA12624FEAD214CC70B1
:10230000C2F341140C71C2F382044C714FEA827221
:102310004FEA12728A7142688C79C2F3074244EA2A
:1023200092148C71C2F34014CC710E7202F001024F
:102330004A728288C2F307224FEAD2148C72C2F327
:102340008014CC72C2F340140C73C2F300144C73AB
:10235000C2F381048C7302F00302CA7300794FEA5E
:10236000500008744B744FF00000F0BD426C0A60DE
:10237000826C4A60C26C8A60026DCA60426D0A61FA
:10238000826D4A61C26D8A61006EC861002070472B
:1023900070B50446B0F8500000250104206801F033
:1023A0000EFB18B1A16B0143A16304E0002120687A
:1023B00001F07AF90546C5F3432070BD70B50446B7
:1023C0000068416B4FF00105CA0540F23A3149D52A
:1023D0002A0282632068C26B8A43C263206B0007B3
:1023E000206B22D5800702D4206B800609D5206897
:1023F00001F016FB28B1A16B0143A1632046FFF752
:10240000C7FE216840F2FF50886384F83450206B87
:10241000C00702D1206B800703D5204600F070F979
:1024200070BD204600F070F970BD0006FCD5206B31
:10243000800609D5206801F0F3FA28B1A16B0143A9
:10244000A1632046FFF7A4FE206BC007ECD1206BF0
:102450008007E9D42068C16A21F00801C16284F8CC
:102460003450DEE7426B520410D54FF48041816353
:10247000266A002506EB8501206801F04AF96D1CEB
:10248000082DF7D3206A2030206270BD426B120401
:1024900010D54FF400418163A66A0025206801F041
:1024A00025F946F825006D1C082DF7D3A06A2030C9
:1024B000A06270BD426B40F23A231A42F9D0426BDF
:1024C000920703D5A26B42F00202A263426B12078D
:1024D00003D5A26B42F00802A263426B920603D5B9
:1024E000A26B42F02002A263426BD20603D5A26B1C
:1024F00042F01002A263426B920503D5A26B42F038
:102500000802A26340F2FF7282632068C26B8A43B2
:10251000C263206B000623D5206C58B115490165B4
:10252000206CFEF7C2F80028C3D0206CBDE87040D4
:1025300001F04FBCE06B58B10F490165E06BFEF74D
:10254000B4F80028B5D0E06BBDE8704001F016BCCF
:102550000020A06384F834502046FFF7D9FD70BDF9
:10256000206B0007FBD584F834502046FFF710FE9F
:1025700070BD0000D33D00087D3D000870B504002B
:1025800004D094F83400002510B105E0012070BD9E
:102590002577204600F038F8032084F834002046E0
:1025A00000F008F8A5632563012084F834000020BA
:1025B00070BD0000FEB50025044676200095CDE9EB
:1025C00001502B462A462946206801F079F80D4E25
:1025D00046F8A05F206801F085F8012535600220EB
:1025E000FEF716FA204601F0F5FC20B9204601F06E
:1025F0007EFC002805D084F83450A16B0143A16310
:102600000120FEBD00802542704700002DE9F04307
:10261000154687B01F460A00044607D094F83400D8
:10262000012807D0022007B0BDE8F083A06B40F07E
:10263000006008E00020A063E36DE919994204D925
:10264000A06B40F00070A06351E0032184F83410C7
:1026500021688146C8622168CB6B43F49573CB63D4
:10266000E36B24494FEA4728D963E36B2249D964D5
:10267000E16B4FEA980308652168E06B8031FEF753
:102680008BF91E4801260660606C012800D06D029F
:102690004FF0FF30CDE9000890200290022005960F
:1026A000CDE903096946206800F0E8FF4FF40071A6
:1026B000206801F067F840F2FF5880B9012F06D971
:1026C000822020632946206801F0EAF805E0812095
:1026D00020632946206801F0FCF80028A3D0226876
:1026E000C2F83880A16B0143A16384F834600120F3
:1026F00099E700003F3D0008E93C00088C85254231
:1027000010B5FDF757FF10BD10B5FDF767FF10BD01
:102710002DE9F04F87B01F4615465FEA010B0446CE
:1027200007D094F83400012807D0022007B0BDE894
:10273000F08FA06B40F0006008E00020A063E26D25
:10274000E919914204D9A06B40F00070A06339E010
:10275000032184F8341021688046C8622168CA6B5E
:1027600042F01A02CA63226C2349D163226C2349C6
:10277000D164216C0865606C012800D06D024FF4B3
:102780000071206800F0FEFF012640F2FF5988B971
:102790004FF0900A012F06D9A02020632946206817
:1027A00001F058F905E0C4F830A02946206801F08E
:1027B0006AF948B12268C2F83890A16B0143A1635D
:1027C00084F834600120B1E70D48066022687D027C
:1027D000AB0859468032206CFEF7DEF84FF0FF3030
:1027E0008DE82104CDE90486CDF80C806946206887
:1027F00000F044FF002099E7C53D0008E93C0008CF
:102800008C85254210B5401EB0F1807F01D3012098
:1028100010BD4FF0E02460610F21601703F0D3F882
:102820000020A06107202061002010BDFEE70168A4
:102830004A69D24352050CD46FF480624A61042184
:102840000164002140F8301F2022427301730120EF
:102850007047002070472DE9F84F0446006889460C
:102860000B9D01689846174641F48061016020681D
:10287000016841F48071016000954FF0011A002257
:10288000514620460A9B00F0D6F8F0BB216809F0BB
:10289000FE0008610AF1010B2B46594620460A9AB0
:1028A00000F0FAF818B1206C042812D03AE0206841
:1028B0004169806900902A4620460A9900F061F932
:1028C00050B1206C04282DD12068016841F40071BA
:1028D00001600120BDE8F88FFEB2B8F1010F09D008
:1028E0002168380A08612A4620460A9900F049F909
:1028F0000028E6D1206806612A4620460A9900F0A1
:1029000040F90028DDD1206800E00BE0016841F4C7
:102910008071016000950022514620460A9B00F01C
:102920008AF808B10320D5E7216809F0FF0040F0DC
:10293000010008612B46594620460A9A00F0ACF87F
:102940000028B0D1C6E700002DE9F843044600682E
:102950000D46DDE9089701689846164641F48071F6
:1029600001604B4600224FF001112046009700F015
:1029700062F8E8B9216805F0FE0008613B464A4666
:102980001849204600F088F828B1206C04280FD19F
:102990000120BDE8F88320684169806900903A46CB
:1029A0004946204600F0EDF820B1206C042813D0F1
:1029B0000320EEE7F5B2B8F1010F09D02168300A23
:1029C00008613A464946204600F0DBF80028ECD181
:1029D000206805610020DCE72068016841F400718F
:1029E0000160D5E70200010070B516460D460446A9
:1029F0001AE02046FFF71BFF08B1012070BD681CDC
:102A000012D025B1FEF7FAF8801BA8420CD954F871
:102A1000400F40F0200044F81009002020602021E1
:102A200061732073032070BD20684069C043400774
:102A3000DFD4002070BD2DE9F0471E4690460D46BC
:102A40000446C1F30747DDF8209012E0701C10D057
:102A50002EB1FEF7D3F8A0EB0900B04209D900204F
:102A600044F8300F20216173A07320730320BDE868
:102A7000F0872068012F0AD0806925EA0000000451
:102A8000000C06D000214145E0D00020EFE740696E
:102A9000F3E70121F7E700002DE9F0479A46914658
:102AA0000D46044600264FF02008C1F307472AE0F0
:102AB00020684069C043400512D42068016841F491
:102AC0000071016021686FF4806048610420206417
:102AD000266384F83D8084F83C600120BDE8F087DF
:102AE000B9F1FF3F0FD0B9F1000F05D0FEF786F81E
:102AF000A0EB0A01494506D944F8306F84F80D80EF
:102B000026730320EAE72068012F07D0D0F81800C9
:102B100025EA00000004000CE0D0C9E74069F7E7AF
:102B20002DE9F041002590460E460446202721E07D
:102B30004069C043C0060CD421686FF010004861A2
:102B40002564256384F83D7084F83C500120BDE87D
:102B5000F0812EB1FEF752F8A0EB0800B04209D97F
:102B600054F8400F40F0200044F8040967702570C5
:102B70000320ECE720684169C9434906D8D4002006
:102B8000E5E770B516460D4604461AE02046FFF705
:102B90004EFE08B1012070BD681C12D025B1FEF7B1
:102BA0002DF8801BA8420CD954F8400F40F02000AB
:102BB00044F8100900202060202161732073032055
:102BC00070BD20684069C0430006DFD4002070BD9E
:102BD00010B50348FEF718F8BDE8104000F03CB807
:102BE000CC02002000B5184887B04178002928D1D0
:102BF0000121417015480021026842F48072026090
:102C0000006800F48070059010481430026842F4A7
:102C100080420260006800F480400590042000902B
:102C20000220CDE902100A48019069460948FDF7E3
:102C300001FF00220F210820FEF770FA0820FEF79E
:102C400060FA07B000BD00000000002030380240EC
:102C5000000021100020024010B50E48FDF7EDFFE6
:102C6000002815D10B480C494FF4804201600B49F4
:102C7000416000218160C0E9031241618161C1614D
:102C8000016200F00DF8BDE810400248FDF7D8BF22
:102C900010BD0000CC02002000540040A0860100BE
:102CA000224810B5026886B0002142F0020202609C
:102CB00000681F4C00F00200059040200090122098
:102CC000CDE90101022003900420049069462046CA
:102CD000FDF7B0FE6015009069462046FDF7AAFE9C
:102CE00012481030016841F400110160006800F4DE
:102CF000001005900D481038016841F40011016082
:102D0000016821F40011016000220F211F20FEF74D
:102D100005FA1F20FEF7F5F900220F212020FEF70B
:102D2000FDF92020FEF7EDF906B010BD3038024065
:102D3000000402401FB5044600208DF80C006423F7
:102D4000012203A88DE80D0013460A4621460548D6
:102D5000FDF7FAFF10B12046FFF73AFF9DF80C008F
:102D600004B010BDCC02002017B583B00446642324
:102D7000012205A88DE80D0013460A4621460548A4
:102D8000FEF7E0F8002802D02046FFF721FF06B04A
:102D900010BD0000CC020020FDF73ABEFFF722BFB5
:102DA000FFF75ABFFFF7C6BFFFF7DEBFF0B500233E
:102DB0000A24302537261F4611E000BFB4EB107FF0
:102DC00002D905EB107C01E006EB107C01F813C082
:102DD00001EB430C00015B1C8CF80170DBB29342E9
:102DE000ECD3F0BDF0B500230A24302537261F466A
:102DF00011E000BFB4EB107F02D905EB107C01E0BD
:102E000006EB107C01F813C001EB430C00015B1CC6
:102E10008CF80170DBB29342ECD3F0BD70B5D0F802
:102E20001842054604F50051087E38B9486928B1B2
:102E3000607A18B90121284601F037FE8121284621
:102E400001F033FE607A022809D142F20C00221808
:102E50002846BDE870401F23012101F0B7BD70BDB9
:102E600070B5D0F81842064604F5005501212869CE
:102E7000286368696863304601F02FFD1F280AD176
:102E80002649E868884206D1697E012903D8A87ED0
:102E900008B1102808D9697E20230522304600F0A9
:102EA0006EFB022060720AE042F21B0022183046DC
:102EB00000F044F90028207A08DA052804D03046CA
:102EC000BDE87040FFF7AABF012121E0022824D00D
:102ED000012822D0032820D06389C3B1D6F8185224
:102EE00004F10C0205F5005130464C699C4200D2B9
:102EF00023464C6B9BB2E41A4C63002481F83840A3
:102F000004212972BDE87040812101F0E5BD002156
:102F10003046BDE8704000F08BB870BD5553424359
:102F200010B5D0F81842627A022A08D009060BD5EB
:102F3000012A09D0BDE81040012100F079B88121B3
:102F400001F0B3FD0020607210BD10B5D0F818225A
:102F50000446107A022805D0032801D0042811D194
:102F600000210AE042F21900815C801C02442046E4
:102F700000F0E4F8002805DA01212046BDE8104001
:102F800000F056B810BD10B5D0F818220446107ADB
:102F900088B1012814D142F21900815C801C0244DE
:102FA000204600F0CBF800280ADA2046BDE81040A1
:102FB000012100F03DB82046BDE81040FFF750BFAA
:102FC00010BDD0F8180200210172704770B5D0F81A
:102FD000184205460021217204F50050617280F804
:102FE0005D1080F85C10D5F81C020168002088474D
:102FF0000121284601F06AFC8121284601F066FC87
:1030000042F20C0022182846BDE870401F2301211F
:1030100001F0DCBCD0F8181200221F230A72012232
:103020004A7242F20C020A44012101F0CFBC0000B6
:1030300070B5D0F81842054604F500520B48D0622E
:1030400082F838100020207242F22C0022180D2342
:103050008121284601F040FD42F20C00221828464A
:10306000BDE870401F23012101F0B0BC555342530D
:10307000FEE770470148FEF7D1B900009C0E002022
:103080000148FEF7CBB90000AC0A00202DE9F84F4B
:103090000F46C1EBC70100EB810582460668D5E902
:1030A0001301441A286C3835A04200D20446E01CB3
:1030B0004FEA900806EB471916E0441AA868A042A8
:1030C00000D20446E01C4FEA90089AF810000090E5
:1030D000A3B2FAB23046E96802F060FCE868204426
:1030E000E860A8692044A861D9F8180980B2404571
:1030F00005D9D5E90501814201D20028DDD134B9D5
:103100000120D6F83418B8408143C6F8341800209E
:10311000BDE8F88F704710B5D0F818421A4404F58E
:103120000054236E9A4206D92123052200F027FA83
:103130004FF0FF3010BD002010BD00002DE9F04120
:10314000137800244FF0FF35232B6ED00DDC1A2BA3
:103150006CD005DCBBB1032B38D0122B11D166E04B
:103160001B2B01D01E2B0CD185E02A2B77D004DC41
:10317000252B75D0282B04D1A6E02F2B71D05A2BEC
:1031800070D02023AEE0D0F81872064607F5005044
:103190008846416939B1417E202305224FEA060065
:1031A00000F0EDF9AAE0D6F81C0281684046884795
:1031B00040B13A2302224146304600F0E0F90520B2
:1031C00038729BE020467C81BDE8F081D0F818126F
:1031D0000023C8185B1CDBB20473122BF9D37020D8
:1031E00008730C20C87401F5005090F85C5090F8FA
:1031F0005D309D4212D001EBC5033C3303F5005313
:103200006D1C1E788E735E790E761B794B76EBB251
:1032100080F85C30042B01D180F85C40122048819A
:103220001079122846D8488144E045E027E05578D7
:10323000D0F81832ED0703D007203249588112E048
:10324000D0F81C0201EBC1011279C06900EB8101C9
:103250000879401D824200D81046588108E037E0C6
:103260002EE039E019E0401E80B21D180A5C2A7376
:103270000028F8D11EE0D0F8180244811AE0D0F8F6
:1032800018120820204A4881401E0004000C01EB5F
:103290000005135C2B73F7D10CE0D0F8180208215D
:1032A0001A4A4181491E0904090C00EB0105535CCF
:1032B0002B73F7D1204687E7BDE8F04100F028B92D
:1032C000BDE8F04100F0F6B8BDE8F04100F0A5B867
:1032D000BDE8F04100F074B95278D0F81862920756
:1032E00002D5242305225BE706F50052B2F86830C8
:1032F000526E9BB2FFF70FFF002801DA284663E702
:103300007481D7E7C45E0008CB5E0008D35E000876
:103310002DE9F047D0F81862074606F500544FF43F
:103320000050A56E8846854200D30546B4F85E007D
:10333000B5FBF0F18BB2616EB1FBF0F2D7F81C0275
:1033400006F10C018946D0F810C04046E04700283D
:1033500009DA112304224146384600F010F94FF0F3
:10336000FF30BDE8F087ABB24A468121384601F014
:10337000B3FB606E28446066A06E401BA066616B64
:10338000A1EB0501616301D1032030720020E8E761
:103390002DE9F0478846D0F818124FF4005601F591
:1033A00000540746A56EB54200D33546B4F85E001A
:1033B0000C31B5FBF0F293B2626E8946B2FBF0F2CB
:1033C000D7F81C02D0F814C04046E047002809DABC
:1033D000032304224146384600F0D1F84FF0FF3075
:1033E000BDE8F087606E28446066A06E401BA06652
:1033F000616BA1EB050161630AD0B04200D3304696
:1034000083B24A460121384601F0E0FA0020E7E79E
:1034100000213846FFF70CFEF8E72DE9F047D0F819
:10342000185206461746287A8946C8BB05F5005447
:103430004FF0FF38207E00062ED5D6F81C0281689A
:103440004846884730B13A2302224946304600F0C8
:1034500096F811E0D7F80200494600BA20F0FF02C2
:10346000787902436266B7F8070043BA3046A3662C
:10347000FFF751FE002802DA4046BDE8F08702203F
:103480002872B4F85E10606E48436066A06E4843D0
:10349000A0666169814204D02023617E0522D5E7C0
:1034A000FFE74FF40050688149463046BDE8F047D9
:1034B000FFF72EBF70B505460E46D5E98640436836
:1034C00042F25E002218801C21183046984740B115
:1034D0003A2302223146284600F051F84FF0FF30DF
:1034E00070BD04F50051086E401E020E2273020CDE
:1034F0006273020AA273E073002020746074B1F852
:103500005E00010AA174E07408206081002070BD93
:103510002DE9FC410546D0F8184200200F4606462A
:103520002118401C80B20E730C28F9D3D5F81C0268
:103530006A4601A943683846984748B13A230222AF
:103540003946284600F01BF84FF0FF30BDE8FC81FB
:103550000820E0730198401E010E2174010C617473
:10356000010AA174E074022020756675BDF80000A0
:10357000010AA175E0750C2060810020E6E710B516
:10358000D0F8181201F5005090F85D4001EBC4042A
:1035900004F5005484F83C201A0290F85D3001EBE9
:1035A000C30101F500510A6490F85D10491CC9B2CD
:1035B00080F85D10042902D1002180F85D1010BD53
:1035C0002DE9F047D0F8185206461746287A894662
:1035D00020B13046BDE8F047FFF7DABE05F50054EC
:1035E0004FF0FF38207E000635D4D6F81C028168E3
:1035F0004846884728B13A230AE03046FFF7BFFF24
:103600001BE0D6F81C02C1684846884718B127233A
:1036100002224946F1E7D7F80200494600BA20F0F5
:10362000FF02787902436266B7F8070043BA304672
:10363000A366FFF770FD002802DA4046BDE8F08778
:10364000B4F85E00616E41436166A16E4143A166BC
:103650006069884203D02023617E0522CDE70120E6
:1036600028724003814200D301468BB205F10C025F
:103670000121304601F0AAF90020DFE70A68426222
:103680004A688262D1E902231A43D1E904310B432B
:10369000C16A1A4321F0F7011143C162002070474B
:1036A000006800F00300704708B50844143000902B
:1036B000006808BD0148FEF781BE0000E00300205D
:1036C00070B50DF1100C11439CE8700023431943B1
:1036D00029434268314347F6FF639A430A434260F5
:1036E000002070BD0321016000207047D0F88000E9
:1036F00070470A688260D1E901231A43D1E9033196
:103700000B43C1681A436FF30B011143C1600020E2
:1037100070470968C0F880100020704710B586B067
:1037200004463720CDE9001040200290002003908D
:103730004FF48060049069462046FFF7DAFF41F2BB
:1037400088323721204600F0B7F906B010BD0000DE
:1037500010B504460A4886B001432920CDE900107F
:1037600040200290002003904FF48060049069464E
:103770002046FFF7BEFF204600F054FA06B010BD09
:103780000000108010B586B004461020CDE900106E
:1037900040200290002003904FF48060049069461E
:1037A0002046FFF7A6FF41F288321021204600F0A4
:1037B00083F906B010BD10B586B004460620CDE9E9
:1037C000001040200290002003904FF4806004908D
:1037D00069462046FFF78DFF41F2883206212046D8
:1037E00000F06AF906B010BD30B585B0002405467A
:1037F000009401944FF480600294CDE9034069463F
:103800002846FFF776FF0B484FF4FA510068B0FBEB
:10381000F1F041F288314843401E03D24FF000409E
:1038200005B030BD696B0906F6D540F2FF50A863BC
:103830002046F5E72001002070B585B004464FF41E
:10384000D570009008204026CDE901060025C00172
:10385000CDE9035069462046FFF74BFF0F484FF470
:10386000FA510068B0FBF1F041F288314843401E44
:1038700002D24FF000450DE0616B11F0450FF6D01C
:10388000606B400702D5A663042503E0606B400629
:1038900000D5A66305B0284670BD000020010020B9
:1038A00010B586B004461220CDE9001040200290E9
:1038B000002003904FF48060049069462046FFF793
:1038C00018FF41F288321221204600F0F5F806B0C8
:1038D00010BD10B586B004461120CDE9001040207F
:1038E0000290002003904FF48060049069462046C7
:1038F000FFF7FFFE41F288321121204600F0DCF88C
:1039000006B010BD10B586B004460720CDE90020F2
:1039100040200290002003904FF48060049069469C
:103920002046FFF7E6FE41F288320721204600F0EC
:10393000C3F806B010BD10B586B0044600210220C1
:10394000CDE90010C020CDE902014FF48060049061
:1039500069462046FFF7CDFE204600F03BF906B051
:1039600010BD10B586B004460920CDE90010C02076
:103970000290002003904FF4806004906946204636
:10398000FFF7B7FE204600F025F906B010BD10B5D0
:1039900086B0044600213320CDE900104020CDE957
:1039A00002010001049069462046FFF7A2FE41F2A1
:1039B00088323321204600F07FF806B010BD10B5E4
:1039C00086B004460D20CDE9001040200290002072
:1039D00003904FF48060049069462046FFF789FE0B
:1039E00041F288320D21204600F066F806B010BD85
:1039F00030B585B00C46054600210320CDE9001006
:103A00004020CDE902010001049069462846FFF7F5
:103A100070FE22460321284600F024F905B030BD8F
:103A200010B586B0044600210C20CDE900104020DE
:103A3000CDE902010001049069462046FFF759FED6
:103A4000034A0C21204600F037F806B010BD0000F4
:103A500000E1F50510B586B004461920CDE9001047
:103A600040200290002003904FF48060049069464B
:103A70002046FFF73EFE41F288321921204600F031
:103A80001BF806B010BD10B586B004461820CDE96D
:103A9000001040200290002003904FF480600490BA
:103AA00069462046FFF725FE41F28832182120465C
:103AB00000F002F806B010BD444B10B51B684FF47F
:103AC000FA54B3FBF4F353435B1E02D24FF00040B1
:103AD00010BD426B12F0450FF6D0426B520703D572
:103AE00004218163084610BD426BD20702D0012138
:103AF000816303E00269D2B28A4201D0012010BD85
:103B000040F2FF5181630021FFF7CEFD30490842AA
:103B100001D1002010BD002802DA4FF0007010BD66
:103B2000410001D5402010BD810001D5802010BD8D
:103B3000C10002D54FF4807010BD010102D54FF4D1
:103B4000007010BD410102D54FF4806010BDC1016D
:103B500002D54FF4006010BD010202D54FF4805031
:103B600010BD410202D54FF4005010BD810202D5B4
:103B70004FF4804010BDC10202D54FF4004010BD8B
:103B8000410302D54FF4003010BD810302D54FF43C
:103B9000802010BDC10302D54FF4002010BD0104E8
:103BA00002D54FF4801010BD410402D54FF400102F
:103BB00010BD810402D54FF4800010BD000702D56E
:103BC0004FF4000010BD4FF4803010BD20010020E4
:103BD00008E0FFFD12494FF4FA520968B1FBF2F117
:103BE00041F288325143491E02D24FF000407047E3
:103BF000426B12F0450FF6D0416B490703D5042103
:103C0000816308467047416BC90703D00121816376
:103C10000846704740F2FF51816300207047000062
:103C2000200100200E494FF4FA520968B1FBF2F16D
:103C300041F288325143491E02D24FF00040704792
:103C4000426B12F0450FF6D0416B490703D50421B2
:103C500081630846704740F2FF518163002070473E
:103C6000200100201F4B10B51B684FF4FA54B3FB22
:103C7000F4F341F2883463435B1E02D24FF00040FC
:103C800010BD446B14F0450FF6D0436B5B0703D5B2
:103C900004218163084610BD436BDB0702D001217C
:103CA000816303E00369DBB28B4201D0012010BDC8
:103CB00040F2FF5181630021FFF7F6FC10F4604FE2
:103CC00004D0410406D54FF4005010BD000C108004
:103CD000002010BD000402D54FF4805010BD4FF4F9
:103CE000803010BD2001002010B5846BE06B406D6A
:103CF000012803D0206C406D01281CD1216840F2BE
:103D0000FF5088632068C16B21F49D71C163A06B73
:103D100040F08040A0632046FEF73AFB062801D021
:103D2000052805D12068FFF77BFEA16B0843A0633F
:103D3000012084F834002046FEF72AFA10BD10B5A1
:103D4000846B206B822809D12068FFF769FE28B1B7
:103D5000A16B0143A1632046FEF71AFA2068C16AED
:103D600021F00801C162216840F2FF508863012000
:103D700084F834002046FEF7C3FC10BD70B5846B98
:103D80000025E06B00B1E563206C002816D12046C9
:103D9000FEF7FEFAA563012184F83410062801D04D
:103DA00005280BD12068FFF73BFEA16B0843A063F9
:103DB000A06B0028204602D0FEF7AAF970BDFEF7DE
:103DC000E7F970BD806B0068C16B41F48071C1631D
:103DD000704770B5846B0025206C00B12564E06BE2
:103DE000002816D12046FEF7D3FAA563012184F8F6
:103DF0003410062801D005280BD12068FFF710FEEB
:103E0000A16B0843A063A06B0028204602D0FEF7F8
:103E10007FF970BDFEF7BCF970BD2DE9F04F89B098
:103E20000E460446FCF7EAFE002583460095019500
:103E30002F4608212068FFF7A5FC002834D1B4F8EC
:103E4000500001042068FFF769FC00282CD1401EB7
:103E50004FF00808CDE9020830204FF00209CDE903
:103E600004090120CDE9067002A92068FFF706FCCD
:103E70002068FFF78CFD002816D1EA4640F22A4759
:103E80002068416B394212D1416B890204D5FFF79A
:103E90002DFC4AF825006D1CFCF7B0FEA0EB0B00D2
:103EA000401CEDD14FF0004009B0BDE8F08F416BF0
:103EB000090703D5C0F838800820F5E7416B89076A
:103EC00003D5C0F838900220EEE7416B890603D590
:103ED000202181630846E7E740F2FF5181630098A3
:103EE00000BA7060019800BA30600020DCE710B5BD
:103EF00090B004460120ADF838002068FFF7D0FBF1
:103F0000002864D0606C032842D02068FFF713FDBE
:103F100000285AD100212068FFF7C6FB6067042102
:103F20002068FFF7C1FBA06708212068FFF7BCFBF2
:103F3000E0670C212068FFF7B7FBC4F88000606CD5
:103F4000032825D00EA92068FFF752FD00283CD198
:103F5000606C03281CD0BDF838002065010420687F
:103F6000FFF7FFFC002830D100212068FFF79CFB01
:103F7000606604212068FFF797FBA066082120688F
:103F8000FFF792FBE0660C212068FFF78DFB2067AE
:103F900004212068FFF788FB000DE06403A9204698
:103FA000FEF7F7F8B4F85000002302042068FFF78A
:103FB000A9FC002809D104F1100007C88DE807000A
:103FC00094E80F00FFF77CFB002010B010BD4FF00D
:103FD0008060FAE72DE9F843002504460095006863
:103FE000FFF702FC00281AD12068FFF725FC4FF0EC
:103FF00080784FF6FF76D8B14FF08057A5640098CF
:10400000411C0091B0421AD000212068FFF786FBC6
:1040100020B900212068FFF79BFB10B13846BDE8AE
:10402000F88300212068FFF73FFBC00FE7D01FE0B7
:104030000127A7640098411C0091B04201D140467D
:10404000EDE700212068FFF769FB0028E7D14FF07A
:1040500080412068FFF77CFB0028E0D10021206828
:10406000FFF722FBC10FE5D0400001D5676400E0F7
:1040700065640020D3E71CB5044600200090019041
:1040800000212068FFF710FB800102D54FF400608B
:104090001CBD69462046FFF7C0FE0028F8D10198F4
:1040A000C0030CD5B4F8500001042068FFF736FBBC
:1040B0000028EDD100212068FFF77DFB1CBD4FF0EB
:1040C00080601CBD1CB504460020009001900021BA
:1040D0002068FFF7E9FA800102D54FF400601CBDAB
:1040E00069462046FFF799FE0028F8D10198400361
:1040F0000CD5B4F8500001042068FFF70FFB00282E
:10410000EDD102212068FFF756FB1CBD4FF0806007
:104110001CBD70B588B015460E464FF0FF34FCF755
:1041200071F940B16846FCF733F90698401E3060DB
:1041300007982880002408B0204670BD00207047F2
:1041400010B5FCF737F9002010BD000070B54FF036
:10415000FF35FCF757F90A4C60B194F900000028CC
:1041600003DAFCF727F900202070FCF717F920B9D3
:10417000002502E0207800B92570284670BD0000B7
:1041800084000020002070472DE9F0411D461646AE
:104190000F464FF0FF34FCF735F980B12A4631461F
:1041A0003846FCF7F9F9074841680029FCD000219E
:1041B000C0F80410FCF7F2F80028FBD100242046D8
:1041C000BDE8F081840000202DE9F0411D4616462F
:1041D0000F464FF0FF34FCF715F980B12A463146FF
:1041E0003846FCF7EDF9074881680029FCD000212A
:1041F000C0F80810FCF7D2F80028FBD100242046B4
:10420000BDE8F08184000020704700002DE9F041F6
:10421000FCF738FFDFF86C80D8F80000421CC8F8C3
:1042200000200A282BD1002508F104062C46FCF7B3
:104230008FF802280DD0691F032804D0042804D069
:10424000052807D103E00D4604E0052502E00C46F1
:1042500000E005240027377015F0FF007070094951
:10426000B470F77001F1040101D1887828B10549D3
:104270000422091D044800F0F1F9C8F80070BDE8F7
:10428000F0810000300000208807002030B5204871
:1042900093B00025016841F080510160006800F092
:1042A000805011901B48016841F480410160006812
:1042B000022400F48040119001200090000401903D
:1042C0008001CDE90640082008904FF4A870CDE9A0
:1042D000090407200B906846FDF78CFD0CA90F2000
:1042E00081E831004FF4A0500F90E00210900521BA
:1042F0000CA8FDF79FFCFCF77BFC41F20101884212
:1043000004D10548016841F48071016013B030BDEB
:104310004038024000700040003C024010480168F4
:1043200041F4700101600F48016841F00101016032
:104330000C4A00210832116002680B4B1A400260DF
:10434000031D0A4A1A60026822F4802202600548AE
:104350000C3001600249580680390860704700003F
:1043600088ED00E000380240FFFFF6FE1030002428
:1043700010B5D0F8142252689047002010BD1346A3
:1043800010B50A46002100F021FB002010BD1346A5
:1043900010B50A46002100F09FFB002010BD10B5AB
:1043A0000446802100F081FB2046BDE8104000213A
:1043B00000F07BBB10B505210023C0F8F4111A46AC
:1043C000194600F003FB002010BD10B502238261E6
:1043D000C0F8F431C26113460A46002100F07CFBAC
:1043E000002010BD10B504210023C0F8F4111A46B6
:1043F000194600F071FB002010BDF8B5044648884E
:104400000D46010A08294BD2DFE801F04A040917DA
:104410004A4A4048D4F81012207C0A6832E0207CD6
:1044200002260028D4F8140205D0C16A68468847DD
:104430000146467041E0816AF8E7C0B206282FD2F3
:10444000DFE800F003080D12171CD4F81012207CCE
:104450004A6817E0D4F81012207C8A6812E0D4F879
:104460001012207CCA680DE0D4F81012207C0A6972
:1044700008E0D4F81012207C4A6903E0D4F8101246
:10448000207C8A6969469047014616E0207C38B94D
:10449000D4F81402416B68468847F5E7207C20B1C8
:1044A00029462046FFF77BFFF8BDD4F81402016BC4
:1044B00068468847014607204870BDF8000000287C
:1044C000F2D0EA88002AEFD0824200D90246ADF845
:1044D00000202046FFF779FFF8BD70B500230028C3
:1044E0001DD00446002502E06D1CEDB2641C267848
:1044F000002EF9D1022404EB45041480CC545B1C3B
:104500000322CA5400245B1C06E0CA545B1CDAB2C6
:104510008C54521CD3B2401C0278002AF5D170BDD5
:1045200010B50A46024903A0FFF7D7FF004810BDA7
:10453000AC09002048494420436F6E66696700005B
:10454000D0F81802002101730846704710B50446E0
:10455000812100F01DF9D4F8180220B101F052FABF
:104560000020C4F81802002010BD000012200880AE
:1045700000487047F4000020222101800048704765
:104580003C0200200A210180004870476C02002094
:1045900070B50546002404230322812100F00CFAA3
:1045A000102001F089FAC5F8180218B10021017332
:1045B000204670BD0124FBE710B50A46024903A05E
:1045C000FFF78BFF004810BDAC090020484944208C
:1045D000496E74657266616365000000042008809E
:1045E00000487047F000002010B50A46024903A0B9
:1045F000FFF773FF004810BDAC09002053544D690C
:1046000063726F656C656374726F6E6963730000CB
:104610000A4610B5044928B104A000BFFFF75DFFAA
:10462000014810BD07A0F9E7AC0900204849442023
:104630004A6F79737469636B20696E204653204D0D
:104640006F646500484944204A6F79737469636BED
:1046500020696E204853204D6F64650010B51346E5
:1046600090F8FC41D0F81822032C07D1147B2CB908
:10467000012414730A46812100F02EFA002010BD97
:1046800010B51A2008800A480168001D0468001D42
:104690000068081809D008220649FEF7A3FB05495F
:1046A000042210312046FEF79DFB0248801E10BDFB
:1046B000107AFF1F0801002070B500220D78D0F895
:1046C0001832144615F060051BD0202D40D14A78D1
:1046D000022A13D0032A0AD00A2A0BD00B2A03D0AD
:1046E000FFF75DFE022070BD8878186030E001227F
:1046F000194624E04888000A586029E00122191D63
:104700001DE04D78062D04D00A2D1BD00B2D1FD196
:104710001CE04B882225B5EB132F05D1CA884A2A05
:1047200000D94A220B4C09E02125B5EB132F05D106
:10473000084CCA88183C092A00D909222146FFF7EB
:1047400044FE05E0012203F10801F8E7887898604B
:10475000002070BD7802002010B580B1D0F814326E
:1047600013B10023C0F8143209B1C0F810120121AE
:1047700080F8FC11027000F0B5F8002010BD022096
:1047800010BD10B5D0F82002FCF75DFD002010BD73
:1047900010B5D0F82002FCF734FD002010BD2DE943
:1047A000F0411746044641B1D4F8140242698AB375
:1047B00094F8FC01032842D043E0D4F8F41100251A
:1047C00004F11400022933D1D0E902639E4207D9D3
:1047D000F31A83609AB239462046FFF7D8FD12E0FB
:1047E0004068B0FBF3F103FB1101A1B9984212D369
:1047F000D4F8F81188420ED2002211462046FFF765
:10480000C6FDC4F8F85100231A461946204600F0A8
:10481000DDF80DE012E0D4F81402C16829B194F873
:10482000FC01032801D1204688472046FFF7C2FD3E
:1048300094F80002012804D184F8005201E02046D7
:1048400090470020BDE8F08170B51546044641B19F
:10485000D4F8140282693AB394F8FC01032824D0F6
:1048600025E0D4F8F41104F5827003291FD1D0E9B2
:1048700002218A420BD9531A83600846834200D32F
:1048800003469AB229462046FFF779FD0FE0D4F897
:104890001402016929B194F8FC01032801D12046D2
:1048A00088472046FFF79EFD01E020469047002004
:1048B00070BD0020704710B5012180F8FC11D0F8C0
:1048C0001422017952689047002010BD10B5D0F82D
:1048D0002002FCF7E0FC002010BDD0F82002FCF71D
:1048E000F4BC000070B5017800224024012329B3F4
:1048F0002549244D0D6006250A634D600A62C1E911
:104900000434C1E90632CB62CA60C1F8EC03C0F8D6
:1049100020120846FDF704F8E1001B48FCF730FCC4
:10492000802200211848FCF72FFC17484FF4BA7278
:10493000012100BFFCF728FC002070BD13494FF097
:10494000A0450D6004254D600A63C1E904240224DA
:104950000A62C1E90642CC60CB62C1F8EC03C0F840
:1049600020120846FCF7DCFF80210848FCF708FC11
:10497000402200210548FCF707FC80220121034862
:10498000D8E7000000000440AC0A00209C0E002084
:10499000D0F8202201F07F00C0EBC00002EB8000C5
:1049A000090602D590F83A00704790F8FA0170476E
:1049B000002070470020704710B51C461346D0F801
:1049C00020022246FCF78BFC002010BD10B5D0F869
:1049D0002002FCF7AEFC002010BD70B5002204469A
:1049E00040231146FFF7E8FF40252B460022802197
:1049F0002046C4F81051FFF7DFFF0120256284F83C
:104A0000FC01D4F8180228B1D4F8140221794268C4
:104A100020469047002070BD90F8FD1180F8FC11F1
:104A20000020704710B590F8FC11032904D1D0F88C
:104A30001412C96901B18847002010BD017400201B
:104A4000704710B5D0F82002FDF7C2F8002010BD65
:104A500070B5044600F50270054600F092F9012099
:104A6000C4F8F401B4F80E02C4F8F80194F808028E
:104A700010F01F010AD001290DD0022910D000F03A
:104A80008001204600F011F8002070BD2946204624
:104A900000F0DDF9F8E72946204600F0BFFAF3E719
:104AA0002946204600F04CFAEEE710B5D0F8200277
:104AB000FCF763FC002010BD10B5D0F82002FDF714
:104AC000A0F8002010BD90F8FC1180F8FD11042121
:104AD00080F8FC110020704710B5D0F82002FCF7D8
:104AE0007CFC002010BD000010B50A46024903A05E
:104AF000FFF7F3FC004810BD640400204D53432031
:104B0000436F6E666967000010B5FEF71EFA00205D
:104B100010BD10B5FEF737FA002010BD10B50446E1
:104B20000121FFF735FE81212046FFF731FE2046A7
:104B3000FEF747FAD4F8180220B100F063FF002016
:104B4000C4F81802002010BD1220088000487047E9
:104B5000580000200A21018000487047BC01002055
:104B600020210180004870477C0100202021018025
:104B7000004870475C0100202021018000487047F8
:104B80009C01002070B50546007C0024B8B140238C
:104B9000022201212846FFF70FFF40230222812134
:104BA0002846FFF709FF42F26C0000F085FFC5F8C8
:104BB000180270B12846FEF709FA204670BD4FF47E
:104BC00000763346022201212846FFF7F5FE3346E0
:104BD000E4E70124F1E7000010B50A46024903A00A
:104BE000FFF77BFC004810BD640400204D534320B8
:104BF000496E746572666163650000000420088078
:104C0000004870475400002010B50A46024903A02E
:104C1000FFF763FC004810BD6404002053544D6945
:104C200063726F656C656374726F6E6963730000A5
:104C30000A4610B5044928B104A000BFFFF74DFC97
:104C4000014810BD07A0F9E7640400204D617373AB
:104C50002053746F7261676520696E204653204D42
:104C60006F6465004D6173732053746F7261676583
:104C700020696E204853204D6F64650009B1C0F86B
:104C80001C1200207047000010B51A2008800A4846
:104C90000168001D0468001D0068081809D008227A
:104CA0000649FEF783F80549042210312046FEF735
:104CB0007DF80248801E10BD107AFF1F6C00002096
:104CC00070B50646D0F8185208780C4610F060010E
:104CD00026D0202953D16178FE2902D0FF2919D18D
:104CE0000EE06188B1B9E188012913D1000611D520
:104CF000D6F81C028069804701222946286019E005
:104D0000618839B9E18829B9000603D43046FEF735
:104D100081F934E021463046FFF741FB022070BDA7
:104D2000607801280DD00A2802D00B2827D105E091
:104D30000122291D3046FFF748FB20E0A07868607B
:104D40001DE021793046FFF7C1FD21793046FFF79C
:104D50001FFD20794FF400730006307C04D500B1AC
:104D600040230222812103E000B1402302220121DD
:104D70003046FFF721FE21793046FEF7D1F80020BA
:104D800070BD0A7802704A7842708A78CB7802EB5C
:104D9000032242800A794B7902EB032282808A79CE
:104DA000C97902EB0121C18070470246002011B190
:104DB000C2F8141270470220704710B5D0F81422C0
:104DC00002241AB11268904700B90024204610BD91
:104DD00070B50E461A4D897804462970012928D8E5
:104DE00094F8FC01022802D0032822D105E099B1F1
:104DF0000320616084F8FC0109E091B16068884299
:104E00000AD0C1B22046FFF7B3FA29786160204684
:104E1000FFF7D3FF02280CD02046BDE87040FFF713
:104E2000E1BA022084F8FC0120466160FFF7A0FA95
:104E3000F2E731462046BDE87040FFF7B0BA000007
:104E4000C202002010B5FFF737FE002010BD2DE98B
:104E5000F04100264B78012532460A2B43D2DFE889
:104E600003F03C584251420805422A27FFF7C5FA91
:104E700063E004468888C8B9C888B8B9887800F063
:104E80007F0794F8FC01032810D084F8FE7139469E
:104E90002046FFF7D6FD2046FFF7A4FA1FB10220F7
:104EA00084F8FC0149E084F8FC5146E020461AE011
:104EB000FFF78EFF41E0CB88012B14D190F8FC3135
:104EC000022B02D0032B0ED104E08260012200F1FC
:104ED000080114E00122011D11E090F8FC21022AD2
:104EE00004D0032A02D0FFF75AFA26E0C560D0F8B2
:104EF000041209B10321C160022200F10C01FFF785
:104F000064FA1AE004464888012816D1C4F804520D
:104F10000BE0044690F8FC01022801D00328C5D11B
:104F20004888012809D1C4F80422D4F81402826800
:104F3000204690472046FFF755FA3046BDE8F081FD
:104F400070B50D460446287800260979C0F3411053
:104F5000012806D06878A0B301281FD003283FD1CC
:104F600007E0D4F8140229468268204690470020C2
:104F700070BD94F8FC01022817D003282CD1688852
:104F800028B921B1802902D02046FFF78EFDD4F840
:104F90001402294682682046904713E094F8FC01E9
:104FA000022802D0032817D103E0C9B180291BD100
:104FB00016E06888A0B9480604D02046FFF7E1FB58
:104FC000E5E703E02046FFF70DFA09E094F8FC015D
:104FD000022807D003280BD029462046FFF7DFF927
:104FE000304670BD4806FBD02046FFF75EFDF7E770
:104FF000080601F07F0004EB001501D5143501E02F
:1050000005F582752046FFF7C3FC00B1012028603A
:10501000022229462046FFF7D8F9E1E770B5054698
:1050200090F8FC010C4603280DD1207903280AD8FA
:10503000D5F81402826828469047E08830B928469F
:10504000FFF7D0F902E02846FFF7A9F9002070BD6C
:1050500030B54C781D4B01220D78AA40012CD0F8B8
:105060001C4818D044EA0242C0F81C280A7800EB19
:105070004210D0F8002B12040BD4D0F8002B0C896E
:10508000C4F30A042243C97843EA81410A43C0F8C1
:10509000002B002030BD92B21443C0F81C480C789D
:1050A00000EB4410D0F800291204F2D4D0F8002903
:1050B0000D89C5F30A052A43C978890441EA845158
:1050C0000A431A43C0F80029E3E7000000800010FB
:1050D000D0F800196FF30A01C0F80019D0F80818C9
:1050E000C1F34101022905D1D0F8001941F00301B3
:1050F000C0F80019D0F8041841F48071C0F8041801
:105100000020704770B50446049D06990D9801294A
:105110000CD0E06840F04000E060204600F028F845
:105120004FF48030A063012D16D01DE0A16B21F457
:105130008031A163E1680D4A1140E160E16821F42A
:105140004011E160012803D1E06840F48010E06084
:10515000204600F00DF8E6E7A06840F00600A060E9
:10516000A06840F02000A060002070BDBFFFBDFF20
:1051700001220C4902E0521C8A420BD80369002B21
:10518000F9DA026942F001020261012204E0521CD4
:105190008A4201D9032070470369DB07F7D1002059
:1051A00070470000400D0300F0B50D4604464F78EF
:1051B0000126F206D3002D49287804EB4010012F78
:1051C00014D0D0F8007B27F40047C0F8007B287883
:1051D00004EB4010C0F8002B287804EB4010C0F816
:1051E000003B01202A7804EB42122BE0D0F8007932
:1051F00027F40047C0F80079287804EB4010C0F885
:105200000029287804EB4010C0F8003901202A78E2
:1052100004EB421202E0401C884211D8D2F808394F
:105220005B00F8D41021204600F024FBD4F81C08C1
:1052300029788E40B1B2884314E0401C884201D9DD
:105240000320F0BDD2F8083BDB06F6D4D4F80408FE
:1052500040F48060C4F80408D4F81C0829788E4013
:1052600020EA0640C4F81C080020F0BD400D0300F1
:1052700010B5D0F8041821F00201C0F8041803207A
:10528000FBF7C6FB002010BD10B5D0F8041841F0A4
:105290000201C0F804180320FBF7BAFB002010BD80
:1052A0002DE9F0470E460446DDE90A0A0025DDF83F
:1052B0003C80089F5FEA0801A16B11D041F40021F6
:1052C000A1634FF00009C4F8009ED4F80018C4F898
:1052D0000018012807D0D4F8000840F0030007E0C8
:1052E00041F40011ECE7D4F800080BB140F00100E4
:1052F000C4F800081021204600F0BCFA204600F057
:10530000A9FA4846C4F81098C4F814984FF0FF3131
:10531000C4F81818C4F81C984FF0904CFF230FE005
:1053200004EB4511D1F80029002A02DAC1F800C9BE
:1053300001E0C1F80009C1F81009C1F808396D1C75
:10534000AE42EDD800210FE004EB4112D2F8005B31
:10535000002D02DAC2F800CB01E0C2F8000BC2F85F
:10536000100BC2F8083B491C8E42EDD8D4F8101837
:1053700021F48071C4F81018012F0AD11449C4F81F
:105380003018D4F83018134A1143C4F83018D4F840
:105390003018A0616FF0804060611FB9A06940F0D3
:1053A0001000A061A0690C490843A061BAF1000F88
:1053B00003D0A06940F00800A061B8F1010F03D14B
:1053C000A06906490843A0610020BDE8F0870000FD
:1053D000000180000300010000383C800400004010
:1053E000816821F0010181600020704730B54D785F
:1053F0004D4C0B7800EB4313012D28D0D3F8105BF4
:105400006FF31205C3F8105B0B7800EB4313D3F86E
:10541000105B2540C3F8105B4B690BB18B684B6187
:105420000B7800EB4313D3F8104B44F40024C3F87B
:10543000104B0B7800EB4313D3F8104B8D68C5F37A
:1054400012052C43C3F8104B012A5CD061E04D6972
:10545000002DD3F810593BD06FF31205C3F8105943
:105460000B7800EB4313D3F810592540C3F81059BB
:105470004C698B689C4200D94B610B7800EB43135D
:10548000D3F8104944F40024C3F810490B7800EB1A
:105490004313D3F810494D69C5F3120554EA0504C6
:1054A000C3F810490B7800EB4313D3F8004944F0DC
:1054B0000444C3F80049012A1ED04A6912B3D0F847
:1054C00034280B78012199400A43C0F8342829E098
:1054D0002540C3F810590B7800EB4313D3F810495B
:1054E00044F40024C3F810490B7800EB4313D3F8BD
:1054F00010496FF31204D3E70A69097800EB4110F1
:10550000C0F814290EE00B7800EB4313CA68C3F807
:10551000142B097800EB4110D0F8001B41F0044136
:10552000C0F8001B002030BDFFFF07E00023C0F8DB
:10553000103BD0F8103B43F40023C0F8103BD0F8E8
:10554000103B43F01803C0F8103BD0F8103B43F079
:10555000C043C0F8103B012905D1C0F8142B4FF00F
:105560008021C0F8001B002070474B780A7800EBC0
:105570004212012B0BD0D2F8003B23F40013C2F8E7
:10558000003BCA78032A17D0022A15D01DE0D2F8B2
:10559000003923F40013C2F80039CA78032A01D075
:1055A000022A12D1097800EB4110D0F8001941F01D
:1055B0008051C0F8001908E0097800EB4110D0F8DC
:1055C000001B41F08051C0F8001B002070474B7851
:1055D0000A7800EB4212012B14D0D2F8003B002BCA
:1055E00005DBD2F8003B23F08043C2F8003B09788A
:1055F00000EB4110D0F8001B41F40011C0F8001B73
:1056000000207047D2F80039002B05DBD2F80039B2
:1056100023F08043C2F80039097800EB4110D0F83C
:10562000001941F40011C0F80019E9E778B54E7887
:105630006FF06045834C0B7800EB4313012E2FD0A5
:10564000D3F8106B6FF31206C3F8106B0B7800EBF6
:105650004313D3F8106B2640C3F8106B4B69002B33
:105660007DD08C6823445B1EB3FBF4F39BB20C78B3
:1056700000EB4414D4F8106B05EAC3452E43C4F87C
:10568000106B0C7800EB4414D4F8105B8E685E430A
:10569000C6F312031D43C4F8105B012A73D0B2E0B5
:1056A0004E6966B3D3F810696FF31206C3F8106938
:1056B0000B7800EB4313D3F810692640C3F8106948
:1056C0004C698B681C44641EB4FBF3F305EAC344C5
:1056D0000B7800EB4313D3F810592C43C3F810494F
:1056E0000B7800EB4313D3F810494D69C5F312054D
:1056F0002C43C3F81049CB78012B16D027E0D3F800
:1057000010592540C3F810590B7800EB4313D3F818
:10571000104944F40024C3F810490B7800EB4313FC
:10572000D3F810496FF312040FE00B7800EB43132A
:10573000D3F8104924F0C044C3F810490B7800EBAB
:105740004313D3F8104944F00054C3F81049012A18
:1057500012D0CB78012B17D04B692BB300E037E088
:10576000D0F834380D780124AC402343C0F83438E5
:10577000CB78012B08D017E00C7800EB44140B69B0
:10578000C4F81439F4E738E0D0F80838DB050B78B2
:1057900000EB4313D3F8004902D444F0005401E075
:1057A00044F08054C3F800490B7800EB4313D3F85E
:1057B000004944F00444C3F80049CB78012B3ED1A2
:1057C00000928A8A93B20A78C96800F0E7F836E056
:1057D0000B7800EB4313D3F8104B8D68C5F312051B
:1057E0002C43C3F8104B0B7800EB4313D3F8104B4A
:1057F00044F40024C3F8104B4FE70B7800EB43133D
:10580000CA68C3F8142BCA78012A0FD1D0F8082827
:10581000D2050A7800EB4212D2F8003B02D443F0E2
:10582000005301E043F08053C2F8003B097800EBDD
:105830004110D0F8001B41F00441C0F8001B0020CB
:1058400078BD0000FFFF07E0816841F00101816041
:1058500000207047002110220261054A491C914234
:1058600001D9032070470369DB06F7D40020704795
:10587000400D03000022202343EA81110161054904
:10588000521C8A4201D90320704703699B06F7D452
:1058900000207047400D03000021D0F8082812F0C6
:1058A000060F15D0D0F80828C2F34102012A0CD007
:1058B000D0F80828C2F34102032A06D0D0F808081D
:1058C000C0F34100022802D002E0032100E00221DF
:1058D00008467047406900F001007047D0F818187A
:1058E000D0F81C08084080B27047D0F81818D0F8DB
:1058F0001C080840000C7047D0F81038D0F8342845
:10590000CA4002F0010243EAC21200EB4110D0F893
:1059100008091040704700EB4111D1F8081BD0F87E
:10592000140808407047416980690840704710B505
:1059300003460020D21C920803F5805303E01C6844
:1059400041F8044B401C9042F9D3084610BD10B5F5
:10595000C26822F0C042C260012901D021B107E033
:10596000C16841F0005102E0C16841F08041C1606E
:105970003220FBF74DF8002010BDD0F8002822F4AB
:10598000FE62C0F80028D0F800284FF4FE6303EA56
:1059900001110A43C0F800280020704730B50024E8
:1059A000039D6DB9DB1C9B0800EB023000F58050B5
:1059B00004E000BF51F8042B0260641C9C42F9D340
:1059C000002030BDFEE70907090E002804DB00F1C6
:1059D000E02080F80014704700F00F0000F1E02094
:1059E00080F8141D704702E008C8121F08C1002A81
:1059F000FAD170477047002001E001C1121F002A50
:105A0000FBD1704710B5002821D0114B0022001F98
:105A1000196803E0814203D80A4649680029F9D190
:105A200052B11368841A9C4204D100681844106073
:105A3000104602E0506000E0186039B102680B1AAD
:105A4000934203D10B681A4402604968416010BD5B
:105A5000C4020020FBF71EFBFEF718FC0020FAF73B
:105A600094FC01220D490E48FEF776FE00220D49F6
:105A70000D48FEF771FE0D490948FFF796F90C49EC
:105A80000948FFF792F90B490548FFF7F7F8064870
:105A9000FFF7D8F90248FFF7D5F9FEE738000020F4
:105AA00064050020D4000020880700202401002085
:105AB00004020020B4000020F0B50B30154D20F09A
:105AC00007010024144A0FE003688B420BD38B427A
:105AD00005D95E1A43184768C3E9006700E04368C8
