:020000040800F2
:10000000500E00209D010008B31700087517000866
:10001000B117000853030008B52D000800000000C8
:10002000000000000000000000000000BB180008F5
:100030005503000800000000B9180008BD180008AA
:10004000B7010008B7010008B7010008B7010008B0
:10005000B7010008B7010008B7010008B7010008A0
:10006000B7010008B7010008B7010008B701000890
:10007000B7010008B7010008B7010008B701000880
:10008000B7010008B7010008B7010008B701000870
:10009000B7010008B7010008B7010008B701000860
:1000A000B7010008B7010008B7010008B701000850
:1000B000B7010008B7010008B7010008B701000840
:1000C000B7010008B7010008B7010008B701000830
:1000D000B7010008B7010008B7010008B701000820
:1000E00057030008B7010008C1170008B70100084E
:1000F000B7010008B7010008B7010008B701000800
:10010000B7010008B7010008B7010008B7010008EF
:10011000B7010008B7010008B7010008B7010008DF
:10012000B7010008B7010008B7010008B7010008CF
:10013000B70100080000000000000000B70100083F
:10014000B7010008B7010008B7010008B51700089B
:10015000B7010008B7010008B7010008B70100089F
:10016000B7010008B7010008B7010008B70100088F
:10017000B7010008B70100080000000000000000FF
:10018000B7010008B7010008DFF80CD000F07AF8DA
:1001900000480047452E0008500E002006488047C2
:1001A00006480047FEE7FEE7FEE7FEE7FEE7FEE75C
:1001B000FEE7FEE7FEE7FEE7111A000889010008E6
:1001C0002DE9F05F0546002092469B46884606468C
:1001D000814640241BE0284641464746224600F01F
:1001E00041F853465A46C01A914110D31146184659
:1001F000224600F028F82D1A67EB01084F462246E8
:100200000120002100F01FF817EB00094E41201ECD
:10021000A4F10104DFDC484631462A464346BDE8E6
:10022000F09F40EA01039B0703D009E008C9121FB1
:1002300008C0042AFAD203E011F8013B00F8013BA0
:10024000521EF9D27047202A04DB203A00FA02F14C
:10025000002070479140C2F1200320FA03F31943B4
:1002600090407047202A04DB203A21FA02F0002156
:10027000704721FA02F3D040C2F1200291400843B6
:1002800019467047064C074D06E0E06840F0010350
:1002900094E8070098471034AC42F6D3FFF778FF94
:1002A000F02E0008102F000870B58C1810F8015BB4
:1002B00015F0070301D110F8013B2A1106D110F8FF
:1002C000012B03E010F8016B01F8016B5B1EF9D103
:1002D0002B0705D40023521E0DD401F8013BFAE789
:1002E00010F8013BCB1A921C03E013F8015B01F8F4
:1002F000015B521EF9D5A142D8D3002070BD000089
:10030000044910B509688A6901468820904780B27F
:1003100010BD00005C00002010B5F820FFF7F0FFD2
:10032000C0B2C10813D0010601D4012010BD41069E
:1003300001D4022010BD810601D4032010BDC106E6
:1003400001D4042010BD000701D4052010BD0020F9
:1003500010BDFEE770474FF4004000F04FB80000BA
:1003600070B5044600F034F90546601C02D004481C
:100370000078044400F02CF9401BA042FAD370BD71
:100380006400002010B5B0F5004F30D1184CD4F8FF
:10039000EC03D0F80412012929D190F8FC010428BB
:1003A00025D1206A30B11348016821F006010160AF
:1003B00001F0C6FA2068D0F8001E21F00101C0F853
:1003C000001E0B4800F0AEF90A20FFF7C9FF0848ED
:1003D00000F0CCF9D4F8EC13032081F8FC01D4F838
:1003E000EC130020C1F8040203490120086010BD8D
:1003F0003801002010ED00E004000020044910B591
:100400000A68024202D00860FFF7BCFF10BD00007E
:10041000143C01402DE9F84FDFF87CB100224FF089
:1004200001084FF0030A4FF00F090BF1040E00BF53
:100430000B6808FA02F42340A3426ED14D68022DE6
:1004400001D0122D0ED1D50800EB850CDCF8205020
:100450005607F70E09FA07F6B5430E69BE402E435C
:10046000CCF82060066855000F790AFA05FC07F001
:10047000030726EA0C06AF40374307604E68012E9B
:1004800005D0022E03D0112E01D0122E0ED1866877
:10049000CF6826EA0C06AF40374387604668A6431C
:1004A0000C79C4F30014944034434460C6688C68EB
:1004B00026EA0C06AC403443C4604C68E40065D5C1
:1004C000364C256845F480452560246822F00305F4
:1004D00004F480440094324C2E19D6F8084895074D
:1004E0002F0F09FA07F5AC432E4DA84201D1002584
:1004F00024E02D4DA84201D101251FE02B4DA8423B
:1005000001D102251AE02A4DA84201D1032515E0A8
:10051000284DA84202D1042510E037E0264DA8421C
:1005200001D105250AE0254DA84201D1062505E0A7
:10053000234DA84201D1072500E00825BD402543F1
:10054000C6F80858DBF800405D464E689C43F60349
:1005500000D51C432C60DEF8004075464E689C4375
:10056000B60300D51C432C600B4D08352C684E6833
:100570009C43F60200D51C432C60074D0C352C68BB
:100580004E689C43B60200D51C432C60521C102AB6
:10059000FFF44EAFBDE8F88F003C01404438024004
:1005A0000030014000000240000402400008024008
:1005B000000C0240001002400014024000180240EB
:1005C000001C024001480068000C7047002004E055
:1005D000014880687047000064000020024881687C
:1005E000027811448160704764000020094810B50A
:1005F000016841F400710160016841F480610160AB
:10060000032000F057F80F2000F006F800F024F85F
:10061000002010BD003C024070B50D4D04464FF463
:100620007A712878B1FBF0F00A490968B1FBF0F063
:1006300001F08CF848B9102C07D200222146501E38
:1006400000F018F800206C6070BD012070BD000043
:1006500064000020000000207047002809DB00F043
:100660001F02012191404009800000F1E020C0F804
:1006700000117047F0B40E4B1B680C46C3F3022305
:10068000C3F10705042D00D90425191D072901D23E
:10069000002300E0DB1E012606FA05F1491E214079
:1006A00099409E40761E16403143F0BC02F083BB59
:1006B0000CED00E0064900F0070208684FF6FF0362
:1006C000184040EA0220034A1043086070470000C7
:1006D0000CED00E00000FA05006841620020704760
:1006E000F0B500680023446A31B1856A4FF4827620
:1006F00004EB15444D1E0AE044EA024181620FE01A
:1007000006EB8307C7595B1C04EB1744DBB2AB4213
:10071000F6DB4FF4807303EB810144EA024242505E
:100720000020F0BD0068D0F80818C90705D0D0F83F
:10073000041841F00101C0F8041800207047D0F8F7
:10074000EC0301F036BCC1EBC10200EB8202D0F831
:10075000EC03526C01F0A3BBC1EBC10200EB8202BF
:10076000D0F8EC03D2F8042201F0EEBB0068D0F818
:10077000041821F00101C0F8041800207047D0F8D7
:10078000EC0301F018BC10B504460A460B0601F054
:100790007F00C0EBC00104EB810101D5383101E0DD
:1007A00001F5FC710870D009487094F8B80301286D
:1007B00009D0012084F8B803206801F0F1FE002080
:1007C00084F8B80310BD022010BD70B50A46044677
:1007D000090602F07F0005D5C0EBC00104EB8101E2
:1007E000383105E0C2EBC20104EB810101F5FC7177
:1007F00000258D700870D009487094F8B80301285E
:1008000009D0012084F8B803206802F0AAF884F81F
:10081000B853002070BD022070BD70B504460D466F
:100820000E0601F07F00C0EBC00104EB810101D591
:10083000383101E001F5FC71ED0908704D708A60F6
:10084000CB7000D0C8800025022B00D10D7194F828
:10085000B803012809D0012084F8B803206801F00A
:10086000F3FD284684F8B85370BD022070BD70B502
:100870000C4601F07F05C5EBC50100EB8101C1F815
:100880000C32C1F804220023C1F8103281F8F9318A
:1008900081F8F851036901F5FC71012B00D10A615F
:1008A0006206027C006803D002F0BCF8002070BD34
:1008B00001F098FFFAE770B50D460446090605F009
:1008C0007F0005D5C0EBC00104EB8101383105E0A4
:1008D000C5EBC50104EB810101F5FC7101228A70B1
:1008E0000870E809487094F8B803012807D084F824
:1008F000B823206802F067F8680602D007E00220FB
:1009000070BD217C04F56F72206802F00BF80020A6
:1009100084F8B80370BD70B50C4601F07F05C5EBD7
:10092000C50100EB8101CB644A6400230B65012300
:1009300081F8393001F8385F0369012B00D10A6171
:100940006206027C006803D002F06CF8002070BDE3
:1009500001F048FFFAE700002DE9F84F044600686F
:100960000026054602F0B2F9002875D1206802F091
:10097000D6F9002870D0206802F0D1F9800704D59C
:100980002068416901F002014161206802F0C7F965
:10099000010304F56F704FF0010B4FF0000A009057
:1009A0004DD5206802F09DF9074646E0F80742D091
:1009B000F1B2206802F0ABF98046C00728D005EB01
:1009C0004612C2F808BB2069012811D1C6EBC60047
:1009D00004EB8001D2F8102BD1F80002C2F312020E
:1009E000821AC1F81022D1F804221044C1F804027E
:1009F000F1B22046FFF7B0FE2069012808D13EB9C8
:100A0000D4F80C0220B920680121009A01F08AFF75
:100A10005FEA087007D5204600F0DAFB05EB4611C7
:100A20000820C1F8080B5FEAC86004D505EB461141
:100A30001020C1F8080B7F08761C002FB6D1206863
:100A400002F06DF940034FF040095ED5206802F0D6
:100A500041F90746002656E0D2E1F80751D0F1B23D
:100A6000206802F045F98046C00724D0D5F8342824
:100A70000BFA06F08243C5F8342805EB4610C0F89F
:100A800008B92069012807D1C6EBC60004EB800035
:100A9000D0E9101211444164F1B22046FFF753FE31
:100AA0002069012807D136B9E06C20B920680121FE
:100AB000009A01F037FF5FEA087004D505EB461194
:100AC0000820C1F808095FEAC86004D505EB4611A3
:100AD0001020C1F808095FEA486003D505EB46110C
:100AE000C1F808995FEA887004D505EB4611022029
:100AF000C1F808095FEA086003D53146204600F0D6
:100B000097FE7F08761C002FA7D1206802F007F916
:100B100000280DDAD5F8040820F00100C5F8040813
:100B2000204600F01FFB2168486900F00040486142
:100B3000206802F0F4F800050BD5D5F80808C007C6
:100B400002D0204600F060FB2068416901F400619A
:100B50004161206802F0E3F8C0044CD5D5F80408E0
:100B600020F00100C5F804081021206802F07EF88A
:100B70000020FF2107E000BF05EB4012C2F8081972
:100B8000C2F8081B401C62688242F5D84FF0FF3063
:100B9000C5F81808D5F81C0840F00110C5F81C0865
:100BA000206B60B1D5F8840840F00B00C5F88408CC
:100BB000D5F8440840F00B00C5F844080BE0D5F820
:100BC000140840F00B00C5F81408D5F8100840F0E0
:100BD0000B00C5F81008D5F8000820F4FE60C5F831
:100BE0000008217C2068009A01F09CFE2168486979
:100BF00000F480504861206802F091F880047DD5AF
:100C0000206801F061FC2068C16821F47051C16066
:100C1000206802F03DF878B10320C4F81490E06039
:100C200000F0CEFB7749784A014491420AD220680D
:100C3000C16841F4705158E04FF40070C4F80CA042
:100C4000606136E07149724A0144914204D22068E1
:100C5000C16841F4605148E06E496F4A01449142D5
:100C600004D22068C16841F450513EE06B496C4A9F
:100C70000144914204D22068C16841F4405134E0FB
:100C80006849694A0144914204D22068C16841F42C
:100C900030512AE06549664A0144914204D22068F5
:100CA000C16841F4205120E06249421862498A42F9
:100CB00004D22068C16841F4105116E05F49604ACF
:100CC0000144914204D22068C16841F400510CE013
:100CD0005C4908445C4988422068C16803D241F4F9
:100CE000E05102E00AE041F4C051C160204600F04A
:100CF00029FA2068416901F400514161206802F03D
:100D00000EF8C00636D52168886920F01000886189
:100D1000D5F8208008F00F00C0EBC00004EB80077E
:100D2000C8F3434007F5FC77022802D0062812D00A
:100D30001BE047F6F07018EA000F16D0C8F30A124D
:100D400090462846F96801F0EEFFF8684044F860E4
:100D5000B869404408E008222846009901F0E3FF02
:100D6000B969C8F30A100844B8612068816941F084
:100D700010018161206801F0D2FF000707D52046ED
:100D800000F010FA2068416901F008014161206813
:100D900001F0C5FFC00208D5F1B2204600F056F8B8
:100DA0002068416901F480114161206801F0B7FFBA
:100DB000800208D5F1B2204600F04CF82068416965
:100DC00001F400114161206801F0A9FF400007D53E
:100DD0002046FFF7B4FC2068416901F08041416181
:100DE000206801F09CFF40070AD520684568680725
:100DF00002D52046FFF7C3FC2068416829434160C3
:100E0000BDE8F88F405327FF00350C00401E1BFF44
:100E100040420F0000DC0BFF804F1200808CF9FE77
:100E200020D6130060B6E5FE60E3160000D3CEFEC8
:100E300040771B00C05BB3FEC091210000CA91FE49
:100E400020753800E05459FEE09C4100D0F8EC03D6
:100E500001F0F8B8D0F8EC0301F0F6B8F0B58BB0BB
:100E600004004FF0000556D0032084F8B903204653
:100E700000F054F8206801F0AFFC04F110012822C2
:100E80000F466846FFF7CDF994E80F0001F036FBF6
:100E90000021206801F057FF01260020C5EBC501A5
:100EA00004EB810181F8396001F8385FCD80C870AA
:100EB0008860C8606D1C48610F2DEFD300214FF48E
:100EC000827300BFC1EBC10204EB820203EB810518
:100ED00082F8F90182F8F811D18782F8FB01C2F893
:100EE0000002C2F80402C2F80C0222685051491CE8
:100EF0000F29E7D3282239466846FFF792F994E88C
:100F00000F0001F0C9FB84F8B963206801F0B8FB59
:100F100000200BB0F0BD0120FBE700002DE9F04FF1
:100F2000DFF808928046026800257E4C02260321E5
:100F30000A277D48DFF8F4B1A9F1080987B0A9F1C3
:100F4000040AB2F1A04F7CD0794B9A427AD1226840
:100F500042F001022260226802F00102059222683A
:100F600042F002022260226802F002020592226828
:100F700042F004022260226802F004020592226814
:100F800042F080022260226802F08002059222680C
:100F900042F4807222602268CDE9025102F480722C
:100FA00005922022CDE9002604976946FFF732FA20
:100FB0000820CDE900060320CDE9025069460497D8
:100FC0005948FFF727FA43F62340CDE90006694662
:100FD000049702955748FFF71DFA0120CDE9000656
:100FE0006946049702955448FFF714FA1020CDE99A
:100FF00000066946049702955048FFF70BFAE01483
:10100000CDE900066946049702954D48FFF702FABC
:10101000206840F000502060206800F000500590EB
:10102000206840F0804020602068002200F080406E
:10103000059005214D20FFF71DFB4D20FFF70DFB0F
:1010400001E024E020E0D8F8200001281CD10105AF
:10105000CBF80010D9F8001021F48011C9F8001065
:10106000DAF8001041F48011CAF800102F48143843
:10107000016841F480110160002211464C20FFF705
:10108000F9FA4C20FFF7E9FA07B0BDE8F08F2268C3
:1010900042F0010222602268CDE9025102F0010211
:1010A00005924FF4C052CDE9002604976946FFF738
:1010B000B1F91C48001D016841F080010160194828
:1010C0001430016841F4804101600068002200F49E
:1010D0008040059005214320FFF7CCFA4320FFF71D
:1010E000BCFAD8F820000128CED18104CBF800103A
:1010F000D9F8001021F48021C9F80010DAF80010A6
:1011000041F48021CAF8001008481438016841F4FD
:1011100080210160002211462A20FFF7ABFA2A2025
:10112000B0E700003038024000000240143C0140AB
:10113000000004400004024000080240001C02407D
:101140000020024010B50446C068012100B900210A
:10115000D4F8EC0300F0BCFFD4F8EC03BDE8104079
:1011600000F085BF70B50446006A0C4D40B1286898
:1011700030B900F0E5FB0A48016821F00601016082
:101180002068D0F8001E21F00101C0F8001ED4F83C
:10119000EC0300F08BFF0020286070BD04000020ED
:1011A00010ED00E0D0F8EC0300F086BF10B5044667
:1011B00090F8B803012809D0012084F8B80320680A
:1011C00001F0D3FD002084F8B80310BD022010BD4B
:1011D000D0F8EC2300F56F71104600F083BF10B516
:1011E000044690F8B80301280CD0012084F8B80315
:1011F000206801F039FA206801F022FD002084F80F
:10120000B80310BD022010BD38B504460020009080
:101210001C4920681C4D88422CD11C48016821F4CF
:10122000801101602168D1F8002E42F00102C1F85E
:10123000002E00BF0099491C00911229F9D32168A2
:10124000D1F8001EC90614D5104A4FF4801114328B
:101250001160016841F48011C0F80010D4F8EC036B
:1012600000F07BFF206A002803D0286840F00600C9
:10127000286038BDD0F8001E41F00101C0F8001E02
:10128000ECE700000000044010ED00E0003C0140ED
:101290002DE9F0470E46050065D0DFF81481D8F837
:1012A0000000F7B200F00F00B04207D288F80070DB
:1012B000D8F8000000F00F00B04254D128683D4C2F
:1012C000810712D5400703D5206840F4E050206024
:1012D0002878000703D5206840F46040206020682B
:1012E000A96820F0F000084320602878C0072DD0BE
:1012F000304968680839012812D0022813D0032821
:1013000011D00968890700292DDA216821F003012D
:1013100001432160FFF75CF9814641F2883A0EE013
:1013200009688903EFE709688901ECE7FFF750F9DD
:10133000A0EB0901514502D90320BDE8F0872068E0
:10134000696800F00C00B0EB810FEFD1D8F8001005
:10135000404601F00F01B14207D90770006800F064
:101360000F00B04201D00120E7E72878400705D5FB
:101370002068E96820F4E0500843206028780007DE
:1013800006D52068296920F4604040EAC100206049
:1013900000F01CF82168084AC1F30311515CC840F1
:1013A000064908600F20FFF737F90020C5E7000065
:1013B000003C024008380240E02E000800000020F7
:1013C000014800687047000000000020154810B573
:1013D000006810F00C02144813D01449042A0FD0EE
:1013E000082A0ED10F4C241F2268236802F03F0206
:1013F0005B0207D52068C0F38810A0FB010106E05E
:10140000084610BD2168C1F38811A1FB000100232B
:10141000FEF7D6FE2168C1F30141491C4900B0FB2B
:10142000F1F010BD083802400024F40040787D013E
:101430002DE9F84F050076D02878DFF8F8B2BE4CD9
:10144000C00749D0DBF800105846C1F381010129DB
:1014500008D00068C0F3810002280AD1201D00686E
:10146000400206D52068800336D568680028E2D09F
:1014700032E06868B0F5803F10D0B0F5A02F20684A
:1014800010D020F480302060206820F4802020607C
:101490006868A0B1FFF79CF806460CE0206840F4AD
:1014A0008030F4E740F480202060F7E7FFF790F801
:1014B000801B642873D820688003F7D50CE0FFF701
:1014C00087F8064605E000BFFFF782F8801B642816
:1014D000F0D820688003F7D42878DFF8608280078E
:1014E0004FF000093ED5DBF80010584611F00C0F04
:1014F00009D00068C0F3810002280BD18D48001F7D
:101500000068400206D42068800715D5E8680128E5
:1015100009D111E0E868B8B10120C8F80000FFF770
:1015200057F8064605E002E1FFF752F8801B022853
:10153000C0D820688007F7D52068296920F0F80016
:1015400040EAC10020600DE0C8F80090FFF740F8C5
:10155000064604E0FFF73CF8801B02281FD82068ED
:101560008007F7D42878000722D5724E744869693D
:101570006C3671B101210160FFF72AF8074604E0DB
:10158000FFF726F8C01B022809D830688007F7D576
:101590000EE0C0F80090FFF71BF8074605E083E077
:1015A000FFF716F8C01B02287ED830688007F7D4F2
:1015B0002878400768D5DFF87CA100270AF1380AAF
:1015C000DAF80000C0000BD4DAF8001041F08051C6
:1015D000CAF80010DAF80000012700F080500090EF
:1015E000584E3068C00510D4306840F480703060C8
:1015F000FEF7EEFF009005E0FEF7EAFF0099401AC3
:10160000022851D83068C005F6D54A4EA868683619
:1016100001280FD00528306810D020F0010030607C
:10162000306820F004003060A868B8B1FEF7D0FF41
:1016300000900FE0306840F00100F4E740F0040053
:101640003060F7E7FEF7C4FF0099411A41F2883095
:10165000814264D830688007F4D50EE0FEF7B8FF09
:10166000009007E0FEF7B4FF0099411A41F288307C
:10167000814254D830688007F4D42FB1DAF80010D2
:1016800021F08051CAF80010A869C0B3DBF800103F
:10169000C1F3810102294AD00228484607D0C8F880
:1016A0006000FEF795FF00E039E005463AE0474666
:1016B000C8F86000FEF78CFF064604E0FEF788FFDE
:1016C000801B02282BD820688001F7D4D5E90701B8
:1016D0000843A96A1C4A490802EB01416A6A41EAC7
:1016E0008211084395F82C1040EA01611148001F4F
:1016F000016001203866FEF76BFF054605E014E047
:10170000FEF766FF401B022809D820688001F7D544
:101710000BE000BFFEF75CFF401B022802D903204C
:10172000BDE8F88F20688001F4D40020F8E701209C
:10173000F6E7000008380240003802400000474247
:10174000800E4742007000400000FFFF10B5401EB1
:10175000B0F1807F01D3012010BD4FF0E024606123
:101760000F21601701F027FB0020A06107202061F6
:10177000002010BDFEE70000F0B500230A2430254C
:1017800037261F4611E000BFB4EB107F02D905EBEE
:10179000107C01E006EB107C01F813C001EB430C58
:1017A00000015B1C8CF80170DBB29342ECD3F0BDFE
:1017B000FEE770470148FFF7CFB80000380100206E
:1017C0001649086A28B31648026822F00602026029
:1017D0001448026842F48032026002689203FCD529
:1017E000114B01221A6602689201FCD50D4808309F
:1017F000026822F00302921C02600268C2F38102B6
:10180000022AFAD10868D0F8001E21F00101C0F8C0
:10181000001E06494FF48020086070473801002000
:1018200010ED00E00038024000004742143C014047
:101830002DE9F84F0F46C1EBC70100EB8105824649
:101840000668D5E91301441A286C3835A04200D245
:101850000446E01C4FEA900806EB471916E0441ACC
:10186000A868A04200D20446E01C4FEA90089AF80B
:1018700010000090A3B2FAB23046E96801F086FA8F
:10188000E8682044E860A8692044A861D9F81809EC
:1018900080B2404505D9D5E90501814201D2002831
:1018A000DDD134B90120D6F83418B8408143C6F8E8
:1018B00034180020BDE8F88F704770472DE9F041DB
:1018C000FEF78CFEDFF870804546D8F800401B48D4
:1018D00000F0D8F9611C2960A0422AD12E1D0025F4
:1018E0002C46FEF719FD02280DD0691F032804D0ED
:1018F000042804D0052807D103E00D4604E005259F
:1019000002E00C4600E005240027377015F0FF00C8
:1019100070700949B470F77001F1040101D1887841
:1019200028B105490422091D044800F017FAC8F837
:101930000070BDE8F08100000800002028050020AC
:101940000D48016841F48031016001688903FCD5CC
:101950000A4A0121116601688901FCD50648083050
:10196000016821F00301891C01600168C1F3810154
:101970000229FAD1704700000038024000004742B7
:1019800030B5204893B00025016841F080510160D6
:10199000006800F0805011901B48016841F48041BC
:1019A00001600068022400F4804011900120009042
:1019B000000401908001CDE90640082008904FF412
:1019C000A870CDE9090407200B906846FFF730FDA9
:1019D0000CA90F2081E831004FF4A0500F90E002D5
:1019E000109005210CA8FFF753FCFEF7EBFD41F228
:1019F0000101884204D10548016841F48071016009
:101A000013B030BD4038024000700040003C02403E
:101A10001048016841F4700101600F48016841F00D
:101A2000010101600C4A00210832116002680B4B71
:101A30001A400260031D0A4A1A60026822F48022DA
:101A4000026005480C300160024958068039086080
:101A50007047000088ED00E000380240FFFFF6FE0E
:101A60001030002410B5D0F814225268904700209E
:101A700010BD134610B50A46002100F0F1FA00200F
:101A800010BD134610B50A46002100F06FFB002080
:101A900010BD10B50446802100F051FB2046BDE882
:101AA0001040002100F04BBB10B505210023C0F809
:101AB000F4111A46194600F0D3FA002010BD10B5F3
:101AC00002238261C0F8F431C26113460A46002144
:101AD00000F04CFB002010BD10B504210023C0F81D
:101AE000F4111A46194600F041FB002010BDF8B56C
:101AF000044648880D46010A08294BD2DFE801F068
:101B00004A0409174A4A4048D4F81012207C0A684F
:101B100032E0207C02260028D4F8140205D0C16AE5
:101B2000684688470146467041E0816AF8E7C0B2DE
:101B300006282FD2DFE800F003080D12171CD4F896
:101B40001012207C4A6817E0D4F81012207C8A68B2
:101B500012E0D4F81012207CCA680DE0D4F81012FC
:101B6000207C0A6908E0D4F81012207C4A6903E05E
:101B7000D4F81012207C8A6969469047014616E025
:101B8000207C38B9D4F81402416B68468847F5E7E1
:101B9000207C20B129462046FFF77BFFF8BDD4F812
:101BA0001402016B68468847014607204870BDF85B
:101BB00000000028F2D0EA88002AEFD0824200D943
:101BC0000246ADF800202046FFF779FFF8BD70B55A
:101BD000002300281DD00446002502E06D1CEDB254
:101BE000641C2678002EF9D1022404EB45041480ED
:101BF000CC545B1C0322CA5400245B1C06E0CA546C
:101C00005B1CDAB28C54521CD3B2401C0278002AFE
:101C1000F5D170BD10B50A46024903A0FFF7D7FF02
:101C2000004810BD4C07002048494420436F6E66B1
:101C300069670000D0F81802002101730846704758
:101C400010B50446812100F023F9D4F8180220B120
:101C500001F0D0F80020C4F81802002010BD0000E8
:101C600012200880004870473000002022210180A7
:101C700000487047A80000200A21018000487047F2
:101C8000D8000020007C08B10A2070470820704767
:101C900070B50546002404230322812100F0D6F903
:101CA000102001F0E7F8C5F8180218B100210173FF
:101CB000204670BD0124FBE710B50A46024903A087
:101CC000FFF785FF004810BD4C070020484944201D
:101CD000496E7465726661636500000004200880C7
:101CE000004870472C00002010B50A46024903A0A6
:101CF000FFF76DFF004810BD4C07002053544D699D
:101D000063726F656C656374726F6E6963730000F4
:101D10000A4610B5044928B104A000BFFFF757FFD9
:101D2000014810BD07A0F9E74C07002048494420AE
:101D30004A6F79737469636B20696E204653204D36
:101D40006F646500484944204A6F79737469636B16
:101D500020696E204853204D6F64650010B513460E
:101D600090F8FC41D0F81822032C07D1147B2CB931
:101D7000012414730A46812100F0F8F9002010BDF7
:101D800010B51A2008800A480168001D0468001D6B
:101D90000068081809D008220649FFF7EDFC05493C
:101DA000042210312046FFF7E7FC0248801E10BDD8
:101DB000107AFF1F4400002070B500220D78D0F883
:101DC0001832144615F060051BD0202D40D14A78FA
:101DD000022A13D0032A0AD00A2A0BD00B2A03D0D6
:101DE000FFF757FE022070BD8878186030E00122AE
:101DF000194624E04888000A586029E00122191D8C
:101E00001DE04D78062D04D00A2D1BD00B2D1FD1BF
:101E10001CE04B882225B5EB132F05D1CA884A2A2E
:101E200000D94A220B4C09E02125B5EB132F05D12F
:101E3000084CCA88183C092A00D909222146FFF714
:101E40003EFE05E0012203F10801F8E7887898607A
:101E5000002070BDE400002010B580B1D0F814322D
:101E600013B10023C0F8143209B1C0F810120121D7
:101E700080F8FC11027000F0A9F8002010BD0220CB
:101E800010BD10B5D0F82002FEF79FFC002010BD59
:101E900010B5D0F82002FEF776FC002010BD2DE929
:101EA000F0411746044641B1D4F8140242698AB39E
:101EB00094F8FC01032842D043E0D4F8F411002543
:101EC00004F11400022933D1D0E902639E4207D9FC
:101ED000F31A83609AB239462046FFF7D2FD12E02A
:101EE0004068B0FBF3F103FB1101A1B9984212D392
:101EF000D4F8F81188420ED2002211462046FFF78E
:101F0000C0FDC4F8F85100231A461946204600F0D7
:101F1000A7F80DE012E0D4F81402C16829B194F8D2
:101F2000FC01032801D1204688472046FFF7BCFD6D
:101F300094F80002012804D184F8005201E0204600
:101F400090470020BDE8F08170B51546044641B1C8
:101F5000D4F8140282693AB394F8FC01032824D01F
:101F600025E0D4F8F41104F5827003291FD1D0E9DB
:101F700002218A420BD9531A83600846834200D358
:101F800003469AB229462046FFF773FD0FE0D4F8C6
:101F90001402016929B194F8FC01032801D12046FB
:101FA00088472046FFF798FD01E020469047002033
:101FB00070BD0020704710B5012180F8FC11D0F8E9
:101FC0001422017952689047002010BD10B51449C1
:101FD0004FF0A04240230A6004224A6000220A63B4
:101FE000C1E90423012302240B62C1E90642CC604B
:101FF000CB62C1F8EC03C0F820120846FEF72EFFB2
:1020000080210748FEF768FB402200210448FEF7C4
:1020100067FB802201210248FEF762FB002010BD11
:10202000380100200A0601F07F01D0F82002C1EB40
:10203000C10100EB810002D590F83A00704790F89A
:10204000FA017047002070470020704710B51C4609
:102050001346D0F820022246FEF7DFFB002010BD19
:1020600010B5D0F82002FEF702FC002010BD70B5BC
:102070000022044640231146FFF7E8FF40252B4687
:10208000002280212046C4F81051FFF7DFFF012015
:10209000256284F8FC01D4F8180228B1D4F814029F
:1020A0002179426820469047002070BD90F8FD11CC
:1020B00080F8FC110020704710B590F8FC1103293E
:1020C00004D1D0F81412C96901B18847002010BDAD
:1020D00001740020704710B5D0F82002FFF766F8B1
:1020E000002010BD70B5044600F50270054600F0F2
:1020F00044F80120C4F8F401B4F80E02C4F8F80161
:1021000094F8080210F01F010AD001290DD002290D
:1021100010D000F08001204600F011F8002070BDC2
:102120002946204600F08FF8F8E72946204600F0BF
:1021300071F9F3E72946204600F0FEF8EEE710B506
:10214000D0F82002FEF7B7FB002010BD10B5D0F884
:102150002002FFF744F8002010BD90F8FC1180F831
:10216000FD11042180F8FC110020704710B5D0F853
:102170002002FEF7D0FB002010BD0A7802704A78DA
:1021800042708A78CB7802EB032242800A794B793D
:1021900002EB032282808A79C97902EB0121C18096
:1021A00070470246002011B1C2F814127047022095
:1021B000704710B5D0F8142202241AB11268904763
:1021C00000B90024204610BD70B50E461A4D89781E
:1021D00004462970012928D894F8FC01022802D06D
:1021E000032822D105E099B10320616084F8FC0145
:1021F00009E091B1606888420AD0C1B22046FFF779
:1022000031FC297861602046FFF7D3FF02280CD00B
:102210002046BDE87040FFF75FBC022084F8FC0157
:1022200020466160FFF71EFCF2E731462046BDE81C
:102230007040FFF72EBC00006000002010B5FFF7D3
:1022400085FF002010BD2DE9F04100264B780125C7
:1022500032460A2B43D2DFE803F03C584251420891
:1022600005422A27FFF743FC63E004468888C8B983
:10227000C888B8B9887800F07F0794F8FC01032873
:1022800010D084F8FE7139462046FFF724FF20461F
:10229000FFF722FC1FB1022084F8FC0149E084F81A
:1022A000FC5146E020461AE0FFF78EFF41E0CB8864
:1022B000012B14D190F8FC31022B02D0032B0ED14C
:1022C00004E08260012200F1080114E00122011DF6
:1022D00011E090F8FC21022A04D0032A02D0FFF773
:1022E000D8FB26E0C560D0F8041209B10321C16013
:1022F000022200F10C01FFF7E2FB1AE004464888D5
:10230000012816D1C4F804520BE0044690F8FC01F1
:10231000022801D00328C5D14888012809D1C4F872
:102320000422D4F814028268204690472046FFF722
:10233000D3FB3046BDE8F08170B50D4604462878E1
:1023400000260979C0F34110012806D06878A0B3AF
:1023500001281FD003283FD107E0D4F814022946F2
:10236000826820469047002070BD94F8FC01022846
:1023700017D003282CD1688828B921B1802902D030
:102380002046FFF7DCFED4F8140229468268204676
:10239000904713E094F8FC01022802D0032817D1DB
:1023A00003E0C9B180291BD116E06888A0B94806AE
:1023B00004D02046FFF765FDE5E703E02046FFF780
:1023C0008BFB09E094F8FC01022807D003280BD00E
:1023D00029462046FFF75DFB304670BD4806FBD01E
:1023E0002046FFF7ACFEF7E7080601F07F0004EB9C
:1023F000001501D5143501E005F582752046FFF77B
:1024000011FE00B101202860022229462046FFF774
:1024100056FBE1E770B5054690F8FC010C46032831
:102420000DD1207901280AD8D5F8140282682846EF
:102430009047E08830B92846FFF74EFB02E0284677
:10244000FFF727FB002070BD30B54C781D4B0122F3
:102450000D78AA40012CD0F81C4818D044EA02425A
:10246000C0F81C280A7800EB4210D0F8002B1204A8
:102470000BD4D0F8002B0C89C4F30A042243C9788A
:1024800043EA81410A43C0F8002B002030BD92B2DC
:102490001443C0F81C480C7800EB4410D0F8002915
:1024A0001204F2D4D0F800290D89C5F30A052A4395
:1024B000C978890441EA84510A431A43C0F80029C3
:1024C000E3E7000000800010D0F800196FF30A0164
:1024D000C0F80019D0F80818C1F34101022905D14C
:1024E000D0F8001941F00301C0F80019D0F8041821
:1024F00041F48071C0F804180020704770B504469C
:10250000049D06990D9801290CD0E06840F0400028
:10251000E060204600F028F84FF48030A063012DE1
:1025200016D01DE0A16B21F48031A163E1680D4A52
:102530001140E160E16821F44011E160012803D11C
:10254000E06840F48010E060204600F00DF8E6E717
:10255000A06840F00600A060A06840F02000A060E5
:10256000002070BDBFFFBDFF01220C4902E0521CDC
:102570008A420BD80369002BF9DA026942F00102A2
:102580000261012204E0521C8A4201D903207047F3
:102590000369DB07F7D1002070470000400D0300FE
:1025A000F0B50D4604464F780126F206D3002D49BA
:1025B000287804EB4010012F14D0D0F8007B27F4CA
:1025C0000047C0F8007B287804EB4010C0F8002BCF
:1025D000287804EB4010C0F8003B01202A7804EB77
:1025E00042122BE0D0F8007927F40047C0F80079B8
:1025F000287804EB4010C0F80029287804EB40103C
:10260000C0F8003901202A7804EB421202E0401C95
:10261000884211D8D2F808395B00F8D4102120463E
:1026200000F024FBD4F81C0829788E40B1B288430E
:1026300014E0401C884201D90320F0BDD2F8083BC9
:10264000DB06F6D4D4F8040840F48060C4F804082B
:10265000D4F81C0829788E4020EA0640C4F81C08EB
:102660000020F0BD400D030010B5D0F8041821F093
:102670000201C0F804180320FDF772FE002010BD0F
:1026800010B5D0F8041841F00201C0F80418032076
:10269000FDF766FE002010BD2DE9F0470E4604460A
:1026A000DDE90A0A0025DDF83C80089F5FEA0801A1
:1026B000A16B11D041F40021A1634FF00009C4F8CF
:1026C000009ED4F80018C4F80018012807D0D4F8E8
:1026D000000840F0030007E041F40011ECE7D4F8F3
:1026E00000080BB140F00100C4F80008102120469A
:1026F00000F0BCFA204600F0A9FA4846C4F8109849
:10270000C4F814984FF0FF31C4F81818C4F81C9896
:102710004FF0904CFF230FE004EB4511D1F8002956
:10272000002A02DAC1F800C901E0C1F80009C1F8C5
:102730001009C1F808396D1CAE42EDD800210FE038
:1027400004EB4112D2F8005B002D02DAC2F800CB94
:1027500001E0C2F8000BC2F8100BC2F8083B491C9C
:102760008E42EDD8D4F8101821F48071C4F81018F6
:10277000012F0AD11449C4F83018D4F83018134A7C
:102780001143C4F83018D4F83018A0616FF08040BD
:1027900060611FB9A06940F01000A061A0690C49F8
:1027A0000843A061BAF1000F03D0A06940F008000F
:1027B000A061B8F1010F03D1A06906490843A061E7
:1027C0000020BDE8F0870000000180000300010048
:1027D00000383C8004000040816821F001018160E4
:1027E0000020704730B54D784D4C0B7800EB43130B
:1027F000012D28D0D3F8105B6FF31205C3F8105BDE
:102800000B7800EB4313D3F8105B2540C3F8105B43
:102810004B690BB18B684B610B7800EB4313D3F81A
:10282000104B44F40024C3F8104B0B7800EB431317
:10283000D3F8104B8D68C5F312052C43C3F8104B29
:10284000012A5CD061E04D69002DD3F810593BD0CE
:102850006FF31205C3F810590B7800EB4313D3F84C
:1028600010592540C3F810594C698B689C4200D917
:102870004B610B7800EB4313D3F8104944F4002468
:10288000C3F810490B7800EB4313D3F810494D6996
:10289000C5F3120554EA0504C3F810490B7800EBA0
:1028A0004313D3F8004944F00444C3F80049012A13
:1028B0001ED04A6912B3D0F834280B780121994010
:1028C0000A43C0F8342829E02540C3F810590B7892
:1028D00000EB4313D3F8104944F40024C3F8104923
:1028E0000B7800EB4313D3F810496FF31204D3E7CE
:1028F0000A69097800EB4110C0F814290EE00B7842
:1029000000EB4313CA68C3F8142B097800EB41109D
:10291000D0F8001B41F00441C0F8001B002030BD7E
:10292000FFFF07E00023C0F8103BD0F8103B43F452
:102930000023C0F8103BD0F8103B43F01803C0F858
:10294000103BD0F8103B43F0C043C0F8103B0129C6
:1029500005D1C0F8142B4FF08021C0F8001B0020D7
:1029600070474B780A7800EB4212012B0BD0D2F85B
:10297000003B23F40013C2F8003BCA78032A17D0A7
:10298000022A15D01DE0D2F8003923F40013C2F852
:102990000039CA78032A01D0022A12D1097800EB43
:1029A0004110D0F8001941F08051C0F8001908E03A
:1029B000097800EB4110D0F8001B41F08051C0F8BD
:1029C000001B002070474B780A7800EB4212012B65
:1029D00014D0D2F8003B002B05DBD2F8003B23F0EB
:1029E0008043C2F8003B097800EB4110D0F8001B8F
:1029F00041F40011C0F8001B00207047D2F80039E4
:102A0000002B05DBD2F8003923F08043C2F80039EF
:102A1000097800EB4110D0F8001941F40011C0F81A
:102A20000019E9E778B54E786FF06045834C0B7874
:102A300000EB4313012E2FD0D3F8106B6FF3120667
:102A4000C3F8106B0B7800EB4313D3F8106B2640E0
:102A5000C3F8106B4B69002B7DD08C6823445B1E40
:102A6000B3FBF4F39BB20C7800EB4414D4F8106B76
:102A700005EAC3452E43C4F8106B0C7800EB4414F0
:102A8000D4F8105B8E685E43C6F312031D43C4F88E
:102A9000105B012A73D0B2E04E6966B3D3F81069B7
:102AA0006FF31206C3F810690B7800EB4313D3F8E9
:102AB00010692640C3F810694C698B681C44641E79
:102AC000B4FBF3F305EAC3440B7800EB4313D3F8EC
:102AD00010592C43C3F810490B7800EB4313D3F87B
:102AE00010494D69C5F312052C43C3F81049CB7842
:102AF000012B16D027E0D3F810592540C3F8105900
:102B00000B7800EB4313D3F8104944F40024C3F8C6
:102B100010490B7800EB4313D3F810496FF31204FC
:102B20000FE00B7800EB4313D3F8104924F0C044B6
:102B3000C3F810490B7800EB4313D3F8104944F065
:102B40000054C3F81049012A12D0CB78012B17D0BA
:102B50004B692BB300E037E0D0F834380D7801240E
:102B6000AC402343C0F83438CB78012B08D017E0B1
:102B70000C7800EB44140B69C4F81439F4E738E01E
:102B8000D0F80838DB050B7800EB4313D3F8004985
:102B900002D444F0005401E044F08054C3F80049EA
:102BA0000B7800EB4313D3F8004944F00444C3F816
:102BB0000049CB78012B3ED100928A8A93B20A78E1
:102BC000C96800F0E3F836E00B7800EB4313D3F864
:102BD000104B8D68C5F312052C43C3F8104B0B78CE
:102BE00000EB4313D3F8104B44F40024C3F8104B0C
:102BF0004FE70B7800EB4313CA68C3F8142BCA786D
:102C0000012A0FD1D0F80828D2050A7800EB421229
:102C1000D2F8003B02D443F0005301E043F080536C
:102C2000C2F8003B097800EB4110D0F8001B41F0DE
:102C30000441C0F8001B002078BD0000FFFF07E042
:102C4000816841F00101816000207047002110225D
:102C50000261054A491C914201D90320704703696A
:102C6000DB06F7D400207047400D0300002220232C
:102C700043EA811101610549521C8A4201D90320AE
:102C8000704703699B06F7D400207047400D03008E
:102C90000021D0F8082812F0060F15D0D0F8082827
:102CA000C2F34102012A0CD0D0F80828C2F3410235
:102CB000032A06D0D0F80808C0F34100022802D049
:102CC00002E0032100E0022108467047406900F05D
:102CD00001007047D0F81818D0F81C08084080B2DE
:102CE0007047D0F81818D0F81C080840000C70473E
:102CF000D0F81038D0F83428CA4002F0010243EA74
:102D0000C21200EB4110D0F808091040704700EBE8
:102D10004111D1F8081BD0F81408084070474169E8
:102D200080690840704710B503460020D21C920805
:102D300003F5805303E01C6841F8044B401C9042AB
:102D4000F9D3084610BDC26822F0C042C260012912
:102D500001D021B107E0C16841F0005102E0C16833
:102D600041F08041C16000207047D0F8002822F473
:102D7000FE62C0F80028D0F800284FF4FE6303EA92
:102D800001110A43C0F800280020704730B5002424
:102D9000039D6DB9DB1C9B0800EB023000F58050F1
:102DA00004E000BF51F8042B0260641C9C42F9D37C
:102DB000002030BDFEE70907090E002804DB00F102
:102DC000E02080F80014704700F00F0000F1E020D0
:102DD00080F8141D704702E008C8121F08C1002ABD
:102DE000FAD170477047002001E001C1121F002A8C
:102DF000FBD1704710B5002821D0114B0022001FD5
:102E0000196803E0814203D80A4649680029F9D1CC
:102E100052B11368841A9C4204D1006818441060AF
:102E2000104602E0506000E0186039B102680B1AE9
:102E3000934203D10B681A4402604968416010BD97
:102E400030010020FDF7D2FBFEF79AFD0022064973
:102E50000648FFF701F806490448FFF7A2F90348BE
:102E6000FFF7ECF9FEE70000100000202805002025
:102E700070000020F0B50B30154D20F00701002444
:102E8000144A0FE003688B420BD38B4205D95E1ABC
:102E900043184768C3E9006700E04368136002C055
:102EA00004E0021D10680028ECD12046002802D161
:102EB000286808B10020F0BD064A07481060074A9C
:102EC000121A22F00702C0E9002401202860D7E787
:102ED000340100203001002054080020500A002056
:102EE00000000000000000000102030406070809BA
:102EF000102F00080000002038010000A802000880
:102F0000D82F000838010020180D0000E62D000819
:102F100011D324F413611C1B08DD041AE9041311F6
:102F20001D1B0881041A150C1AB90417040309049F
:102F300012013202164083041057000820020102D9
:102F400003011A03320172101A91482A415019588C
:102F5000811A351001101A6D1469041A79041409C4
:102F600002221301011DE03209045114030102156C
:102F7000092111011401224A160705810304220ABE
:102F80007912314B0A06A8297C100A05010902A111
:102F9000010901A1100805091901290315180F25B8
:102FA000019503750181029501750581012028179E
:102FB00030093109381581257F750895038106C0D0
:102FC000093C05FF090129A00E75019502B1227582
:082FD000069501B101C00000EB
:040000050800018965
:00000001FF
