:020000040800F2
:10000000204500209D01000877210008FF1E000800
:10001000752100084D050008D343000800000000CA
:100020000000000000000000000000008721000820
:1000300097050008000000008521000889210008BC
:10004000B7010008B7010008B7010008B7010008B0
:10005000B7010008B7010008B7010008B7010008A0
:1000600035060008B7010008B7010008B70100080D
:10007000B7010008B7010008B7010008B701000880
:10008000B7010008B7010008B7010008B701000870
:10009000B7010008B7010008B7010008B701000860
:1000A000B7010008B7010008B7010008B701000850
:1000B000B7010008B7010008B7010008B701000840
:1000C000B7010008B7010008B7010008B701000830
:1000D000B7010008B7010008B7010008B701000820
:1000E000B7010008B7010008B7010008B701000810
:1000F000B7010008B7010008B7010008B701000800
:10010000B7010008B7010008B7010008B7010008EF
:10011000B7010008B7010008B7010008B7010008DF
:10012000B7010008B7010008B7010008B7010008CF
:10013000B70100080000000000000000B70100083F
:10014000B7010008B7010008B7010008B7010008AF
:10015000B7010008B7010008B7010008B70100089F
:10016000B7010008B7010008B7010008B70100088F
:10017000B70100087921000800000000000000001D
:10018000B7010008B7010008DFF80CD000F07AF8DA
:10019000004800474948000820450020064880479D
:1001A00006480047FEE7FEE7FEE7FEE7FEE7FEE75C
:1001B000FEE7FEE7FEE7FEE71D22000889010008D2
:1001C0002DE9F05F0546002092469B46884606468C
:1001D000814640241BE0284641464746224600F01F
:1001E00041F853465A46C01A914110D31146184659
:1001F000224600F028F82D1A67EB01084F462246E8
:100200000120002100F01FF817EB00094E41201ECD
:10021000A4F10104DFDC484631462A464346BDE8E6
:10022000F09F40EA01039B0703D009E008C9121FB1
:1002300008C0042AFAD203E011F8013B00F8013BA0
:10024000521EF9D27047202A04DB203A00FA02F14C
:10025000002070479140C2F1200320FA03F31943B4
:1002600090407047202A04DB203A21FA02F0002156
:10027000704721FA02F3D040C2F1200291400843B6
:1002800019467047064C074D06E0E06840F0010350
:1002900094E8070098471034AC42F6D3FFF778FF94
:1002A000606A0008806A0008024909688A6A014693
:1002B0008820104720000020044910B509688A6989
:1002C00001468820904780B210BD00002000002029
:1002D00010B5F820FFF7F0FFC0B2C10813D0010637
:1002E00001D4012010BD410601D4022010BD8106B9
:1002F00001D4032010BDC10601D4042010BD0007A5
:1003000001D4052010BD002010BD000070B5094CBF
:10031000064625886068206000F006F982B2A06871
:10032000C38803FB06F081B2002000F0E5F8A8B214
:10033000206070BD64390020074B30B49B68DD88B5
:100340001C689B88DB1DDB08203A13FB02F205FBCF
:10035000024230BC00F020B9643900202DE9F0479A
:100360000446002799468A461546B846104601E0DD
:1003700008F1010810F8011B0029F9D100F0D4F8A8
:100380001C4E4A46B9F1010FB1688988B0FBF1F003
:1003900002D0022A17D105E0A0EB0800484304EB85
:1003A000500003E0A0EB08004843001B84B20AE0C1
:1003B00051462046FFF7C0FFB0687F1CBFB280885F
:1003C0006D1C204484B200F0AFF80146B06880880C
:1003D00007FB101189B2814201D3012000E0002007
:1003E0002A780AB1012100E000210842E0D1BDE8ED
:1003F000F087000064390020054A03239268D28800
:10040000424390B20A4601460020FFF7A7BF000012
:10041000643900202DE9F04106460F4800240F4FB3
:10042000006815468846D0F820C0BCF1000F0FD0F8
:10043000134638880A463146BDE8F04180B260472D
:100440003888414682B2301980B200F009F8641C45
:10045000AC42F5D3BDE8F0811400002064390020DF
:10046000034B1B685B69002B00D0184770470000E6
:10047000140000202DE9F0411C4616460D460746A3
:10048000FFF7C8FF281981B232463846FFF7C2FF8E
:1004900022462946384600F009F8B819224629466E
:1004A000BDE8F04180B200F001B800002DE9F04154
:1004B00080460F4800240F4F006815460E46D0F8BE
:1004C00024C0BCF1000F0FD0134638880A464146BD
:1004D000BDE8F04180B26047388882B2301981B2FD
:1004E0004046FFF7BDFF641CAC42F5D3BDE8F08188
:1004F00014000020643900202DE9F0410646094827
:100500000F461C460188154689B201603946781CA1
:1005100087B22A463046FFF77DFF641EA4B2F5D2AB
:10052000BDE8F0816439002001480068806A004716
:100530001400002001494860704700006439002021
:10054000014908607047000064390020FEE70000A0
:1005500010B500224FEA020100EB8203521CC3F8DF
:100560007C120F2AF8D300224FF400738418521C17
:1005700021779A42FAD30170417001228270C0F84B
:10058000B812027640238371417680F81C1280F8FD
:100590001D22002010BD70472DE9F74FDFF890B005
:1005A0000026DBF808008588C788E81D824620F011
:1005B0000700401B00F0FF0935E000BF4FEADA01F9
:1005C0000298012901FB06000BD002290BD001780B
:1005D00042780904807841EA022141EA00080024B7
:1005E0001AE0007801E0008840BA8046F7E7291B4E
:1005F00049440120491E884010EA080F02D0BBF888
:10060000000001E0BBF80400019982B20098204488
:1006100080B2FFF725FF641CAC42E8D30198401C70
:1006200080B2761C0190BE42C8D3BDE8FE8F0000A8
:1006300064390020042000F043B8000070B504467F
:1006400000F032F90546601C02D0044800780444EA
:1006500000F02AF9401BA042FAD370BD60000020D0
:1006600010B5042828D1FFF733FE14494870891CBF
:10067000052804D0022807D001280AD00DE0CA7846
:100680005AB1CA78521E07E0CA7832B9CA78521CE9
:1006900002E0CA7842F08002CA70032802D004281F
:1006A00005D102E001F04EFC01E001F08BFCBDE859
:1006B0001040F820FFF7F8BD10BD000049000020F1
:1006C000044910B50A68024202D00860FFF7C8FF6B
:1006D00010BD0000143C01402DE9F84FDFF87CB15B
:1006E00000224FF001084FF0030A4FF00F090BF101
:1006F000040E00BF0B6808FA02F42340A3426ED137
:100700004D68022D01D0122D0ED1D50800EB850CBD
:10071000DCF820505607F70E09FA07F6B5430E69C4
:10072000BE402E43CCF82060066855000F790AFAC7
:1007300005FC07F0030726EA0C06AF4037430760C5
:100740004E68012E05D0022E03D0112E01D0122E9C
:100750000ED18668CF6826EA0C06AF403743876023
:100760004668A6430C79C4F30014944034434460B3
:10077000C6688C6826EA0C06AC403443C4604C68FA
:10078000E40065D5364C256845F48045256024682D
:1007900022F0030504F480440094324C2E19D6F85C
:1007A000084895072F0F09FA07F5AC432E4DA842CC
:1007B00001D1002524E02D4DA84201D101251FE0E3
:1007C0002B4DA84201D102251AE02A4DA84201D1A1
:1007D000032515E0284DA84202D1042510E037E09A
:1007E000264DA84201D105250AE0254DA84201D198
:1007F000062505E0234DA84201D1072500E0082584
:10080000BD402543C6F80858DBF800405D464E68F9
:100810009C43F60300D51C432C60DEF8004075466F
:100820004E689C43B60300D51C432C600B4D083525
:100830002C684E689C43F60200D51C432C60074D83
:100840000C352C684E689C43B60200D51C432C60C6
:10085000521C102AFFF44EAFBDE8F88F003C014057
:1008600044380240003001400000024000040240D1
:1008700000080240000C0240001002400014024038
:1008800000180240001C02400069084000D001200E
:1008900070470AB1816170470904FBE701480068AD
:1008A000000C7047002004E0014880687047000099
:1008B00060000020D0F8940202F039BDD0F8940214
:1008C00002F04ABD006803F0CBB9006803F0CCB970
:1008D00001EB810100EBC10090F85C00704710B59E
:1008E000044690F89002012809D0012084F8900273
:1008F000206803F0C4F9002084F8900210BD0220A3
:1009000010BDFEB50546DDE9096095F89042089FE7
:10091000012C1ED0012485F8904201EB810405EBE7
:10092000C40402F07F0C04F8383F20816170E67146
:1009300084F802C04FEAD21C84F803C027710097E4
:10094000CDE90160286803F03FFA002185F8901294
:10095000FEBD0220FEBD70472DE9F00301EB8104CE
:10096000DDE90689DDE908C700EBC404022684F846
:100970003B2084F83F30B8F1000F0AD084F8426081
:10098000002553B1012B3FD0022B1DD0032B2AD1C0
:1009900020E0032584F84250F2E7B8F1010F22D19C
:1009A0000ABBBCF1000F10D1012284F8512002E0F3
:1009B00084F8425001E084F8426094F85C20022AF6
:1009C00011D084F83D700EE02AB994F85120002A25
:1009D000F1D1EDE712B194F8502001E094F85120E4
:1009E00092B184F84260C4E9119C84F85C50E564DB
:1009F00084F8391084F85D50027C04F138010068F5
:100A0000BDE8F00303F05CBA84F84250EBE7000065
:100A10002DE9F041044600680025064603F02BF955
:100A200001287DD1206803F094FB002878D020684D
:100A300003F08FFB800203D521684FF4001048615A
:100A4000206803F086FBC00203D521684FF48010B4
:100A50004861206803F07DFB400103D521684FF019
:100A600080604861206803F074FB800702D521682C
:100A700002204861206803F06CFB800010D5D6F896
:100A8000400420F02E00C6F840042046FFF716FF71
:100A90000121206803F042FB21684FF000504861BB
:100AA000206803F056FBC00102D5204600F04FFF3E
:100AB000206803F04EFB000705D5204600F0F5F84E
:100AC000216808204861206803F043FB800120D59D
:100AD000206803F0EEF907464FF0010812E000BF6E
:100AE00008FA05F038420CD006EB4510D0F80005A6
:100AF000E9B20004204602D500F005FD01E000F057
:100B00001BFE6D1CA068A842EAD821684FF0007057
:100B10004861206803F01DFBC0060ED5206800E088
:100B20000BE0816921F010018161204600F066FF31
:100B30002068816941F010018161BDE8F08130B524
:100B40008BB0040026D0032084F89102204600F0E8
:100B500023F8206803F020F804F1100128220D4644
:100B60006846FFF75EFB94E80F0002F0C3FF012127
:100B7000206803F018FB282229466846FFF751FB3E
:100B800094E80F0003F060FA012084F8910200203D
:100B90000BB030BD0120FBE7F0B5026800253C4CEE
:100BA0000221032087B0B2F1A04F29D0394B9A42DD
:100BB00024D1226842F0020222602268CDE902506C
:100BC00002F0020205924FF47042CDE900210C20A0
:100BD000049069463048FFF77FFD206840F00050E0
:100BE00020602068002200F00050059005214D2073
:100BF00000F016F95FF04D0000F004F907B0F0BD09
:100C0000226842F001022260226802F0010205928D
:100C1000226842F08002226022680A2402F08002E8
:100C200005924FF4C052CDE900210295CDE90304AD
:100C30001A4F69463846FFF74FFD381500901220CD
:100C400001260494CDE9010669463846FFF744FDC4
:100C50002020CDE90006694602951148FFF73CFDCA
:100C60000B48001D016841F0800101600848143004
:100C7000016841F4804101600068002200F4804076
:100C800005900521432000F0CBF84320B4E7000095
:100C900030380240000004400004024000000240DE
:100CA000001C0240006803F068BAD0F8940202F019
:100CB0009EBB10B5044690F8900201280DD001208B
:100CC00084F89002206802F0A3FF0121206802F05E
:100CD00089FF002084F8900210BD022010BD10B5DD
:100CE000044690F89002012809D0012084F890026F
:100CF000206803F06AFA002084F8900210BD0220F8
:100D000010BD00000248816802781144816070477C
:100D100060000020094810B5016841F400710160CD
:100D2000016841F480610160032000F099F800201F
:100D300000F006F800F024F8002010BD003C02404E
:100D400070B50D4D04464FF47A712878B1FBF0F080
:100D50000A490968B1FBF0F000F00CFB48B9102C0F
:100D600007D200222146501E00F05AF800206C6085
:100D700070BD012070BD0000600000202C0000202C
:100D80001F4808B5016841F480410160006800F423
:100D9000804000901A48001F016841F080510160B6
:100DA000006800F080500090032000F059F8002205
:100DB00011466FF00B0000F033F8002211466FF07F
:100DC0000A0000F02DF8002211466FF0090000F033
:100DD00027F800221146501F00F022F80022114689
:100DE000101F00F01DF800221146901E00F018F8A8
:100DF0000022BDE808401146501E00F011B8000066
:100E000044380240002809DB00F01F020121914014
:100E10004009800000F1E020C0F800117047000098
:100E2000F0B40E4B1B680C46C3F30223C3F1070555
:100E3000042D00D90425191D072901D2002300E043
:100E4000DB1E012606FA05F1491E214099409E400D
:100E5000761E16403143F0BC03F0CCBA0CED00E036
:100E6000064900F0070208684FF6FF03184040EA01
:100E70000220034A10430860704700000CED00E0B8
:100E80000000FA052DE9F0470E46050065D0DFF8B1
:100E90001481D8F80000F7B200F00F00B04207D27A
:100EA00088F80070D8F8000000F00F00B04254D16C
:100EB00028683D4C810712D5400703D5206840F4CF
:100EC000E05020602878000703D5206840F4604097
:100ED00020602068A96820F0F0000843206028788E
:100EE000C0072DD0304968680839012812D002287F
:100EF00013D0032811D00968890700292DDA216849
:100F000021F0030101432160FFF7CEFC814641F24D
:100F1000883A0EE009688903EFE709688901ECE780
:100F2000FFF7C2FCA0EB0901514502D90320BDE83F
:100F3000F0872068696800F00C00B0EB810FEFD1FA
:100F4000D8F80010404601F00F01B14207D90770F0
:100F5000006800F00F00B04201D00120E7E72878D8
:100F6000400705D52068E96820F4E0500843206078
:100F70002878000706D52068296920F4604040EAF7
:100F8000C100206000F036F82168084AC1F303115F
:100F9000515CC840064908600020FFF7D1FE0020E0
:100FA000C5E70000003C0240083802400465000824
:100FB0002C0000200448054900680968044AC1F370
:100FC0008221515CC84070472C0000200838024044
:100FD000146500080448054900680968044AC1F31B
:100FE0004231515CC84070472C0000200838024054
:100FF00014650008154810B5006810F00C0214487C
:1010000013D01449042A0FD0082A0ED10F4C241FE4
:101010002268236802F03F025B0207D52068C0F314
:101020008810A0FB010106E0084610BD2168C1F34D
:101030008811A1FB00010023FFF7C2F82168C1F36A
:101040000141491C4900B0FBF1F010BD08380240D5
:101050000024F40040787D012DE9F84F050076D09A
:101060002878DFF8F8B2BE4CC00749D0DBF8001092
:101070005846C1F38101012908D00068C0F38100FE
:1010800002280AD1201D0068400206D5206880038E
:1010900036D568680028E2D032E06868B0F5803F55
:1010A00010D0B0F5A02F206810D020F48030206040
:1010B000206820F4802020606868A0B1FFF7F4FB6E
:1010C00006460CE0206840F48030F4E740F48020CD
:1010D0002060F7E7FFF7E8FB801B642873D82068DF
:1010E0008003F7D50CE0FFF7DFFB064605E000BF05
:1010F000FFF7DAFB801B6428F0D820688003F7D460
:101100002878DFF8608280074FF000093ED5DBF8D1
:101110000010584611F00C0F09D00068C0F3810090
:1011200002280BD18D48001F0068400206D42068B9
:10113000800715D5E868012809D111E0E868B8B141
:101140000120C8F80000FFF7AFFB064605E002E10A
:10115000FFF7AAFB801B0228C0D820688007F7D5BC
:101160002068296920F0F80040EAC10020600DE005
:10117000C8F80090FFF798FB064604E0FFF794FBE1
:10118000801B02281FD820688007F7D42878000722
:1011900022D5724E744869696C3671B101210160C3
:1011A000FFF782FB074604E0FFF77EFBC01B022827
:1011B00009D830688007F7D50EE0C0F80090FFF737
:1011C00073FB074605E083E0FFF76EFBC01B0228B8
:1011D0007ED830688007F7D42878400768D5DFF8D4
:1011E0007CA100270AF1380ADAF80000C0000BD40D
:1011F000DAF8001041F08051CAF80010DAF8000067
:10120000012700F080500090584E3068C00510D47F
:10121000306840F480703060FFF746FB009005E0D6
:10122000FFF742FB0099401A022851D83068C005E8
:10123000F6D54A4EA868683601280FD005283068D0
:1012400010D020F001003060306820F004003060E1
:10125000A868B8B1FFF728FB00900FE0306840F0B5
:101260000100F4E740F004003060F7E7FFF71CFBF3
:101270000099411A41F28830814264D83068800771
:10128000F4D50EE0FFF710FB009007E0FFF70CFB32
:101290000099411A41F28830814254D83068800761
:1012A000F4D42FB1DAF8001021F08051CAF8001000
:1012B000A869C0B3DBF80010C1F3810102294AD04C
:1012C0000228484607D0C8F86000FFF7EDFA00E0B2
:1012D00039E005463AE04746C8F86000FFF7E4FA0F
:1012E000064604E0FFF7E0FA801B02282BD82068AE
:1012F0008001F7D4D5E907010843A96A1C4A4908C7
:1013000002EB01416A6A41EA8211084395F82C1008
:1013100040EA01611148001F016001203866FFF7B3
:10132000C3FA054605E014E0FFF7BEFA401B0228A9
:1013300009D820688001F7D50BE000BFFFF7B4FAA9
:10134000401B022802D90320BDE8F88F20688001E5
:10135000F4D40020F8E70120F6E700000838024046
:101360000038024000004742800E474200700040B3
:101370000000FFFF10B5401EB0F1807F01D30120B7
:1013800010BD4FF0E02460610F21601703F032F8C8
:101390000020A06107202061002010BD70B504006E
:1013A00004D094F83900002510B106E0012070BD8A
:1013B00084F83850204600F023F8242084F83900BF
:1013C0002068C16821F40051C160204600F050FF40
:1013D0002068016921F4904101612068416921F090
:1013E0002A0141612068C16841F40051C160E56390
:1013F000202084F8390084F83A00002070BD0000F5
:1014000000B500680E4987B0884217D10D480168C1
:1014100041F4002101600068694600F40020059055
:101420004FF44060009002200190012002900320C0
:101430000390082004900448FFF74EF907B000BD60
:10144000004C004040380240000802402DE9F843BB
:10145000044690F839001F4616460D46202850D104
:10146000A5B19EB194F8380001284AD0012084F833
:1014700038004FF00008C4F83C80212084F839007F
:10148000FFF712FAA6848146E68426E00120BDE833
:10149000F883E08C401EE084A0684B46B0F5805F86
:1014A0004FF000024FF080012046009703D001F07A
:1014B00035F8E8B90DE001F031F8C8B9288821689D
:1014C000C0F308004860206908B16D1C05E0AD1C40
:1014D00003E0216815F8010B4860E08C0028D8D1A2
:1014E0004B46002240212046009701F017F808B132
:1014F0000320CCE7202084F8390084F838800020CD
:10150000C5E70220C3E72DE9F05F0646006888467C
:1015100000EB4814D4F808054FF0040B410708EB22
:1015200088004FF0050A4FF0100706EBC00508D5FC
:10153000C4F808B5D4F80C0540F00200C4F80C0556
:1015400032E0D4F80805800601D520202AE0D4F83E
:1015500008054FF00809000710D5D4F80C0540F035
:101560000200C4F80C0585F85DA0C4F80875C4F83D
:1015700008954146306802F082FB15E0D4F8080572
:10158000400511D5D4F80C0540F00200C4F80C0554
:101590004146306802F073FBC4F8087585F85D9029
:1015A0004FF48060C4F80805D4F8080580050ED50E
:1015B000D4F80C0540F00200C4F80C05414604F5CF
:1015C000A164306802F05BFB4FF400708DE0D4F84A
:1015D00008054FF00001C0074FF0010236D0306916
:1015E00030B1A86CD4F81035C3F31203C01AE86404
:1015F00085F85D20A965C4F8082595F83F0020B15D
:10160000022802D003280ED019E0D4F80C0540F0CF
:101610000200C4F80C05414604F5A164306802F0EC
:101620002EFB27600BE0D4F8000540F00050C4F812
:10163000000585F85C2041463046FFF78CF915F827
:10164000500F80F001002870BDE8F09FD4F8080525
:10165000800733D5D4F80C0520F00200C4F80C053F
:1016600095F85D000223012806D0052807D006283A
:1016700008D0082806D018E085F85C2015E085F829
:101680005CA012E0A86D421CAA65032803D9A965D5
:1016900085F85CB001E085F85C30D4F8000520F0F6
:1016A000804040F00040C4F80005C4F8083595F8C3
:1016B0005C2041463046FFF74EF9C5E7D4F80805EF
:1016C000000614D5D4F80C0540F00200C4F80C054F
:1016D000A86D4146401CA865062085F85D0004F50C
:1016E000A164306802F0CBFA80202060ACE7D4F827
:1016F0000805C006A8D595F83F00032809D1D4F8FD
:101700000C0540F00200C4F80C054146306802F0B8
:10171000B6FA032085F85D00C4F8087595F83F0017
:1017200008B1022890D1D4F8000520F0804040F0A4
:101730000040C4F8000587E72DE9F047026802EB96
:101740004114D4F808254FF0040C520709D5C4F809
:1017500008C5D4F80C0540F00200C4F80C05BDE83B
:10176000F087D4F8082501EB810392064FF00206BA
:1017700000EBC30514D52022C4F8082595F83D20B8
:10178000012AECD185F85DC0D4F80C2542F00202A4
:10179000C4F80C25006802F072FA85F85C60DEE798
:1017A000D4F808254FF0000352060FD585F85DC028
:1017B000AB65D4F80C2542F00202C4F80C25006891
:1017C00004F5A16402F05BFA402010E0D4F808258B
:1017D00092050ED5D4F80C2542F00202C4F80C256F
:1017E000006804F5A16402F04AFA4FF4007020602A
:1017F000B5E7D4F808254FF00108D20710D0AB6543
:10180000D4F80C2542F00202C4F80C25006804F557
:10181000A16402F034FAC4F8008085F85D809EE788
:10182000D4F808254FF0080912074FF0050A0DD526
:10183000C4F80895D4F80C2542F00202C4F80C252F
:10184000006802F01CFA85F85DA088E7D4F8082546
:101850004FF01007D20610D5AB65D4F80C2542F036
:101860000202C4F80C25006804F5A16402F007FA2E
:10187000032085F85D00276071E7D4F8082512067B
:101880000FD5D4F80C2542F00202C4F80C250068EC
:1018900004F5A16402F0F3F9062085F85D008020CC
:1018A000A5E7D4F80825520511D5D4F80C2542F047
:1018B0000202C4F80C25006804F5A16402F0DFF907
:1018C00027604FF48060206085F85D9047E7D4F88A
:1018D000082592078CD5D4F80C2522F00202C4F812
:1018E0000C2595F85D20012A0AD0032A26D0042A67
:1018F00013D0052A16D0062A17D0082A15D01FE0C3
:1019000085F85C8095F83F20022A19D195F851207E
:1019100082F0010285F8512012E085F85C6085F8BC
:101920003D300DE085F85CA00AE0AA6D571CAF655C
:10193000032A03D9AB6585F85CC001E085F85C60DB
:10194000C4F8086595F85C20FFF705F807E77CB553
:1019500004680546D4F840040190D4F8400420F00F
:101960002E000090019880070DD50198C00706D081
:10197000A06920F00051A1612846FEF79BFF009866
:1019800040F002000090019800072CD5009840F02C
:1019900008000090019840071AD5A869022803D0D2
:1019A000E86803280CD00FE00198C0F341400228FA
:1019B000286803D0012102F0B1FB05E00221FAE71B
:1019C0004EF66020C4F804042846FEF773FF0AE0D0
:1019D000D4F8400420F02E00C4F84004286881693F
:1019E00041F00051816101988006009802D540F0D5
:1019F00020000090C4F840047CBD00002DE9F041B7
:101A0000024600680646016AC1F3434301F00F072E
:101A1000C1F30A14022B25D1002C23D007EB870138
:101A200002EBC105696C00291CD0224602F095FB2F
:101A3000686C20446864E86C2044E86406EB471056
:101A4000D0F81015084A11420CD0D0F8001521F03A
:101A5000804141F00041C0F8001515F8500F80F0AA
:101A600001002870BDE8F0810000F81F2DE9F04169
:101A7000234CA0780025234E0227D0B1012820D086
:101A8000022814D100F03CFA4FF6E070FEF758FD42
:101A90001D490420FEF7B0FC4FF6FF70FEF750FD25
:101AA0001A4846210170072141800120A070BDE83D
:101AB000F081A7700021164800F0EFF9E57035704D
:101AC000F5E7E07831788842F1D0E0783070E0785E
:101AD00000F07F010E4800F0E0F9E0780006E6D55E
:101AE000E07800F07F00E070E07838B10128DED1C6
:101AF00000F006FA05202070E570D8E7A770D6E759
:101B00004B000020490000200C690008380000202C
:101B10005000002010B504461F20FEF711FD1F20C5
:101B2000FEF708FD5CB1012C0ED0022C11D10A2366
:101B300018229621C820BDE81040FEF7DDBC0A231C
:101B4000182296215020F6E70A23182296218C208D
:101B5000F1E710BD10B504464FF6FF70FEF7F0FC3C
:101B60000020FEF7E7FC5CB1012C0ED0022C11D155
:101B70000A2318229621C820BDE81040FEF7BCBCFD
:101B80000A23182296215020F6E70A2318229621CC
:101B90008C20F1E710BD000010B550EA010241D0E1
:101BA000214C00EBD070228802EB60000A2291FBEE
:101BB000F2F100B220806288114409B261803A29B2
:101BC00001DD3A216180872801DD87202080B4F97A
:101BD00002100220022900DA6080B4F90010022904
:101BE00000DA20800020FEF7A5FC0020FEF7A8FC0C
:101BF000E0887822463081B2A088503080B2FEF76B
:101C00009BFB4FF4FC60FEF79BFC6088782246301B
:101C100081B22088503080B2FEF78EFB2088A080F1
:101C20006088E08010BD0000300000202DE9F04108
:101C3000494C2178DFF824810126002598F800001E
:101C400006297ED2DFE801F003061E4570412670AA
:101C5000E57076E0E1784048801E0278914270D0CD
:101C6000E1780170E07800066BD5E07800F07F0045
:101C7000E070E07810B1012863D101E0022022E099
:101C8000052020E003280ED0354F4FF4784038600F
:101C900034A002F09FFB35A002F09CFB4FF6FF70D2
:101CA000386026704DE0384800F012FE022805D05A
:101CB000354800F00DFE012803D042E0A570042055
:101CC00001E06570032020703BE02F4801F000FE2A
:101CD000E7E7032835D100F05BF82B4800F02EFE33
:101CE00006002ED0294802F067FBB07800284FF09C
:101CF000000002D0FFF70EFF01E0FFF72BFFF078A6
:101D000000284FF0020002D0FFF704FF01E0FFF7C8
:101D100021FF307900284FF0010002D0FFF7FAFED2
:101D20000FE0FFF717FF0CE003280AD1FFF79EFE34
:101D3000154800F0F9FD20B100F0B8FD08B102F03F
:101D4000B1FA98F80010012903D188F800502570E5
:101D5000E570BDE8F08100004B0000203C00002051
:101D6000100000204552524F523A20004E6F20730F
:101D70007570706F7274656420484944206465769C
:101D8000696365210A000000083C002098000020DB
:101D90002DE9F0411D4C607800251D4E022768B1E9
:101DA000012814D0022810D102F0C2FA012060707C
:101DB000BDE8F04100210846FFF7EEBE6770002144
:101DC000144800F06AF8E5703570BDE8F081E078FD
:101DD00031788842F9D0E0783070E07800F07F0107
:101DE0000C4800F05AF8E0780006EED5E07800F0F4
:101DF0007F00E070E07838B10128E6D100F080F88B
:101E000005202070E570E0E76770DEE74B000020FA
:101E10004900002058000020F0B502460020157A45
:101E2000537A1668044643B18B4220D9536801FBAC
:101E3000035106EBD10601F007055368D90803E00A
:101E40003078E700B840641C5F0701D04F1C00E009
:101E50000F46A742F4D8E840012101FA03F4641EBA
:101E6000D5682040854202D81569854201D20020FC
:101E7000F0BD957A65B15B1E9940014208D060EAD9
:101E80000401D069012801D04843F0BD0846F0BDE7
:101E9000D1690129FBD04843F0BD70B504460D4619
:101EA0004FF6FF70FEF74CFB4FF61F0615B1012DE4
:101EB00020D10EE03046FEF73DFB12202168FEF7F0
:101EC0009BFA1F20FEF736FB13206168FEF794FA99
:101ED00010E01F20FEF72EFB12202168FEF78CFA7F
:101EE0003046FEF727FB13206168FEF785FA1F20B6
:101EF000FEF720FBBDE870400020FEF71BBBFEE7AD
:101F000010B50024201DFEF701FA641CE4B20A2C6F
:101F1000F8D3BDE8104000F001B8000008484FF6C3
:101F2000FF71016100218180C18001814181818136
:101F30000122027041708170C170C1817047000040
:101F40000000002070B51E4C002520466178C08836
:101F5000012211B1012910D030E02189A1816081D5
:101F6000814202D90B1A0A2B16DD6270814204D914
:101F7000E37813B9491E2181E270A2702189814260
:101F800005D9081A0A2807DB491E218110E0C0F193
:101F90006E0008440A2802DAA570002070BD491EB0
:101FA00088B2A0F57F412081FF3901D16C202081CA
:101FB000E089401CE08100F035F8A570012070BD7B
:101FC0000000002070B5164C0025E18929B3607827
:101FD000012210B1012811D01DE02089A081E388E1
:101FE0006381984202D9C61A0A2E16DD62709842A1
:101FF00004D9E37813B9401E2081E270A270491E13
:10200000E1812089401C80B220816E2800D1258189
:1020100000F008F8A570012070BDA570002070BD0B
:10202000000000202DE9F0411E4E00243046318989
:10203000C0881D4D092915D2814213D301EB4110EF
:1020400005EB8000B0F8800080B2FEF779FA3089A5
:1020500000EB401105EB8101BDE8F041001D80B2AD
:10206000FEF7CAB9814201D26E3189B209398EB206
:102070004FF06E08A119B1FBF8F208FB121000EB4B
:10208000401005EB8007B7F8800080B2FEF758FAE1
:102090003946201DFEF7B0F9641CE4B20A2CE9D3DE
:1020A000BDE8F08100000020AC00002010B50D4C10
:1020B0000D486168002908DD491E616011D10122C7
:1020C000BDE810400821FEF7E4BBA168491EA160ED
:1020D00007D100220821FEF7DCFBC82060608000E9
:1020E000A06010BD3C00002000080240F0B51D4C6F
:1020F00087B00025206840F0040020602068032796
:1021000000F0040005903020CDE90005164ECDE921
:10211000025769463046FEF7DFFA206840F00200B9
:1021200020602068CDE9025700F0020005900120F0
:10213000CDE900050D4D69462846FEF7CDFA102180
:102140003046FEF7A1FB0A4C202160703046FEF7B6
:102150009BFBA07001212846FEF796FBE07007B0BC
:10216000F0BD000030380240000802400004024088
:102170003C000020FEE770470148FEF749BC000024
:102180007039002070477047FEF7BCBD30B520485D
:1021900093B00025016841F080510160006800F0B3
:1021A000805011901B48016841F480410160006833
:1021B000022400F48040119001200090000401905E
:1021C0008001CDE90640082008904FF4A870CDE9C1
:1021D000090407200B906846FEF73EFF0CA90F206C
:1021E00081E831004FF4A0500F90E00210900521DB
:1021F0000CA8FEF747FEFEF751FB41F201018842B1
:1022000004D10548016841F48071016013B030BD0C
:102210004038024000700040003C02401048016815
:1022200041F4700101600F48016841F00101016053
:102230000C4A00210832116002680B4B1A40026000
:10224000031D0A4A1A60026822F4802202600548CF
:102250000C30016002495806803908607047000060
:1022600088ED00E000380240FFFFF6FE1030002449
:102270002DE9F04104460068016921F44052E1680B
:10228000114301612168C86849F20C6290432369D7
:10229000A268E5691A4363692B431A430243CA6083
:1022A0002168486920F44072A06910434861E169DF
:1022B0006425B1F5004F9748974A21684FF03208DE
:1022C0003FD0914201D081427CD1FEF783FE00EBEA
:1022D000C00101EB001061688900B0FBF1F6FEF768
:1022E00079FE00EBC00101EB001061688900B0FBD2
:1022F000F1F0B0FBF5F06FF01801484306EB8001F8
:1023000008EB0110B0FBF5F000F0F006FEF762FEFE
:1023100000EBC00101EB001061688900B0FBF1F037
:10232000B0FBF5F006EB0016FEF754FE00EBC00123
:1023300001EB001061688900B0FBF1F7FEF74AFE7F
:10234000D2E0914201D081423DD1FEF743FE00EB45
:10235000C00101EB001061684900B0FBF1F0B0FB77
:10236000F5F00601FEF736FE00EBC00101EB0010B0
:1023700061684900B0FBF1F7FEF72CFE00EBC001ED
:1023800001EB001061684900B0FBF1F0B0FBF5F023
:102390006FF01801484307EB800108EBC100B0FB68
:1023A000F5F000F0F80006EB4006FEF713FE00EB38
:1023B000C00101EB001061684900B0FBF1F7FEF7C6
:1023C00009FE3CE055E0FEF7F5FD00EBC00101EB36
:1023D000001061684900B0FBF1F0B0FBF5F00601B8
:1023E000FEF7E8FD00EBC00101EB00106168490059
:1023F000B0FBF1F7FEF7DEFD00EBC00101EB0010D2
:1024000061684900B0FBF1F0B0FBF5F06FF0180126
:10241000484307EB800108EBC100B0FBF5F000F08A
:10242000F80006EB4006FEF7C5FD00EBC00101EB2E
:10243000001061684900B0FBF1F7FEF7BBFD00EB4F
:10244000C00101EB001061684900B0FBF1F0B0FB86
:10245000F5F06FF01801484307EB800108EBC1006D
:10246000B0FBF5F000F00700216830448860BDE85B
:10247000F081FEF79FFD00EBC00101EB00106168E9
:102480008900B0FBF1F6FEF795FD00EBC00101EB12
:10249000001061688900B0FBF1F0B0FBF5F06FF05F
:1024A0001801484306EB800108EB0110B0FBF5F082
:1024B00000F0F006FEF77EFD00EBC00101EB00101E
:1024C00061688900B0FBF1F0B0FBF5F006EB001697
:1024D000FEF770FD00EBC00101EB001061688900A0
:1024E000B0FBF1F7FEF766FD00EBC00101EB001059
:1024F00061688900B0FBF1F0B0FBF5F06FF01801F6
:10250000484307EB800108EB0110B0FBF5F000F049
:102510000F00A9E700140140001001402DE9F0412F
:10252000984617460E460446069D1DE0681C1BD0C3
:102530002DB1FEF7B9F9A0EB0800A84214D9206824
:10254000C16821F4D071C1602068416921F00101A6
:102550004161202084F8390084F83A00002084F892
:1025600038000320BDE8F0812068006836EA0000EA
:1025700004D00020B842D9D00020F3E70120F9E7C9
:1025800010B500224FF6FF7300EB8204B4F87C42D2
:10259000240409D49A4205D000EB820041F40041A2
:1025A000C0F87C12D0B210BD521CD2B20B2AEBD3B1
:1025B0001A46F7E710B500F0B3FE002010BD827890
:1025C000012A07D1022202740122427400224282AF
:1025D0008182C2820022114600F00FB87FB51C46EE
:1025E000012501AE0023009586E80E002A4621460B
:1025F00000F066FF04B0002070BD70B504460120F5
:10260000A3780546012B09D0022B06D1204600F005
:1026100019FC48B1022800D1A57070BDA160A2814B
:1026200025760221A17070BDA5700021217670BDB4
:102630007FB51D4690F81D32089C03B1002401238C
:10264000CDE90031CDE9022400231A46294600F0E5
:1026500037FF04B0002070BD1FB500231446CDE93C
:1026600000310822CDE902231A46214600F028FF56
:1026700004B0002010BDFDF7E1BF70B5002400F2EA
:10268000322004EB840505EBC40500EB4505EE7B29
:102690000A358E4201D0FF2909D1AE79964201D088
:1026A000FF2A04D1ED799D4207D0FF2B05D0641C91
:1026B00064B2022CE5DBFF2070BDE0B270BD0B29D7
:1026C00007D200EB8100B0F87C12C1F30E01C0F814
:1026D0007C120020704730B48578029C012D0FD108
:1026E00041F0800101740621417403214282B1EB63
:1026F000122F02D140F2094100E000218182C48200
:10270000224630BC1946FFF778BF0A8803781A447E
:102710000A80017808447047F8B50E4600F11C05A0
:10272000009104462B464FF400720021FFF7D3FFBF
:10273000070005D13246294604F2322000F0DAFEC5
:102740003846F8BD38B50D460091044600F11C032B
:102750004FF480720021FFF7BEFF010030D104F575
:102760000870227F0270627F4270A27FE37F082D93
:1027700002EB0322428094F82020027194F8212079
:10278000427194F82220827194F82320C27117D9E3
:1027900014F8242F637802EB03220281A278E378F5
:1027A00002EB032242812279637902EB03228281C8
:1027B000A2798273E279C273227A0274627A4274D5
:1027C000084638BDF8B51C461646009341F44072E1
:1027D00000F11C031D460021FFF77DFF002814D1E6
:1027E0006978032911D129788A1EA24200DC144697
:1027F0000021A2B2AD1C04E06B5C891C06F8013B11
:1028000089B29142F8D300213170F8BD70B5044609
:10281000D0F874020126C5696879062842D2DFE83B
:1028200000F00341210329340921204600F067F814
:10283000F8B905F1260014F81C1F01706178417089
:10284000A178E27801EB0221298521790171617972
:102850004171A1798171E179227A01EB0221018133
:10286000022005E0E98D204600F053F808B9042065
:10287000687117E000221146204600F0C6FA0521D3
:1028800008B103280ED169710CE00021204600F048
:10289000C9FA38B901206871D4F8C422022120464F
:1028A00090470026304670BD70470000064A417AC6
:1028B0008378515C012B01D0807910B102488238B5
:1028C00000E00248405C7047406700083C66000832
:1028D0000146FF200A780A2A0ED191F81F2202EB46
:1028E000820303EBC20201EB420191F8431201297A
:1028F00003D0022900D1012070470220704708B59B
:1029000000F11C0300914FF404520121FFF7E3FE94
:1029100008BD08B500F11C0300914FF408520121D5
:10292000FFF7D9FE08BD000010B500F029F908B185
:10293000002010BD004810BD103F002010B500F071
:10294000A1F908B1002010BD004810BD980000207A
:1029500030B4A125029C0574012542EA0121457489
:10296000418200218182C482224630BC1946FFF791
:1029700044BE70B50546D0F874020026C46961787B
:1029800039B12846FFF716FE61782846FFF797FE13
:102990006670217839B12846FFF70CFE2178284669
:1029A000FFF78DFE2670D5F87402C06908B101F0FA
:1029B000FFFE002070BD00002DE9FE430546D0F863
:1029C0007402002602240179FF2301222846FFF722
:1029D00054FE0146FF287DD0284600F0C7FF342072
:1029E00001F0FEFFD5F874120446C861072181701A
:1029F00095F81F0200EB800101EBC00005EB4000E1
:102A000090F8430201280AD0022810D048A001F013
:102A1000E1FC4DA001F0DEFC0220BDE8FE834BA0EE
:102A200001F0D8FC48A001F0D5FC4E4806E04EA0CD
:102A300001F0D0FC44A001F0CDFC50482063002000
:102A4000A070607195F81F0200EB800101EBC000DF
:102A500005EB400090F84802A07695F81F0200EBC5
:102A6000800101EBC00005EB4000B0F84A02208372
:102A700095F81F0200EB800101EBC00005EB400060
:102A800090F84C02A0830A2801D20A20A08395F86E
:102A90001F0200EB800101EBC00005EB400090F845
:102AA0004072022F3FD9022795F81F024FF003080A
:102AB00000EB800101EBC00005EB400000EBC6001D
:102AC00090F84812080615D521712846FFF758FDE1
:102AD000607000E02AE00146208B95F81D32CDE9B8
:102AE0000038029095F81C322279284600F0F8FC54
:102AF000617812E0E1702846FFF742FD2070228BDA
:102B000095F81D32CDE900380292014695F81C3245
:102B1000E278284600F0E4FC21780022284600F004
:102B2000AFFC761CF6B2BE42BED30024204674E74A
:102B300050726F746F636F6C206E6F74207375705A
:102B4000706F727465642E000A0000004B65794254
:102B50006F6172642064657669636520666F756E67
:102B600064210000312C00084D6F75736520646589
:102B70007669636520666F756E642100F12C00082C
:102B800070B5D0F87402C469228BEAB3244904F109
:102B9000080001F0B6FD218B88423ED1002121487A
:102BA000FFF73AF9204C002160701E482030FFF7F3
:102BB00033F9A0701B4800214030FFF72DF9E07079
:102BC000184800216030FFF727F9207115480021CF
:102BD0008030FFF721F9607112480021A030FFF723
:102BE0001BF9A0710F480021C030FFF715F9E07103
:102BF0000C480021E030FFF70FF92072002529462C
:102C00000A48FFF709F900E007E061196D1CEDB211
:102C10004872062DF3D3002070BD022070BD000065
:102C20006C0000201C650008103F00201C66000896
:102C300010B50146D0F874020022114CC3690F4848
:102C4000827042700271C270827142710272C271EE
:102C5000104600BF44F82020401C0228FAD3188BED
:102C6000022801D902201883502203F108001C31E8
:102C70005C6101F03FFD002010BD0000103F00200E
:102C80006C00002010B5D0F87402C469228B42B3E6
:102C9000154904F1080001F034FD218B884220D150
:102CA00000211248FFF7B8F80F4C0021241D2070B6
:102CB0000E482030FFF7B0F860700C4800216038F3
:102CC000FFF7AAF8A070094800214038FFF7A4F8E0
:102CD000E070064800212038FFF79EF820710020A0
:102CE00010BD022010BD000094000020886800087C
:102CF00010B50146D0F874020B4B0022C0691A705F
:102D00005A709A70DA701A711B1F1A60028B042AAB
:102D100001D9042202834361282208301C3101F0CA
:102D2000E9FC002010BD000098000020F8B5054621
:102D3000D0F8740200270426C469A078072851D26D
:102D4000DFE800F0040750501E192D00216B2846C3
:102D50008847207E00900022012128466369FFF702
:102D6000F7FD40BB228B04F10800616901F0EBFC28
:102D70000520A07036E0D5F8B802C00731D131E0A7
:102D80006378227E2846616900F06AFA0620A07006
:102D9000D5F8B8022062002084F8240022E061788F
:102DA000284600F020FB012806D06178284600F074
:102DB0001AFB052810D015E094F8240090B9228B56
:102DC00004F10800616901F0BEFC012084F82400D0
:102DD0002846FFF769FD05E0A17E2846FFF7EFFBD7
:102DE00000B9A6703846F8BDD0F87412C9698A785F
:102DF000062A08D1D0F8B8020A6A801A8A8B904253
:102E000001D30420887000207047212303740A2313
:102E1000437442EA0121418200218182C1820A4633
:102E2000FFF7EBBB212202740B22427439B100215F
:102E3000418200218182C1820A46FFF7DEBB012167
:102E4000F6E700002DE9F84F04460125007E0B2629
:102E50002F464FF009084FF007094FF0050B4FF0D0
:102E60000D0A0C281ED2DFE800F0B2060E212C3825
:102E7000445C67788495627904F110012046FFF77D
:102E8000EBFB02200DE06179204600F0ACFA01284E
:102E900077D1207CE18A00F0800021B180283BD1ED
:102EA0000320207693E0802814D02FE0D4F8B802D5
:102EB000E0812379A2892046A168FFF78FFB0420D7
:102EC000EFE72179204600F08EFA012802D005288C
:102ED00041D056E084F8188079E000976379A289A0
:102EE0002046A168FFF7A4FBD4F8B802E0810620D1
:102EF000D7E76179204600F076FA012806D0052848
:102F000007D0022808D0042809D060E084F818907F
:102F10005DE00C2020761EE084F818B057E026769D
:102F200054E00022237911462046FFF757FBD4F8DE
:102F3000B802E0810820B4E72179204600F053FA76
:102F4000012804D0042823D0052804D03FE084F8C9
:102F500018A000253BE0032539E0009700226379A3
:102F600011462046FFF764FBD4F8B802E0810A203E
:102F700097E76179204600F036FA012804D002284C
:102F8000A8D0042804D022E0002584F818A01EE070
:102F900026761CE0607E401CC0B26076022805D810
:102FA000204600F086FA2776A77010E0D4F8C422F5
:102FB0000621204690470020607606A001F00AFA1C
:102FC00006A001F007FA09A001F004FA022528463C
:102FD000BDE8F88F4552524F523A2000436F6E744D
:102FE000726F6C206572726F720000000A00000040
:102FF0002DE9FE430126417800250446374600F1BD
:103000001C08082956D2DFE801F0040F27565E6835
:10301000788F08212046FFF795FB00284AD194F8C5
:103020002702A07167702CE012212046FFF78AFB6F
:103030000028F3D1B4F82A1247A001F0CBF949A037
:1030400001F0C8F9B4F8281247A001F0C3F945A06F
:1030500001F0C0F902203EE00121204600F000FD11
:10306000002872D10220FFF706FB394684F81C7253
:1030700040A001F0AFF93BA001F0ACF90320607073
:10308000A07994F81D120091CDE9015094F81C32FA
:1030900021798022204600F023FAA07994F81D12AD
:1030A0000091CDE9015094F81C326179002220464C
:1030B00000F016FA49E009212046FFF72DFB002811
:1030C00043D1042007E0B4F834122046FFF724FB74
:1030D00000283AD10520607037E094F82E120625BA
:1030E00049B1FF2342462046FFF76CFB00282CD154
:1030F000414626A00DE02AA013E094F82F120725E0
:1031000071B1FF2342462046FFF75CFBE8B9414618
:1031100028A001F05FF913A001F05CF9657014E0DC
:1031200028A001F057F9F6E794F8301281B1FF2397
:1031300042462046FFF746FB38B9414625A001F03C
:1031400049F908A001F046F900263046BDE8FE83A3
:1031500025A001F03FF9F4E75049443A202578686A
:10316000000000000A0000005649443A2025786813
:103170000000000041646472657373202823256495
:10318000292061737369676E65642E004D616E75E9
:103190006661637475726572203A202573000000C1
:1031A0004D616E756661637475726572203A204E6A
:1031B0002F41000050726F64756374203A202573AC
:1031C0000000000050726F64756374203A204E2F27
:1031D0004100000053657269616C204E756D626537
:1031E00072203A202573000053657269616C204E8D
:1031F000756D626572203A204E2F410070B50D4604
:10320000040011D084F8BC220020C4F87402C4F871
:1032100078022046FDF79CF90DB1C4F8C45220464F
:1032200000F0F4F8002070BD05A001F0D3F806A06E
:1032300001F0D0F809A001F0CDF8022070BD000027
:103240004552524F523A2000496E76616C696420B3
:10325000486F73742068616E646C65000A0000003A
:103260002DE9FF410C46154600210127CDE9025109
:103270001E46CDE9007403233A46314600F020F99A
:10328000E0788DE86100A37862782178144801F035
:10329000A1F8144E10213046FDF7F6FA124D202108
:1032A00028703046FDF7F0FA104E012130701048BA
:1032B000FDF7EAFA0F49104A0870E1781170217899
:1032C0002A78914208D161783278914204D1A1786C
:1032D000814201D10948076004B00020BDE8F081B7
:1032E000C8680008000802403D0000203E000020A1
:1032F000000402403F000020480000202800002079
:103300007FB51C46012501AE0023009586E80E001E
:1033100003230022214600F0D3F804B0002070BD42
:1033200010B5D0F8C002FDF7DAFA002010BD10B5D4
:10333000017819B10178012909D00AE0012180F84A
:103340001E12D0F8C42222B10421904701E00221CC
:103350000170002010BD000070B5044600F0A9F80F
:1033600021792046FFF7ABF961792046FFF7A7F9ED
:10337000002584F81E52D4F8C42212B1052120463B
:10338000904707A001F026F80BA001F023F80B48A6
:103390000560204600F086F803202070002070BDF4
:1033A0005553422044657669636520646973636F91
:1033B0006E6E6563746564000A00000024000020DE
:1033C0000020704710B50124D0F8C002FDF77DFA47
:1033D00020B1012805D0022803D101E0002400E03B
:1033E0000224204610BDD0F8C002FDF771BAD0F813
:1033F000B812491CC0F8B81201780A2905D1D0F8D2
:103400007412002901D089690847704710B5044635
:103410000F480E49022301600B21816000210162E7
:10342000C0E906310122C0E90312C0F894424263A8
:10343000C4F8C002FDF783FB0548FDF743FA0146D7
:10344000204600F01AF8002010BD000000000440E3
:1034500070390020FEB508AF97E870008DE8700065
:10346000D0F8C002FDF74DFA0020FEBD10B5D0F82F
:10347000C002FDF717FC002010BDC0F8B81270475D
:10348000074801EB810100EBC10090F83B1011B13E
:1034900080F8502001E080F85120002070470000A3
:1034A0007039002010B5D0F8C002FDF702FC0020F2
:1034B00010BD10B5D0F8C002FDF711FC002010BD02
:1034C0002DE9FF410DF1280898E8F0008DE8F000A3
:1034D000D0F8C002FDF740FA04B00020BDE8F0814A
:1034E000FEB508AF97E870008DE87000FFF7B2FFF7
:1034F0000020FEBD2DE9F84105460B782B704B7876
:103500006B708B78CC78084603EB04236B800B79C7
:103510002B714B796B718B79AB71CB79EB71002788
:10352000017A2972092A57D90921ADF800104EE015
:103530006946FFF7EAF84178042946D107EB87018D
:1035400001EBC70105EB4108017888F80A104178C2
:1035500088F80B10817888F80C10C17888F80D1065
:10356000017988F80E10417988F80F10817988F870
:103570001010C17908F10A0488F81110017A21723B
:10358000002618E06946FFF7C0F84178052912D1F6
:1035900008EBC60102780A7542784A7582788A7506
:1035A000C278CA7502794379761C02EB03220A833A
:1035B00082798A7676B22179B14204DD6988BDF8D4
:1035C00000209142DED87F1C7FB2022F04DA6A8885
:1035D000BDF800108A42ABD8BDE8F8812DE9FE4362
:1035E000044602208DF800002178002008270C26D0
:1035F00005464FF001080B2913D2DFE801F006DE83
:1036000013D3DE48B8626B76CC0094F81E02002813
:1036100007D084F80080C820FFF72DF82046FFF778
:1036200025FFCAE066A000F0D5FE6AA000F0D2FE39
:103630006420FFF720F82046FFF7C4FE84F81D023F
:103640000520207000212046FEF79AFF607180213E
:103650002046FEF795FF20710146A07994F81D22BF
:103660000092CDE9015094F81C3280222046FFF7E9
:1036700037FFA07994F81D120091CDE9015094F81C
:103680001C32617900222046FFF72AFF95E0204690
:10369000FFF7AEFC0028C4D14FA000F09BFE4DA068
:1036A00000F098FE84F81F5294F83102012801D0EE
:1036B000072068E04DA000F08DFE46A000F08AFED5
:1036C00006E0D4F8C422002A77D001212046904792
:1036D000277072E094F83712204600F0CFF90028E6
:1036E0006BD1092020704BA024E0D4F8781201B3EC
:1036F000C4F8745294F8412204EB8001D1F870129E
:103700000B79934201D1C4F87412401C10F0FF00F1
:10371000F2D0D4F87402002826D081682046884769
:1037200070B12670D4F87402016841A000F052FE16
:1037300002E047A000F04EFE26A000F04BFE3CE069
:1037400006202070D4F87402016849A000F042FEFF
:1037500020A000F03FFE4B492046C1F80080D4F87D
:10376000C4220321904728E0267047A0E2E7D4F85E
:10377000740250B10169204688478DF800009DF819
:103780000000D0B90A20207017E0267048A000F091
:1037900021FE49A0CEE7D4F8740270B141692046F9
:1037A00088470AE02046FCF7D3FED4F8740220B123
:1037B000C16820468847C4F874520020BDE8FE83E3
:1037C0005553422044657669636520417474616392
:1037D000686564000A000000456E756D657261746D
:1037E000696F6E20646F6E652E0000005468697307
:1037F0002064657669636520686173206F6E6C79FB
:10380000203120636F6E66696775726174696F6ECF
:103810002E00000044656661756C7420636F6E66EF
:10382000696775726174696F6E207365742E00002C
:10383000446576696365206E6F7420737570706F70
:103840007274696E6720257320636C6173732E0038
:103850004E6F20436C6173732068617320626565ED
:103860006E20726567697374657265642E0000006E
:10387000257320636C617373207374617274656463
:103880002E000000240000204E6F207265676973CF
:10389000746572656420636C61737320666F722057
:1038A00074686973206465766963652E00000000A2
:1038B0004552524F523A2000496E76616C6964203D
:1038C000436C617373204472697665722E00000048
:1038D00010B5044600F0EAF8C820FEF7CCFE2046FA
:1038E000FCF736FE204600F0D7F8002010BD00009F
:1038F00010B50022A1B1D0F8783253B10BA000F07E
:1039000069FD0CA000F066FD11A000F063FD02222D
:1039100004E00123C0F87832C0F87012104610BDE0
:1039200002A000F057FD0BA0ECE700004552524FFB
:10393000523A20004D617820436C617373204E75BC
:103940006D626572207265616368656400000000E5
:103950000A000000496E76616C696420436C6173F3
:10396000732068616E646C650000000070B50546E8
:1039700090F836020C460026A04227D985F81F424F
:10398000214618A000F026FD1EA000F023FD04EB48
:10399000840000EBC40005EB40041BA094F8411226
:1039A00004F2412400F016FD16A000F013FD61782A
:1039B00019A000F00FFD13A000F00CFDA1781AA0D3
:1039C00000F008FD0FA000F005FD09E01AA000F0CE
:1039D00001FD1BA000F0FEFC0AA000F0FBFC02268B
:1039E000304670BD537769746368696E6720746F81
:1039F00020496E74657266616365202823256429F9
:103A0000000000000A000000436C61737320202056
:103A1000203A202578680000537562436C61737307
:103A2000203A20257868000050726F746F636F6CC5
:103A3000203A2025786800004552524F523A200023
:103A400043616E6E6F742053656C656374205468B7
:103A5000697320496E746572666163652E000000AB
:103A60008278012A06D10022027405234374418220
:103A70008282C28200221146FEF7BFBD8278012AEF
:103A800006D1002202740923437441828282C282D9
:103A900000221146FEF7B1BD10B50446FFF702FD46
:103AA00001212046FFF78CFC002010BD10B5044614
:103AB000FFF7FFFC00212046FFF782FC217920461A
:103AC000FEF7FDFD61792046FEF7F9FD002010BDEF
:103AD00001290CD00648022905D0042905D0052962
:103AE00005D1012102E0032100E0022101707047AD
:103AF0003C00002070B50446049D06990D980129EC
:103B00000CD0E06840F04000E060204600F028F86B
:103B10004FF48030A063012D16D01DE0A16B21F47D
:103B20008031A163E1680D4A1140E160E16821F450
:103B30004011E160012803D1E06840F48010E060AA
:103B4000204600F00DF8E6E7A06840F00600A0600F
:103B5000A06840F02000A060002070BDBFFFBDFF46
:103B600001220C4902E0521C8A420BD80369002B47
:103B7000F9DA026942F001020261012204E0521CFA
:103B80008A4201D9032070470369DB07F7D100207F
:103B900070470000400D0300816821F00101816041
:103BA0000020704730B50246012400230C4800EA8B
:103BB000C44040F0004502F5A06000EB41100561F3
:103BC00002F5A06000EB4110036823F0804343F04E
:103BD000004302F5A06000EB41100360002030BDFF
:103BE0000000F81F08B5D0F8402422F02E02009201
:103BF000D20405D4012909D1009941F4805103E090
:103C000021B9009921F48051C0F84014002008BD6A
:103C1000816841F00101816000207047002110227D
:103C20000261054A491C914201D90320704703698A
:103C3000DB06F7D400207047400D0300002220234C
:103C400043EA811101610549521C8A4201D90320CE
:103C5000704703699B06F7D400207047400D0300AE
:103C6000D0F8080480B2704708B5D0F8400400903E
:103C7000C0F3414008BD406900F00100704710B535
:103C80000246002302F5A06000EB41100068C0F37B
:103C9000814040B102F5A06000EB41100068C0F324
:103CA0008140022846D102F5A06000EB4110006877
:103CB00040F0804402F5A06000EB41100460D06A3F
:103CC00000F47F0048BB02F5A06000EB41100068E3
:103CD00020F0004402F5A06000EB4110046002F502
:103CE000A06000EB4110006840F0004402F5A060C5
:103CF00000EB4110046000BF581C0346B0F57A7F0A
:103D000000D909E002F5A06000EB4110006800F066
:103D10000040B0F1004FEFD053E002F5A06000EB9F
:103D20004110006840F0004402F5A06000EB411033
:103D3000046046E002F5A06000EB4110006840F02E
:103D4000804402F5A06000EB411004604FF48260F3
:103D5000805880B248BB02F5A06000EB41100068BB
:103D600020F0004402F5A06000EB4110046002F571
:103D7000A06000EB4110006840F0004402F5A06034
:103D800000EB4110046000BF581C0346B0F57A7F79
:103D900000D909E002F5A06000EB4110006800F0D6
:103DA0000040B0F1004FEFD00BE002F5A06000EB57
:103DB0004110006840F0004402F5A06000EB4110A3
:103DC0000460002010BD0000F0B5DDE906564FF09C
:103DD000FF3C00EB4114059FC4F808C535B1012D27
:103DE00021D0022D02D0032D2AD114E040F29D4CA7
:103DF000C4F80CC55FEA026C05D500BFD4F80CC549
:103E00004CF4807C1AE0B0F1A04F19D0D4F80CC566
:103E10004CF0600C12E040F29D6CC4F80CC55FEAF7
:103E2000026CEBD40CE040F2252CC4F80CC55FEA20
:103E3000026C05D5D4F80CC54CF4C07CC4F80CC594
:103E4000D0F818C44FF0010E0EFA01FE4CEA0E0C29
:103E5000C0F818C4816941F0007181614FF0FE50D3
:103E600000EA83504FF4F04101EAC22108434FF4C5
:103E7000004101EA02210843022F10D05FF0000147
:103E800040EA41404FF4402101EA85410843C6F32E
:103E90000A010843C4F80005032D02D007E0012100
:103EA000EEE7D4F8000540F00050C4F8000500200B
:103EB000F0BD014640F21440405880B27047000007
:103EC0002DE9F84F05460C4616464FF0000BDA4632
:103ED00000274FF48078B946B5F1A04F1CD0207967
:103EE000D0B94EB96079012806D161782846FFF72C
:103EF00059FE0020BDE8F88F012E0DD1607805F540
:103F0000A06101EB4010C06820F06002607801EB16
:103F10004010C26000206071206968B12189206969
:103F20000844401EB0FBF1F087B2474505DD474627
:103F300020897843206100E00127E07810B12089D2
:103F4000784320612069C0F312003E4901EAC7416D
:103F50000843A17A4FF0C04202EA417108436178F8
:103F600005F5A06202EB4111086136B1607805F5F4
:103F7000A06101EB4010E26842614FF4816040595A
:103F800000F0010080F0010B607805F5A06101EB05
:103F90004010006820F00052607801EB4010026091
:103FA000607801EB4010006840EA4B72607801EBEA
:103FB00040100260607801EB4010D0F8009029F0CA
:103FC000804949F00049607801EB4010C0F800904A
:103FD000AEBBE07898BB206988B3E07930B10128A6
:103FE00013D0022803D003281ED10DE000BF2069A2
:103FF000C01CC0F38F0AE86A80B2504503D2A8699A
:1040000040F02000A86110E000BF2069C01CC0F390
:104010008F0A4FF48260405980B2504503D2A8699C
:1040200040F08060A86100E000BF00BF0020009069
:10403000208A83B262782846E16800F01FF90020E8
:1040400058E700000000F81F2DE9F0471746044626
:104050000025DDF82090C0F8005E806B20F4802001
:10406000A063A06B20F40020A063A06B40F40010BC
:10407000A0634FF0A048032B06D1444504D0D4F8E8
:10408000000440F0040003E0D4F8000420F0040031
:10409000C4F8000410212046FFF7D0FD2046FFF7AA
:1040A000BDFD0020461E06E004EB4011C1F8086586
:1040B000C1F80C55401C8742F6D801212046FFF775
:1040C00091FDC820FCF7BAFAA5616661444505D1A7
:1040D000802060620C48A0620C4805E04FF400703C
:1040E00060620B48A0620B48C4F80001B9F1000FF0
:1040F00003D1A06940F01000A061A06906490843FF
:10410000A0610020BDE8F08780006000E000400072
:10411000000200010003E000080020A3D0F8002402
:1041200022F00302C0F80024D0F8002401F00303B9
:104130001A43C0F80024012902D0022903D006E066
:104140004BF6803101E041F27071C0F80414002098
:104150007047416980690840704710B503460020E8
:10416000D21C920803F5805303E01C6841F8044B0D
:10417000401C9042F9D3084610BD38B50446D0F82B
:10418000400420F02E00009040F48070C4F84004F9
:104190000A2004F58864FCF751FA009820F4807036
:1041A0002060002038BDC26822F0C042C2600129F0
:1041B00001D021B107E0C16841F0005102E0C168BF
:1041C00041F08041C16000207047F0B505460027EE
:1041D000A86820F00100A86010212846FFF72EFDF6
:1041E0002846FFF71BFD002411E005F5A06000EB59
:1041F0004410066846F0804626F0004626F4004645
:1042000005F5A06000EB44100660601CC4B20F2CE2
:10421000EBDD002423E005F5A06000EB4410066808
:1042200046F0804646F0004626F4004605F5A060BC
:1042300000EB4410066000BF781C0746B0F57A7F9B
:1042400000D909E005F5A06000EB4410006800F01B
:104250000040B0F1004FEFD000BF601CC4B20F2C83
:10426000D9DD4FF0FF3140F21440415108466861FA
:10427000A86840F00100A8600020F0BD30B500241F
:10428000039D6DB9DB1C9B0800EB023000F58050EC
:1042900004E000BF51F8042B0260641C9C42F9D377
:1042A000002030BD2DE9F041204C4626072721781B
:1042B00005460A281ED00D2D28D002466088FCF73E
:1042C0003BF86088083080B2A0F5807160803F398B
:1042D00003D1678020780F30207020789B2813D975
:1042E000FDF70EFE2670608831462A46BDE8F04193
:1042F000FCF722B80F31C8B2678020709B2803D921
:10430000FDF7FEFD26706780BDE8F0816088072814
:1043100001D0083805E0462904D00F39217040F259
:10432000371060802022217880B2DFE7380000203B
:1043300010B5FDF7E5FD4FF6E070FCF701F912A1AD
:104340000420FCF759F84FF6FF70FCF7F9F8462304
:10435000912219465020FCF78DF80020FDF7FAFB5A
:104360000120FDF7F7FB0220FDF7F4FB4FF4FC60A2
:10437000FCF7E6F80020FCF7DDF80021BDE810406E
:104380000846FDF709BC0000555342204849442027
:10439000486F7374204D6F7573652044656D6F2E83
:1043A0002E2E2020202020202020202020202020F1
:1043B00020202020202020000178002908D04178EA
:1043C000002905D090F9011090F90000FDF7E4BB39
:1043D0007047FEE70FB4054B10B503A9044A0298D5
:1043E00000F028F810BC5DF814FB000099470008A5
:1043F000A00000200907090E002804DB00F1E020DE
:1044000080F80014704700F00F0000F1E02080F801
:10441000141D704702E008C8121F08C1002AFAD113
:1044200070477047002001E001C1121F002AFBD134
:10443000704700002DE9FF4F8DB09B460F460446A4
:10444000002606E025280BD05A460F999047641C99
:10445000761C20780028F5D111B03046BDE8F08FE9
:104460000025A8460122984900E0054314F8013FC1
:10447000203B02FA03F00842F7D120782E2817D10A
:1044800014F8010F45F004052A280ED06FF02F0212
:104490002078A0F1300109290AD808EB880102EB45
:1044A000410100EB0108641CF2E757F8048B641C1F
:1044B00020786C280DD004DC4C2812D06A2811D149
:1044C00004E074280DD07A280CD10AE045F40015D8
:1044D00007E0617845F48015814202D1641C05F53E
:1044E0008015641C2278692A45D008DC002AB3D0E4
:1044F000582A69D0632A10D0642A08D13BE0702A78
:1045000067D0732A13D0752A5CD0782A5CD0104605
:104510005A460F999047761CD3E017F8040B8DF894
:10452000000000208DF80100E946012003E057F863
:10453000049B4FF0FF3069074FF0000501D40AE0FB
:104540006D1C45450DDA8542FADB19F80510002986
:10455000F6D106E06D1C8542FCDB19F80510002938
:10456000F8D12E4404E019F8010B5A460F999047F0
:104570006D1EF8D2A5E00A200021CDE90801C5F39F
:10458000025002280DD001CFC117031E71F10003A4
:104590000DDA4FF0000CD0EB0C006CEB01012D2379
:1045A00008E0FF1D27F00707F7E80201EDE72B05FC
:1045B00004D52B238DF8283001233BE0EB0739D0BD
:1045C0002023F7E70A2000E010200021CDE90801B0
:1045D00007E01020002145F00405CDE908014FF067
:1045E0000808C5F3025002280FD001CF00214FF078
:1045F000000A2B071FD5702A0DD0DDE908C38CF007
:10460000100C5CEA030C0CD015E0FF1D27F0070727
:10461000F7E80201EBE740228DF828204FF0010A6D
:104620000BE050EA010306D030238DF828308DF8D6
:10463000292002239A46582A04D024A20DF12009E9
:104640000B9209E026A2F9E7DDE90823FBF7B8FDA4
:104650000B9B9B5C09F8013D50EA0102F4D1ADEBE4
:10466000090020300890680701D44FF0010808992C
:10467000884502DDA8EB010000E00020804600250F
:1046800006E00AA85A46405D0F9990476D1C761CBB
:104690005545F6DB04E030205A460F999047761CCA
:1046A000B8F10001A8F10108F5DC05E019F8010BEB
:1046B0005A460F999047761C0899481E0890002981
:1046C000F4DC641CC5E600000928010030313233F7
:1046D000343536373839616263646566000000003E
:1046E0003031323334353637383941424344454628
:1046F0000000000000238380C38083720281016078
:10470000704770B5837A0024BBB9012383720023FC
:1047100011E0C5888688B54212D00668755D01F83B
:10472000015BC5886D1CADB2C5800689B54200D15C
:10473000C4805B1C9BB29342EBD38472104670BD65
:104740008472184670BDF0B5837A0024EBB901235A
:104750008372002317E08588C7886E1CBE4217D07D
:10476000B0F808C0664500D197B1076811F8016B31
:104770007E5585886D1CADB285800689B54200D115
:1047800084805B1C9BB29342E5D384721046F0BDDB
:1047900084721846F0BD000013B54FF6FF73012276
:1047A00069460248FCF752FE00981CBDD03E00202E
:1047B00010B5002821D0114B0022001F196803E01A
:1047C000814203D80A4649680029F9D152B11368D9
:1047D000841A9C4204D1006818441060104602E01C
:1047E000506000E0186039B102680B1A934203D19F
:1047F0000B681A4402604968416010BDA4000020A3
:104800000F4810B5026886B0002142F00402026031
:1048100000680C4C00F00400059008200090012076
:10482000CDE901010320039069462046FBF754FFC0
:10483000002208212046FCF72CF806B010BD00002D
:1048400030380240000802401CB5002425462646A8
:1048500027460194FCF75EFAFDF798FC4048016892
:1048600041F004010160016801F004010091016858
:1048700041F080010160016801F080010091016850
:1048800041F0010101600068364900F0010000902C
:10489000354801604FF4E131C0E901140C21C460D6
:1048A000C0E904418461C461FCF778FD00B1FEE712
:1048B000FFF7A6FFFDF71AFC00222C492C48FEF753
:1048C0009DFC2C492A48FFF713F82948FFF7E4F824
:1048D000DFF8A4A0DFF8A49040F201182448FEF706
:1048E0007DFEFDF7A3F9761C464534D12448002609
:1048F00041788DF8041081788DF80510C0788DF816
:1049000006008DF80740DAF80000E0B1C7B90127CA
:104910001CA0FFF75FFD9DF8070000909DF8063092
:104920009DF805209DF804101DA0FFF753FD0323FB
:10493000042201A90E48FEF7E3FCDAF8000028B1D2
:10494000FDF7B4FB07E0244800270460012208219A
:104950002248FBF79EFF6D1C4D45BFD10025BDE7EA
:1049600030380240004C0040D03E0020D13A0008D0
:10497000083C0020740000202400002001000200F8
:104980003C00002062436C61737353746172742045
:10499000212121212121212121213131200A000041
:1049A0006275665F66735B305D3D25782C62756667
:1049B0005F66735B315D3D25782C6275665F66735B
:1049C0005B325D3D25782C6275665F66735B335D97
:1049D0003D2578200A000000280000200008024041
:1049E000F0B50B30154D20F007010024144A0FE0FC
:1049F00003688B420BD38B4205D95E1A4318476874
:104A0000C3E9006700E04368136002C004E0021DD0
:104A100010680028ECD12046002802D1286808B18F
:104A20000020F0BD064A07481060074A121A22F01B
:104A30000702C0E9002401202860D7E7A800002071
:104A4000A4000020243F002020410020000000009E
:104A50000000000000000000000000000000000056
:104A60000000000000000000000000000000000046
:104A70000000000000000000000000000000000036
:104A80000000000000000000000000000000000026
:104A90000000000000000000000003800003800010
:104AA0000380000380000380000380000380000374
:104AB00080000380000100000100000000000000F1
:104AC00000038000038000000000000000000000E0
:104AD00000000000000000000000000000000000D6
:104AE00000000000000E70000E70000E7000042028
:104AF000000420000420000420000000000000004A
:104B000000000000000000000000000000000000A5
:104B10000000000000000000000000000000000095
:104B200000000000000000000000066000066000B9
:104B30000660000660000660003FF8003FF80006CF
:104B400060000CC0003FF8003FF8000CC0000CC033
:104B5000000CC0000CC0000CC000000000000000F1
:104B60000000000000000000000000000000000144
:104B7000800001800007B0000FF00018700018706E
:104B8000001C00000F800007E00000F0001830005B
:104B90001C30001C70001FE0001BC00001800001E1
:104BA0008000018000018000000000000000000083
:104BB000000000000000000000000780000FC0009F
:104BC0001CE0001860001860001CE0000FF80007EF
:104BD000E0001FF00007380006180006180007382C
:104BE0000003F00001E000000000000000000000F1
:104BF00000000000000000000000000000000000B5
:104C0000000000000000000003F00007F0000C604E
:104C1000000C00000C00000600000700000F9C00C4
:104C20001DFC0018F0001870000FFC0007DC0000ED
:104C30000000000000000000000000000000000074
:104C400000000000000000000000000000038000E1
:104C5000038000038000010000010000010000014A
:104C60000000000000000000000000000000000044
:104C70000000000000000000000000000000000034
:104C80000000000000000000000000000000000024
:104C9000000000180000380000700000F00000E084
:104CA0000000E00001C00001C00001C00001C00020
:104CB00001C00001C00000E00000E0000070000042
:104CC0007000003800001800000000000000000024
:104CD000000000000000000000001800001C0000A0
:104CE0000E00000E00000700000700000380000314
:104CF0008000038000038000038000038000070021
:104D0000000700000F00000E00001C00001800004B
:104D10000000000000000000000000000000000093
:104D200000000180000180000180001DB8001FF814
:104D30000007E00003C00003C0000660000660003A
:104D40000000000000000000000000000000000063
:104D50000000000000000000000000000000000053
:104D60000000000000000000000000000000000043
:104D70000180000180000180000180000180003F6F
:104D8000FC003FFC000180000180000180000180E8
:104D90000001800000000000000000000000000092
:104DA0000000000000000000000000000000000003
:104DB00000000000000000000000000000000000F3
:104DC00000000000000000000000000000000000E3
:104DD00000000000000000E00000C00001C0000171
:104DE00080000180000300000300000000000000BC
:104DF00000000000000000000000000000000000B3
:104E00000000000000000000000000000000001F83
:104E1000F8001FF800000000000000000000000083
:104E20000000000000000000000000000000000082
:104E30000000000000000000000000000000000072
:104E40000000000000000000000000000000000062
:104E50000000000000000000000000000000000052
:104E600000000000000003C00003C00003C00000F9
:104E70000000000000000000000000000000000032
:104E8000000000000018000018000038000030008A
:104E900000700000600000600000C00000C0000161
:104EA00080000180000300000300000600000600EF
:104EB000000E00000C00001C00001800001800008C
:104EC00000000000000000000000000000000000E2
:104ED000000003C00007E0000C30000C3000181880
:104EE00000181800181800181800181800181800D2
:104EF0001818000C30000C300007E00003C0000060
:104F000000000000000000000000000000000000A1
:104F1000000000000000000000000080000780008A
:104F20001F80001D800001800001800001800001C1
:104F3000800001800001800001800001800001806C
:104F4000001FF8001FF80000000000000000000033
:104F50000000000000000000000000000000000051
:104F6000000007C0001FF000383000301800301873
:104F70000000180000300000600001C00003800045
:104F80000600000C00001800003FF8003FF8000089
:104F90000000000000000000000000000000000011
:104FA0000000000000000000000003C0000FE0004F
:104FB0000C700000300000300000600003C00003EF
:104FC000E0000070000018000018000018001838F9
:104FD000001FF0000FC000000000000000000000F3
:104FE00000000000000000000000000000000000C1
:104FF000000000E00001E00001E000036000066046
:10500000000660000C60000C60001860003060005A
:105010003FF8003FF80000600003F80003F80000CC
:105020000000000000000000000000000000000080
:10503000000000000000000000001FF0001FF00052
:105040001800001800001800001BC0001FF0001C12
:105050003000001800001800001800001800303060
:10506000003FF0000FC00000000000000000000042
:105070000000000000000000000000000000000030
:10508000000000F80003F8000700000E00000C000C
:10509000001800001BC0001FF0001C300018180092
:1050A0001818001818000C38000FF00003E000007A
:1050B00000000000000000000000000000000000F0
:1050C000000000000000000000001FF8001FF800B2
:1050D0001818001838000030000030000070000080
:1050E000600000600000E00000C00000C00001C0DF
:1050F00000018000018000000000000000000000AE
:10510000000000000000000000000000000000009F
:10511000000007E0000FF0001C38001818001818F5
:10512000000C300007E00007E0000C300018180009
:105130001818001818001C38000FF00007E00000D5
:10514000000000000000000000000000000000005F
:105150000000000000000000000007C0000FF00089
:105160001C30001818001818001818000C38000F10
:10517000F80003D80000180000300000700000E0C4
:10518000001FC0001F000000000000000000000021
:10519000000000000000000000000000000000000F
:1051A000000000000000000000000000000003C03C
:1051B0000003C00003C00000000000000000000069
:1051C00000000000000003C00003C00003C0000096
:1051D00000000000000000000000000000000000CF
:1051E00000000000000000000000000000000000BF
:1051F00000000000000000F00000F00000F00000DF
:10520000000000000000000000000000E00001C0FD
:105210000001800001800003000002000000000087
:10522000000000000000000000000000000000007E
:105230000000000000000000001C00003C0000F026
:105240000003C0000F00003C0000F000003C000024
:105250000F000003C00000F000003C00001C000034
:10526000000000000000000000000000000000003E
:10527000000000000000000000000000000000002E
:105280000000000000000000007FFC007FFC000028
:1052900000000000007FFC007FFC00000000000018
:1052A00000000000000000000000000000000000FE
:1052B00000000000000000000000000000000000EE
:1052C00000000000000000007000007800001E00D8
:1052D0000007800001E000007800001E0000780058
:1052E00001E0000780001E00007800007000000050
:1052F00000000000000000000000000000000000AE
:105300000000000000000000000000000007C000D6
:105310000FE0001870001830001830000070000016
:10532000E00003C000038000030000000000000054
:10533000000700000700000000000000000000005F
:10534000000000000000000000000000000000005D
:10535000000003E00007F0000E38000C1800187879
:105360000018F80019D80019980019980019980029
:1053700018F8001878001800000C00000E1800073C
:10538000F80003E000000000000000000000000042
:10539000000000000000000000000000001F80006E
:1053A0001FC00001C000036000036000063000065B
:1053B00030000C30000FF8001FF800180C00300C03
:1053C00000FC7F00FC7F00000000000000000000E7
:1053D00000000000000000000000000000000000CD
:1053E00000000000007FE0007FF00018380018186F
:1053F000001818001838001FF0001FF800181C00D3
:10540000180C00180C00180C007FF8007FF000004A
:10541000000000000000000000000000000000008C
:105420000000000000000000000000000003EC008D
:105430000FFC001C1C00180C00300C003000003069
:105440000000300000300000300000180C001C1C70
:10545000000FF80003F00000000000000000000052
:10546000000000000000000000000000000000003C
:1054700000000000007FC0007FF0001838001818FE
:1054800000180C00180C00180C00180C00180C0068
:10549000180C001818001838007FF0007FE000009A
:1054A00000000000000000000000000000000000FC
:1054B000000000000000000000000000007FF80075
:1054C0007FF8001818001818001998001980001F9C
:1054D00080001F8000198000199800181800181803
:1054E000007FF8007FF800000000000000000000CE
:1054F00000000000000000000000000000000000AC
:1055000000000000003FFC003FFC000C0C000C0CF5
:10551000000CCC000CC0000FC0000FC0000CC0007D
:105520000CC0000C00000C00003FC0003FC0000099
:10553000000000000000000000000000000000006B
:105540000000000000000000000000000003EC006C
:105550000FFC001C1C00180C00300C003000003048
:10556000000030FE0030FE00300C00380C001C1C27
:10557000000FFC0003F0000000000000000000002D
:10558000000000000000000000000000000000001B
:1055900000000000007E7E007E7E001818001818B3
:1055A000001818001818001FF8001FF8001818003D
:1055B0001818001818001818007E7E007E7E000063
:1055C00000000000000000000000000000000000DB
:1055D000000000000000000000000000001FF800B4
:1055E0001FF800018000018000018000018000019F
:1055F00080000180000180000180000180000180A6
:10560000001FF8001FF8000000000000000000006C
:10561000000000000000000000000000000000008A
:10562000000000000007FE0007FE00003000003010
:10563000000030000030000030003030003030001A
:105640003030003030003060003FE0000F8000005C
:10565000000000000000000000000000000000004A
:10566000000000000000000000000000007F3E007D
:105670007F3E0018300018600018C0001980001B21
:1056800080001FC0001CE00018700018300018389F
:10569000007F1F007F1F00000000000000000000CE
:1056A00000000000000000000000000000000000FA
:1056B00000000000007F80007F80000C00000C00D4
:1056C000000C00000C00000C00000C00000C0C0092
:1056D0000C0C000C0C000C0C007FFC007FFC00008C
:1056E00000000000000000000000000000000000BA
:1056F00000000000000000000000000000F00F00AB
:10570000F81F00381C003C3C003C3C00366C003666
:105710006C0033CC0033CC00318C00300C00300CEA
:1057200000FE7F00FE7F000000000000000000007F
:105730000000000000000000000000000000000069
:10574000000000000078FE0078FE001C18001E1803
:10575000001F18001B18001B980019D80018D8004B
:1057600018F8001878001838007F18007F1800001B
:105770000000000000000000000000000000000029
:105780000000000000000000000000000003C00056
:105790000FF0001C3800181800381C00300C0030C6
:1057A0000C00300C00300C00381C001818001C389D
:1057B000000FF00003C00000000000000000000027
:1057C00000000000000000000000000000000000D9
:1057D00000000000003FF0003FF8000C1C000C0C23
:1057E000000C0C000C0C000C18000FF8000FE0006F
:1057F0000C00000C00000C00003FC0003FC0000087
:105800000000000000000000000000000000000098
:105810000000000000000000000000000003C000C5
:105820000FF0001C3800181800381C00300C003035
:105830000C00300C00300C00381C001818001C380C
:10584000000FF00007C00007CC000FFC000C380070
:105850000000000000000000000000000000000048
:1058600000000000007FE0007FF0001838001818EA
:10587000001818001838001FF0001FC00018E000C2
:105880001870001830001838007F1E007F0E0000CE
:105890000000000000000000000000000000000008
:1058A0000000000000000000000000000007D80019
:1058B0000FF8001C38001818001818001E00000F00
:1058C000C00003F0000078001818001818001C38F9
:1058D000001FF0001BE000000000000000000000BE
:1058E00000000000000000000000000000000000B8
:1058F00000000000003FFC003FFC00318C00318CB8
:1059000000318C00318C000180000180000180009A
:105910000180000180000180000FF0000FF0000006
:105920000000000000000000000000000000000077
:10593000000000000000000000000000007E7E006B
:105940007E7E001818001818001818001818001883
:1059500018001818001818001818001818000C3033
:10596000000FF00003C00000000000000000000075
:105970000000000000000000000000000000000027
:1059800000000000007F7F007F7F00180C000C18D3
:10599000000C18000C1800063000063000036000F0
:1059A00003600003600001C00001C000008000002F
:1059B00000000000000000000000000000000000E7
:1059C00000000000000000000000000000FE3F801A
:1059D000FE3F8030060030060030860019CC0019EA
:1059E000CC001B6C001B6C001E7C000E38000E38B7
:1059F000000C18000C18000000000000000000005F
:105A00000000000000000000000000000000000096
:105A100000000000007E7E007E7E001818000C3022
:105A20000006600003C00001800001800003C00088
:105A30000660000C30001818007E7E007E7E00009C
:105A40000000000000000000000000000000000056
:105A5000000000000000000000000000007C7E004C
:105A60007C7E001818000C30000660000660000301
:105A7000C0000180000180000180000180000180E1
:105A8000000FF0000FF00000000000000000000018
:105A90000000000000000000000000000000000006
:105AA00000000000001FF8001FF800181800183050
:105AB0000018600018C000018000030000061800F4
:105AC0000C18001818003018003FF8003FF80000CC
:105AD00000000000000000000000000000000000C6
